{
  "contractName": "PartyStarter",
  "abi": [
    {
      "anonymous": false,
      "inputs": [
        {
          "indexed": true,
          "internalType": "address",
          "name": "party",
          "type": "address"
        },
        {
          "indexed": true,
          "internalType": "address[]",
          "name": "_founders",
          "type": "address[]"
        },
        {
          "indexed": true,
          "internalType": "address[]",
          "name": "_approvedTokens",
          "type": "address[]"
        },
        {
          "indexed": false,
          "internalType": "address",
          "name": "_daoFees",
          "type": "address"
        },
        {
          "indexed": false,
          "internalType": "uint256",
          "name": "_periodDuration",
          "type": "uint256"
        },
        {
          "indexed": false,
          "internalType": "uint256",
          "name": "_votingPeriodLength",
          "type": "uint256"
        },
        {
          "indexed": false,
          "internalType": "uint256",
          "name": "_gracePeriodLength",
          "type": "uint256"
        },
        {
          "indexed": false,
          "internalType": "uint256",
          "name": "_proposalDepositReward",
          "type": "uint256"
        },
        {
          "indexed": false,
          "internalType": "uint256",
          "name": "summoningTime",
          "type": "uint256"
        }
      ],
      "name": "PartyStarted",
      "type": "event"
    },
    {
      "constant": false,
      "inputs": [
        {
          "internalType": "address[]",
          "name": "_founders",
          "type": "address[]"
        },
        {
          "internalType": "address[]",
          "name": "_approvedTokens",
          "type": "address[]"
        },
        {
          "internalType": "address",
          "name": "_daoFees",
          "type": "address"
        },
        {
          "internalType": "uint256",
          "name": "_periodDuration",
          "type": "uint256"
        },
        {
          "internalType": "uint256",
          "name": "_votingPeriodLength",
          "type": "uint256"
        },
        {
          "internalType": "uint256",
          "name": "_gracePeriodLength",
          "type": "uint256"
        },
        {
          "internalType": "uint256",
          "name": "_proposalDepositReward",
          "type": "uint256"
        },
        {
          "internalType": "uint256",
          "name": "_depositRate",
          "type": "uint256"
        },
        {
          "internalType": "uint256",
          "name": "_partyGoal",
          "type": "uint256"
        },
        {
          "internalType": "bytes32",
          "name": "_name",
          "type": "bytes32"
        },
        {
          "internalType": "bytes32",
          "name": "_desc",
          "type": "bytes32"
        }
      ],
      "name": "startParty",
      "outputs": [],
      "payable": false,
      "stateMutability": "nonpayable",
      "type": "function"
    }
  ],
  "bytecode": "0x608060405234801561001057600080fd5b50615d0d806100206000396000f3fe608060405234801561001057600080fd5b5060043610610047577c0100000000000000000000000000000000000000000000000000000000600035046310f2fab1811461004c575b600080fd5b6101ad600480360361016081101561006357600080fd5b81019060208101813564010000000081111561007e57600080fd5b82018360208201111561009057600080fd5b803590602001918460208302840111640100000000831117156100b257600080fd5b919080806020026020016040519081016040528093929190818152602001838360200280828437600092019190915250929594936020810193503591505064010000000081111561010257600080fd5b82018360208201111561011457600080fd5b8035906020019184602083028401116401000000008311171561013657600080fd5b91908080602002602001604051908101604052809392919081815260200183836020028082843760009201919091525092955050600160a060020a038335169350505060208101359060408101359060608101359060808101359060a08101359060c08101359060e08101359061010001356101af565b005b8a8a8a8a8a8a8a8a8a8a8a6040516101c690610408565b8080602001806020018c600160a060020a0316600160a060020a031681526020018b81526020018a815260200189815260200188815260200187815260200186815260200185815260200184815260200183810383528e818151815260200191508051906020019060200280838360005b8381101561024f578181015183820152602001610237565b5050505090500183810382528d818151815260200191508051906020019060200280838360005b8381101561028e578181015183820152602001610276565b505050509050019d5050505050505050505050505050604051809103906000f0801580156102c0573d6000803e3d6000fd5b506000806101000a815481600160a060020a030219169083600160a060020a0316021790555060004290508a60405180828051906020019060200280838360005b83811015610319578181015183820152602001610301565b5050505090500191505060405180910390208c60405180828051906020019060200280838360005b83811015610359578181015183820152602001610341565b5050505090500191505060405180910390206000809054906101000a9004600160a060020a0316600160a060020a03167fb1e43106ac7fc273c99134701f8b8268eb6e540d4c55ad57ca9e8feffe81f9748d8d8d8d8d896040518087600160a060020a0316600160a060020a03168152602001868152602001858152602001848152602001838152602001828152602001965050505050505060405180910390a4505050505050505050505050565b6158c280620004178339019056fe60806040523480156200001157600080fd5b50604051620058c2380380620058c283398181016040526101608110156200003857600080fd5b81019080805160405193929190846401000000008211156200005957600080fd5b9083019060208201858111156200006f57600080fd5b82518660208202830111640100000000821117156200008d57600080fd5b82525081516020918201928201910280838360005b83811015620000bc578181015183820152602001620000a2565b5050505090500160405260200180516040519392919084640100000000821115620000e657600080fd5b908301906020820185811115620000fc57600080fd5b82518660208202830111640100000000821117156200011a57600080fd5b82525081516020918201928201910280838360005b83811015620001495781810151838201526020016200012f565b505050509190910160409081526020830151908301516060840151608085015160a086015160c087015160e0880151610100890151610120909901516001600055969a50949850929691955093919291876200020657604080517f08c379a000000000000000000000000000000000000000000000000000000000815260206004820152601660248201527f5f706572696f644475726174696f6e207a65726f656400000000000000000000604482015290519081900360640190fd5b600087116200027657604080517f08c379a000000000000000000000000000000000000000000000000000000000815260206004820152601a60248201527f5f766f74696e67506572696f644c656e677468207a65726f6564000000000000604482015290519081900360640190fd5b6ec097ce7bc90715b34b9f1000000000871115620002f557604080517f08c379a000000000000000000000000000000000000000000000000000000000815260206004820152601960248201527f5f766f74696e67506572696f644c656e677468206d6178656400000000000000604482015290519081900360640190fd5b6ec097ce7bc90715b34b9f10000000008611156200037457604080517f08c379a000000000000000000000000000000000000000000000000000000000815260206004820152601860248201527f5f6772616365506572696f644c656e677468206d617865640000000000000000604482015290519081900360640190fd5b60008a5111620003e557604080517f08c379a000000000000000000000000000000000000000000000000000000000815260206004820152600a60248201527f6e65656420746f6b656e00000000000000000000000000000000000000000000604482015290519081900360640190fd5b89600081518110620003f357fe5b6020026020010151600960006101000a815481600160a060020a030219169083600160a060020a031602179055508a60405180828051906020019060200280838360005b838110156200045157818101518382015260200162000437565b5050505090500191505060405180910390207f2a8214e48a490ec27a213653fe2c4d1efbcdc572f82d1d3d3d040665024e50aa8b428b8b8b8b8b8b604051808060200189815260200188815260200187815260200186815260200185815260200184815260200183815260200182810382528a818151815260200191508051906020019060200280838360005b83811015620004f8578181015183820152602001620004de565b50505050905001995050505050505050505060405180910390a260005b8a518110156200066b57601560008c83815181106200053057fe5b602090810291909101810151600160a060020a031682528101919091526040016000205460ff1615620005c457604080517f08c379a000000000000000000000000000000000000000000000000000000000815260206004820152601060248201527f746f6b656e206475706c69636174656400000000000000000000000000000000604482015290519081900360640190fd5b6001601560008d8481518110620005d757fe5b6020026020010151600160a060020a0316600160a060020a0316815260200190815260200160002060006101000a81548160ff02191690831515021790555060168b82815181106200062557fe5b6020908102919091018101518254600180820185556000948552929093209092018054600160a060020a031916600160a060020a03909316929092179091550162000515565b5060088054600160a060020a031916600160a060020a038b1617905560018890556002879055600386905560048590556005849055600783905542600655600c829055600d819055600e805460ff19169055620006d18b64010000000062000719810204565b620007086016600181548110620006e457fe5b600091825260209091200154600160a060020a031664010000000062000853810204565b505050505050505050505062000875565b60005b81518110156200084f576040518060e00160405280600081526020016000815260200160008152602001600081526020016000815260200160001515815260200160011515815250601860008484815181106200077557fe5b602090810291909101810151600160a060020a03168252818101929092526040908101600020835181559183015160018301558201516002820155606082015160038201556080820151600482015560a08201516005909101805460c09093015115156101000261ff001992151560ff19909416939093179190911691909117905581516019908390839081106200080957fe5b6020908102919091018101518254600180820185556000948552929093209092018054600160a060020a031916600160a060020a0390931692909217909155016200071c565b5050565b600a8054600160a060020a031916600160a060020a0392909216919091179055565b61503d80620008856000396000f3fe608060405234801561001057600080fd5b50600436106103615760003560e060020a900480637d5b6c72116101d7578063bb816ab411610108578063e0a8f6f5116100a6578063e63bc62d11610080578063e63bc62d14610ad5578063e681c4aa14610af2578063f5d54c7714610afa578063ff12df2d14610b0257610361565b8063e0a8f6f514610a75578063e0f2cb9314610a92578063e1a0e3fa14610ab857610361565b8063d2de5527116100e2578063d2de552714610a37578063d9ee59a014610a3f578063da35c66414610a47578063dfdd369e14610a4f57610361565b8063bb816ab4146109dd578063c89039c514610a03578063c9211c8214610a0b57610361565b8063a0dcf9da11610175578063b2643aab1161014f578063b2643aab14610945578063b307fc6d1461099a578063b470aade146109b7578063b8f59f5b146109bf57610361565b8063a0dcf9da146108de578063a3dc3800146108e6578063a43af8bc1461090357610361565b80638340bbce116101b15780638340bbce146108765780639425a4761461087e5780639746d9401461089b57806399653fbe146108b857610361565b80637d5b6c721461085e5780637d882097146108665780637e74a1ed1461086e57610361565b80632dd60c5e116102b157806359999b411161024f57806373f8fd4b1161022957806373f8fd4b146107fa578063753d75631461082857806378a895671461084e578063797daf701461085657610361565b806359999b41146107c4578063635e99aa146107ea57806363858f2d146107f257610361565b80633fc24bba1161028b5780633fc24bba1461062b5780634482394b1461066557806345f2d1051461078e57806355f150f1146107bc57610361565b80632dd60c5e146105fe5780633a98ef39146106065780633b214a741461060e57610361565b80630cf20cc91161031e5780631dafede0116102f85780631dafede0146105ad57806327efc086146105e65780632957b839146105ee5780632b77abdf146105f657610361565b80630cf20cc9146105415780630fd3e69c1461056d57806315eb349e1461058a57610361565b8063013cf08b14610366578063044a0ca81461044e578063059a500c1461049e57806306fdde03146104bd578063086146d2146104d757806308ae4b0c146104df575b600080fd5b6103836004803603602081101561037c57600080fd5b5035610b60565b604051808f600160a060020a0316600160a060020a031681526020018e600160a060020a0316600160a060020a031681526020018d600160a060020a0316600160a060020a031681526020018c81526020018b81526020018a815260200189600160a060020a0316600160a060020a0316815260200188815260200187600160a060020a0316600160a060020a031681526020018681526020018581526020018481526020018381526020018281526020019e50505050505050505050505050505060405180910390f35b61047a6004803603604081101561046457600080fd5b50600160a060020a038135169060200135610bdf565b6040518082600281111561048a57fe5b60ff16815260200191505060405180910390f35b6104bb600480360360208110156104b457600080fd5b5035610d00565b005b6104c5610efc565b60408051918252519081900360200190f35b6104c5610f02565b610505600480360360208110156104f557600080fd5b5035600160a060020a0316610f31565b6040805197885260208801969096528686019490945260608601929092526080850152151560a0840152151560c0830152519081900360e00190f35b6104bb6004803603604081101561055757600080fd5b50600160a060020a038135169060200135610f72565b6104c56004803603602081101561058357600080fd5b5035610fca565b6104bb600480360360408110156105a057600080fd5b5080359060200135611065565b6105ca600480360360208110156105c357600080fd5b5035611121565b60408051600160a060020a039092168252519081900360200190f35b6105ca611148565b6105ca61114e565b6105ca61115d565b6105ca61116c565b6104c561117b565b6104c56004803603602081101561062457600080fd5b5035611181565b6106516004803603602081101561064157600080fd5b5035600160a060020a031661119f565b604080519115158252519081900360200190f35b6104bb6004803603606081101561067b57600080fd5b81019060208101813564010000000081111561069657600080fd5b8201836020820111156106a857600080fd5b803590602001918460208302840111640100000000831117156106ca57600080fd5b919080806020026020016040519081016040528093929190818152602001838360200280828437600092019190915250929594936020810193503591505064010000000081111561071a57600080fd5b82018360208201111561072c57600080fd5b8035906020019184602083028401116401000000008311171561074e57600080fd5b91908080602002602001604051908101604052809392919081815260200183836020028082843760009201919091525092955050505035151590506111b4565b6104c5600480360360408110156107a457600080fd5b50600160a060020a03813581169160200135166112ec565b6104c5611309565b6104bb600480360360208110156107da57600080fd5b5035600160a060020a031661130f565b6104c56114e2565b6104c56114e8565b6104c56004803603604081101561081057600080fd5b50600160a060020a03813581169160200135166114ee565b6106516004803603602081101561083e57600080fd5b5035600160a060020a0316611519565b6104c561152e565b6104c5611534565b6104c561153a565b6104c5611540565b6104c5611546565b6104c561154c565b6106516004803603602081101561089457600080fd5b5035611552565b6104bb600480360360208110156108b157600080fd5b5035611579565b6104bb600480360360408110156108ce57600080fd5b508035906020013560ff166119b7565b6104c5611e16565b610651600480360360208110156108fc57600080fd5b5035611e1c565b6104bb600480360360a081101561091957600080fd5b50600160a060020a03813581169160208101358216916040820135169060608101359060800135611ece565b6109626004803603602081101561095b57600080fd5b50356120c5565b604051808260e080838360005b8381101561098757818101518382015260200161096f565b5050505090500191505060405180910390f35b6105ca600480360360208110156109b057600080fd5b503561212f565b6104c561213c565b6109c7612142565b6040805160ff9092168252519081900360200190f35b6104c5600480360360208110156109f357600080fd5b5035600160a060020a031661214b565b6105ca61217d565b6104bb60048036036040811015610a2157600080fd5b50600160a060020a03813516906020013561218c565b6104c5612423565b6104c5612429565b6104c561242f565b6104bb60048036036020811015610a6557600080fd5b5035600160a060020a0316612435565b6104bb60048036036020811015610a8b57600080fd5b50356125b3565b6104bb60048036036020811015610aa857600080fd5b5035600160a060020a03166127a3565b6104bb60048036036020811015610ace57600080fd5b50356128fb565b6104bb60048036036020811015610aeb57600080fd5b5035612aea565b6105ca6131fa565b6105ca613200565b6104c56004803603610120811015610b1957600080fd5b50600160a060020a03813581169160208101359160408201359160608101359160808201359160a08101359160c082013581169160e0810135909116906101000135613206565b601a60205260009081526040902080546001820154600283015460038401546004850154600586015460068701546007880154600889015460098a0154600a8b0154600b8c0154600d8d0154600e909d0154600160a060020a039c8d169d9b8d169c9a8b169b999a98999798968716979596909416949293919290918e565b600160a060020a038216600090815260186020526040812060050154610100900460ff16610c57576040805160e560020a62461bcd02815260206004820152600e60248201527f6e6f2073756368206d656d626572000000000000000000000000000000000000604482015290519081900360640190fd5b601b548210610cb0576040805160e560020a62461bcd02815260206004820152600a60248201527f756e70726f706f73656400000000000000000000000000000000000000000000604482015290519081900360640190fd5b601a6000601b8481548110610cc157fe5b600091825260208083209091015483528281019390935260409182018120600160a060020a0387168252600f0190925290205460ff1690505b92915050565b60026000541415610d49576040805160e560020a62461bcd02815260206004820152600e6024820152600080516020614e0d833981519152604482015290519081900360640190fd5b600260009081553381526018602052604090206005015460ff610100909104161515600114610dc2576040805160e560020a62461bcd02815260206004820181905260248201527f6d757374206265206d656d62657220746f206465706f73697420736861726573604482015290519081900360640190fd5b6000610dd9600554836137dd90919063ffffffff16565b336000818152601860209081526040808320805486019055601080548601905560095481517f23b872dd0000000000000000000000000000000000000000000000000000000081526004810195909552306024860152604485018890529051949550600160a060020a0316936323b872dd93606480820194918390030190829087803b158015610e6857600080fd5b505af1158015610e7c573d6000803e3d6000fd5b505050506040513d6020811015610e9257600080fd5b5051610ee8576040805160e560020a62461bcd02815260206004820152601560248201527f746f6b656e207472616e73666572206661696c65640000000000000000000000604482015290519081900360640190fd5b610ef33383836137ff565b50506001600055565b600c5481565b6000610f2b600154610f1f60065442613b2690919063ffffffff16565b9063ffffffff6137dd16565b90505b90565b601860205260009081526040902080546001820154600283015460038401546004850154600590950154939492939192909160ff8082169161010090041687565b60026000541415610fbb576040805160e560020a62461bcd02815260206004820152600e6024820152600080516020614e0d833981519152604482015290519081900360640190fd5b6002600055610ef38282613b3b565b6000610cfa670de0b6b3a7640000610f1f600a60009054906101000a9004600160a060020a0316600160a060020a0316637ff9b5966040518163ffffffff1660e060020a02815260040160206040518083038186803b15801561102c57600080fd5b505afa158015611040573d6000803e3d6000fd5b505050506040513d602081101561105657600080fd5b5051859063ffffffff613cf016565b600260005414156110ae576040805160e560020a62461bcd02815260206004820152600e6024820152600080516020614e0d833981519152604482015290519081900360640190fd5b60026000908155338152601860205260408120600181015490546110d79163ffffffff613d1e16565b116111165760405160e560020a62461bcd028152600401808060200182810382526025815260200180614f576025913960400191505060405180910390fd5b610ef3338383613d30565b6016818154811061112e57fe5b600091825260209091200154600160a060020a0316905081565b61babe81565b600854600160a060020a031681565b600b54600160a060020a031681565b600a54600160a060020a031681565b60105481565b601b818154811061118e57fe5b600091825260209091200154905081565b60176020526000908152604090205460ff1681565b600260005414156111fd576040805160e560020a62461bcd02815260206004820152600e6024820152600080516020614e0d833981519152604482015290519081900360640190fd5b600260005581518351146112455760405160e560020a62461bcd028152600401808060200182810382526022815260200180614eda6022913960400191505060405180910390fd5b60005b83518110156112e157600083828151811061125f57fe5b6020026020010151905082156112bb57336000908152601460205260408120865190919087908590811061128f57fe5b6020026020010151600160a060020a0316600160a060020a031681526020019081526020016000205490505b6112d88583815181106112ca57fe5b602002602001015182613b3b565b50600101611248565b505060016000555050565b601460209081526000928352604080842090915290825290205481565b600d5481565b600160a060020a03811660008181527fcd6c9e8693baf2aea18f79e385722f542743d61c3b774ead68b01ba6b0789c25602090815260408083205481517f70a0823100000000000000000000000000000000000000000000000000000000815230600482015291519394909390926370a082319260248082019391829003018186803b15801561139e57600080fd5b505afa1580156113b2573d6000803e3d6000fd5b505050506040513d60208110156113c857600080fd5b505103905080611422576040805160e560020a62461bcd02815260206004820152600960248201527f6e6f20746f6b656e730000000000000000000000000000000000000000000000604482015290519081900360640190fd5b600160a060020a03821660009081526015602052604090205460ff16611492576040805160e560020a62461bcd02815260206004820152600f60248201527f6e6f742077686974656c69737465640000000000000000000000000000000000604482015290519081900360640190fd5b61149f61dead83836140f0565b604080518281529051600160a060020a038416917f9381e53ffdc9733a6783a6f8665be3f89c231bb81a6771996ed553b4e75c0fe3919081900360200190a25050565b60115481565b60035481565b600160a060020a03918216600090815260146020908152604080832093909416825291909152205490565b60156020526000908152604090205460ff1681565b60165490565b601b5490565b60065481565b60125481565b60055481565b60025481565b600061156960025483613d1e90919063ffffffff16565b611571610f02565b101592915050565b600260005414156115c2576040805160e560020a62461bcd02815260206004820152600e6024820152600080516020614e0d833981519152604482015290519081900360640190fd5b60026000908155818152601a602052604090206001810154600160a060020a0316611637576040805160e560020a62461bcd02815260206004820181905260248201527f70726f706f73616c206d7573742068617665206265656e2070726f706f736564604482015290519081900360640190fd5b600c81015460ff161561167e5760405160e560020a62461bcd028152600401808060200182810382526023815260200180614f346023913960400191505060405180910390fd5b600c8101546301000000900460ff16156116e2576040805160e560020a62461bcd02815260206004820152601b60248201527f70726f706f73616c20686173206265656e2063616e63656c6c65640000000000604482015290519081900360640190fd5b8054600160a060020a031660009081526018602052604090206005015460ff16156117415760405160e560020a62461bcd028152600401808060200182810382526025815260200180614eb56025913960400191505060405180910390fd5b6000816005015411801561177c57506006810154600160a060020a03166000908152600080516020614e4e8339815191526020526040902054155b156117c5576016546064116117c55760405160e560020a62461bcd028152600401808060200182810382526048815260200180614f7c6048913960600191505060405180910390fd5b600c810154640100000000900460ff1615611871578054600160a060020a031660009081526017602052604090205460ff161561184c576040805160e560020a62461bcd02815260206004820152601860248201527f616c72656164792070726f706f73656420746f206b69636b0000000000000000604482015290519081900360640190fd5b8054600160a060020a03166000908152601760205260409020805460ff191660011790555b60006118e660016118da611883610f02565b601b54156118d257601b8054601a916000916118a690600163ffffffff613b2616565b815481106118b057fe5b90600052602060002001548152602001908152602001600020600901546118d5565b60005b61414e565b9063ffffffff613d1e16565b6009830181905560028301805473ffffffffffffffffffffffffffffffffffffffff191633908117909155600c8401805460ff19166001908117909155601b8054808301825560008290527f3ad8aa4f87544323a9d1e5dd902f40c356527a7955687113db5f9a85ad579dc101879055549293509091829182917f2a383a979381335e3eb401ac01dd8083e024ff0256bf5338456ffc0063390bbd91889161198d91613b26565b604080519283526020830191909152818101879052519081900360600190a3505060016000555050565b60026000541415611a00576040805160e560020a62461bcd02815260206004820152600e6024820152600080516020614e0d833981519152604482015290519081900360640190fd5b600260009081553381526018602052604090206005015460ff610100909104161515600114611a2e57600080fd5b336000908152601860205260409020601b548310611a96576040805160e560020a62461bcd02815260206004820152601760248201527f70726f706f73616c20646f6573206e6f74206578697374000000000000000000604482015290519081900360640190fd5b6000601a6000601b8681548110611aa957fe5b90600052602060002001548152602001908152602001600020905060038360ff1610611b095760405160e560020a62461bcd028152600401808060200182810382526024815260200180614e6e6024913960400191505060405180910390fd5b60008360ff166002811115611b1a57fe5b90508160090154611b29610f02565b1015611b7f576040805160e560020a62461bcd02815260206004820152601d60248201527f766f74696e6720706572696f6420686173206e6f742073746172746564000000604482015290519081900360640190fd5b611b8c8260090154611552565b15611bcb5760405160e560020a62461bcd028152600401808060200182810382526022815260200180614fc46022913960400191505060405180910390fd5b336000908152600f8301602052604081205460ff166002811115611beb57fe5b14611c40576040805160e560020a62461bcd02815260206004820152601860248201527f6d656d6265722068617320616c726561647920766f7465640000000000000000604482015290519081900360640190fd5b6001816002811115611c4e57fe5b1480611c6557506002816002811115611c6357fe5b145b611cb9576040805160e560020a62461bcd02815260206004820152601d60248201527f766f7465206d7573742062652065697468657220596573206f72204e6f000000604482015290519081900360640190fd5b336000908152600f830160205260409020805482919060ff19166001836002811115611ce157fe5b02179055506001816002811115611cf457fe5b1415611d69578254600a830154611d109163ffffffff613d1e16565b600a8301556004830154851115611d2957600483018590555b600e820154601154601054611d439163ffffffff613d1e16565b1115611d6457601154601054611d5e9163ffffffff613d1e16565b600e8301555b611d99565b6002816002811115611d7757fe5b1415611d99578254600b830154611d939163ffffffff613d1e16565b600b8301555b33600160a060020a031633600160a060020a0316867f804f03797630bf8b8a46b9371608abbf7d78a20df720e477bab641957ca68a20601b8981548110611ddc57fe5b906000526020600020015488604051808381526020018260ff1660ff1681526020019250505060405180910390a450506001600055505050565b60075481565b601b546000908210611e78576040805160e560020a62461bcd02815260206004820152601060248201527f6e6f20737563682070726f706f73616c00000000000000000000000000000000604482015290519081900360640190fd5b601a6000601b8481548110611e8957fe5b90600052602060002001548152602001908152602001600020600c01600060078110611eb157fe5b602081049091015460ff601f9092166101000a9004169050919050565b60026000541415611f17576040805160e560020a62461bcd02815260206004820152600e6024820152600080516020614e0d833981519152604482015290519081900360640190fd5b6002600055600b54600160a060020a03163314611f685760405160e560020a62461bcd028152600401808060200182810382526023815260200180614e926023913960400191505060405180910390fd5b600b805473ffffffffffffffffffffffffffffffffffffffff1916600160a060020a03858116919091179091556005829055600783905585161561205957601654606411612000576040805160e560020a62461bcd02815260206004820152601760248201527f746f6f206d616e7920746f6b656e7320616c7265616479000000000000000000604482015290519081900360640190fd5b601680546001810182556000919091527fd833147d7dc355ba459fc788f669e58cfaf9dc25ddcd0702e87d69c7b512428901805473ffffffffffffffffffffffffffffffffffffffff1916600160a060020a0387161790555b600160a060020a038416156120715761207184614165565b600b546005546040805191825251600160a060020a03928316928816917fda5e1bbe6ec3caef58e6417562eb7faae11f65615e0d463da836f8651b76b6b1919081900360200190a350506001600055505050565b6120cd614c1a565b6000828152601a6020526040808220815160e081019283905292600c909101916007918390855b825461010083900a900460ff1615158152602060019283018181049485019490930390920291018084116120f4575094979650505050505050565b6019818154811061112e57fe5b60015481565b600e5460ff1681565b600160a060020a03811660009081526018602052604081206003810154600290910154610cfa9163ffffffff613b2616565b600954600160a060020a031681565b600260005414156121d5576040805160e560020a62461bcd02815260206004820152600e6024820152600080516020614e0d833981519152604482015290519081900360640190fd5b60026000908155600160a060020a0383168152601860205260409020600581015460ff610100909104161515600114612258576040805160e560020a62461bcd02815260206004820152600a60248201527f6e6f74206d656d62657200000000000000000000000000000000000000000000604482015290519081900360640190fd5b33600160a060020a038416146122b8576040805160e560020a62461bcd02815260206004820152601c60248201527f63616e206f6e6c792062652063616c6c6564206279206d656d62657200000000604482015290519081900360640190fd5b60006122dd6122d883600301548460020154613b2690919063ffffffff16565b614194565b9050828110156123215760405160e560020a62461bcd02815260040180806020018281038252602e815260200180614d92602e913960400191505060405180910390fd5b600061232f61dead856142e1565b600a54604080517f8b30b516000000000000000000000000000000000000000000000000000000008152600481018490529051929350600092600160a060020a0390921691638b30b5169160248082019260209290919082900301818787803b15801561239b57600080fd5b505af11580156123af573d6000803e3d6000fd5b505050506040513d60208110156123c557600080fd5b505160038501549091506123df908263ffffffff613d1e16565b506009546123fa9061dead90600160a060020a0316836140f0565b6009546124169061dead908890600160a060020a031684614340565b5050600160005550505050565b60045481565b60135481565b600f5481565b6002600054141561247e576040805160e560020a62461bcd02815260206004820152600e6024820152600080516020614e0d833981519152604482015290519081900360640190fd5b60026000908155600160a060020a0382168152601860205260409020600581015460ff161515600114156124fc576040805160e560020a62461bcd02815260206004820152601160248201527f6d656d626572206e6f74206a61696c6564000000000000000000000000000000604482015290519081900360640190fd5b6000816001015411612558576040805160e560020a62461bcd02815260206004820152601560248201527f6d656d626572206d7573742068617665206c6f6f740000000000000000000000604482015290519081900360640190fd5b6125658160040154611e1c565b6125a35760405160e560020a62461bcd02815260040180806020018281038252604d815260200180614dc0604d913960600191505060405180910390fd5b610ef38260008360010154613d30565b600260005414156125fc576040805160e560020a62461bcd02815260206004820152600e6024820152600080516020614e0d833981519152604482015290519081900360640190fd5b60026000908155818152601a60205260409020600981015461261c610f02565b111561265c5760405160e560020a62461bcd028152600401808060200182810382526021815260200180614e2d6021913960400191505060405180910390fd5b600c8101546301000000900460ff16156126c0576040805160e560020a62461bcd02815260206004820152601a60248201527f70726f706f73616c20616c72656164792063616e63656c6c6564000000000000604482015290519081900360640190fd5b6001810154600160a060020a03163314612724576040805160e560020a62461bcd02815260206004820152601560248201527f6f6e6c792070726f706f7365722063616e63656c730000000000000000000000604482015290519081900360640190fd5b600c8101805463ff000000191663010000001790556001810154600682015460058301546127649261beef92600160a060020a0391821692911690614340565b60408051338152905183917fc215fed6680bb02d323dc3f8b8f85241572607538426059c9232601bd293c3be919081900360200190a250506001600055565b600260005414156127ec576040805160e560020a62461bcd02815260206004820152600e6024820152600080516020614e0d833981519152604482015290519081900360640190fd5b6002600055600b54600160a060020a031615612852576040805160e560020a62461bcd02815260206004820152600b60248201527f616c726561647920736574000000000000000000000000000000000000000000604482015290519081900360640190fd5b3360009081526018602052604090206005015460ff6101009091041615156001146128c7576040805160e560020a62461bcd02815260206004820152601e60248201527f6d7573742062652061206d656d62657220746f20736574206d696e696f6e0000604482015290519081900360640190fd5b600b805473ffffffffffffffffffffffffffffffffffffffff1916600160a060020a03929092169190911790556001600055565b60026000541415612944576040805160e560020a62461bcd02815260206004820152600e6024820152600080516020614e0d833981519152604482015290519081900360640190fd5b60026000556129528161435c565b6000601b828154811061296157fe5b600091825260208083209190910154808352601a9091526040909120600c81015491925090640100000000900460ff166129e5576040805160e560020a62461bcd02815260206004820152600e60248201527f6e6f74206775696c64206b69636b000000000000000000000000000000000000604482015290519081900360640190fd5b600c8101805461ff0019166101001790556000612a018461467a565b90508015612a7d57600c8201805462ff00001916620100001790558154600160a060020a0316600090815260186020526040902080546001820154612a4591613d1e565b60018201558054601054612a5e9163ffffffff613b2616565b6010558054601154612a759163ffffffff613d1e16565b601155600090555b8154600160a060020a03166000908152601760205260409020805460ff19169055612aa6614837565b6040805182151581529051849186917f0e347d00d3e9e6cdff9e6c09092c9ff1bd448f9b3dfb7091b30939ec5e7a3c739181900360200190a3505060016000555050565b60026000541415612b33576040805160e560020a62461bcd02815260206004820152600e6024820152600080516020614e0d833981519152604482015290519081900360640190fd5b6002600055612b418161435c565b6000601b8281548110612b5057fe5b600091825260208083209190910154808352601a9091526040909120600c81015491925090640100000000900460ff1615612bd5576040805160e560020a62461bcd02815260206004820152601560248201527f6e6f74207374616e646172642070726f706f73616c0000000000000000000000604482015290519081900360640190fd5b600c8101805461ff0019166101001790556000612bf18461467a565b90506ec097ce7bc90715b34b9f1000000000612c2a83600401546118da85600301546118da601154601054613d1e90919063ffffffff16565b1115612c34575060005b6009546008830154600160a060020a03908116911614801590612c8357506008820154600160a060020a03166000908152600080516020614e4e83398151915260205260409020546007830154115b15612c8c575060005b801561318357600c8201805462ff00001916620100001790558154600160a060020a0316600090815260186020526040902060050154610100900460ff1615612d625760038201548254600160a060020a0316600090815260186020526040902054612cfd9163ffffffff613d1e16565b8254600160a060020a03908116600090815260186020526040808220939093556004850154855490921681529190912060010154612d409163ffffffff613d1e16565b8254600160a060020a0316600090815260186020526040902060010155612e62565b6040805160e081018252600380850154825260048086015460208085019182526000858701818152606087018281526080880183815260a08901848152600160c08b018181528e54600160a060020a03908116885260189098529b86209a518b5596518a880155925160028a0155905196880196909655945193860193909355925160059094018054955115156101000261ff001995151560ff1990971696909617949094169490941790925584546019805494850181559092527f944998273e477b495144fb8794c914197f3ccb46be2900f4698fd0ef743c9695909201805473ffffffffffffffffffffffffffffffffffffffff1916919092161790555b6003820154601054612e799163ffffffff613d1e16565b6010556004820154601154612e939163ffffffff613d1e16565b60115560068201546005830154612ebb9161beef9161dead91600160a060020a031690614340565b6009546006830154600160a060020a039081169116148015612ee1575060008260050154115b15612f295760068201546005830154612f099161beef91600160a060020a0390911690614858565b815460058301546003840154612f2992600160a060020a031691906137ff565b600a546008830154600160a060020a0390811691161415612f7d576000612f5661dead84600701546142e1565b83546008850154919250612f7b9161dead91600160a060020a03908116911684614340565b505b6009546008830154600160a060020a039081169116148015612fa3575060008260070154115b1561315657600a54604080517f7ff9b5960000000000000000000000000000000000000000000000000000000081529051600092600160a060020a031691637ff9b596916004808301926020929190829003018186803b15801561300657600080fd5b505afa15801561301a573d6000803e3d6000fd5b505050506040513d602081101561303057600080fd5b5051600784015490915060009061304d908363ffffffff6137dd16565b9050600061305d61dead836142e1565b600a54600160a060020a03166000908152600080516020614e4e833981519152602052604090205490915081111561309e57600c8501805462ff0000191690555b600a54604080517f8b30b516000000000000000000000000000000000000000000000000000000008152600481018490529051600092600160a060020a031691638b30b51691602480830192602092919082900301818787803b15801561310457600080fd5b505af1158015613118573d6000803e3d6000fd5b505050506040513d602081101561312e57600080fd5b50518654600888015491925061315191600160a060020a039182169116836140f0565b505050505b81546008830154600784015461317e9261dead92600160a060020a0391821692911690614340565b6131ae565b6001820154600683015460058401546131ae9261beef92600160a060020a0391821692911690614340565b6131b6614837565b6040805182151581529051849186917f86f74240ecee9e4230d26ff92e17fee978460d9c0f78f5c88b2864c9e7a494279181900360200190a3505060016000555050565b61beef81565b61dead81565b600060026000541415613251576040805160e560020a62461bcd02815260206004820152600e6024820152600080516020614e0d833981519152604482015290519081900360640190fd5b60026000556ec097ce7bc90715b34b9f1000000000613276898963ffffffff613d1e16565b11156132cc576040805160e560020a62461bcd02815260206004820152600c60248201527f736861726573206d617865640000000000000000000000000000000000000000604482015290519081900360640190fd5b600160a060020a03841660009081526015602052604090205460ff16801561330c5750600160a060020a03831660009081526015602052604090205460ff165b613360576040805160e560020a62461bcd02815260206004820152601660248201527f746f6b656e73206e6f742077686974656c697374656400000000000000000000604482015290519081900360640190fd5b600160a060020a038a166133be576040805160e560020a62461bcd02815260206004820152601560248201527f6170706c6963616e742063616e6e6f7420626520300000000000000000000000604482015290519081900360640190fd5b600160a060020a038a1660009081526018602052604090206005015460ff1615613432576040805160e560020a62461bcd02815260206004820152601060248201527f6170706c6963616e74206a61696c656400000000000000000000000000000000604482015290519081900360640190fd5b84151580613441575084600114155b8061344d575084600214155b80613459575084600314155b6134975760405160e560020a62461bcd028152600401808060200182810382526038815260200180614efc6038913960400191505060405180910390fd5b60095460048054604080517f23b872dd0000000000000000000000000000000000000000000000000000000081523393810193909352306024840152604483019190915251600160a060020a03909216916323b872dd916064808201926020929091908290030181600087803b15801561351057600080fd5b505af1158015613524573d6000803e3d6000fd5b505050506040513d602081101561353a57600080fd5b5051613590576040805160e560020a62461bcd02815260206004820152601760248201527f70726f706f73616c206465706f736974206661696c6564000000000000000000604482015290519081900360640190fd5b61359f61beef846004546140f0565b604080517f23b872dd000000000000000000000000000000000000000000000000000000008152336004820152306024820152604481018b90529051600160a060020a038616916323b872dd9160648083019260209291908290030181600087803b15801561360d57600080fd5b505af1158015613621573d6000803e3d6000fd5b505050506040513d602081101561363757600080fd5b505161368d576040805160e560020a62461bcd02815260206004820152601d60248201527f7472696275746520746f6b656e207472616e73666572206661696c6564000000604482015290519081900360640190fd5b61369a61beef858b6140f0565b846005141561370057600e5460ff16600114613700576040805160e560020a62461bcd02815260206004820152601060248201527f676f616c206e6f74206d65742079657400000000000000000000000000000000604482015290519081900360640190fd5b846006141561376f5785158061371b5750600e5460ff166001145b61376f576040805160e560020a62461bcd02815260206004820152601060248201527f676f616c206e6f74206d65742079657400000000000000000000000000000000604482015290519081900360640190fd5b613777614c1a565b600181876007811061378557fe5b9115156020909202015260048614156137b1576137ac8b6000806000806000808a896148b8565b6137c2565b6137c28b8a8a8d898c8a8a896148b8565b5050600f546000190160016000559998505050505050505050565b60008082116137eb57600080fd5b60008284816137f657fe5b04949350505050565b81613854576040805160e560020a62461bcd02815260206004820152601460248201527f6e6f20746f6b656e7320746f206465706f736974000000000000000000000000604482015290519081900360640190fd5b6012805483019055600954600a54604080517f095ea7b3000000000000000000000000000000000000000000000000000000008152600160a060020a039283166004820152602481018690529051919092169163095ea7b39160448083019260209291908290030181600087803b1580156138ce57600080fd5b505af11580156138e2573d6000803e3d6000fd5b505050506040513d60208110156138f857600080fd5b505161394e576040805160e560020a62461bcd02815260206004820152600f60248201527f617070726f76616c206661696c65640000000000000000000000000000000000604482015290519081900360640190fd5b600a54604080517f2befabbf0000000000000000000000000000000000000000000000000000000081526004810185905260016024820152600160a060020a03868116604483015291516000939290921691632befabbf9160648082019260209290919082900301818787803b1580156139c757600080fd5b505af11580156139db573d6000803e3d6000fd5b505050506040513d60208110156139f157600080fd5b5051600160a060020a038086166000908152601860205260409020600201805483019055600a54919250613a2a9161dead9116836140f0565b6007546012541115613a4857600e805460ff19166001179055613a53565b600e805460ff191690555b600a54604080517f0df94ef20000000000000000000000000000000000000000000000000000000081523060048201529051600160a060020a0390921691630df94ef2916024808201926020929091908290030181600087803b158015613ab957600080fd5b505af1158015613acd573d6000803e3d6000fd5b505050506040513d6020811015613ae357600080fd5b505160135560405182908290600160a060020a038716907f4de2aa579cae08c036885f604d1922d33dec30980a0e41f8559c314705425d9b90600090a450505050565b600082821115613b3557600080fd5b50900390565b336000908152601460209081526040808320600160a060020a0386168452909152902054811115613bb6576040805160e560020a62461bcd02815260206004820152601460248201527f696e73756666696369656e742062616c616e6365000000000000000000000000604482015290519081900360640190fd5b613bc1338383614858565b604080517fa9059cbb000000000000000000000000000000000000000000000000000000008152336004820152602481018390529051600160a060020a0384169163a9059cbb9160448083019260209291908290030181600087803b158015613c2957600080fd5b505af1158015613c3d573d6000803e3d6000fd5b505050506040513d6020811015613c5357600080fd5b5051613ca9576040805160e560020a62461bcd02815260206004820152600f60248201527f7472616e73666572206661696c65640000000000000000000000000000000000604482015290519081900360640190fd5b60408051600160a060020a038416815260208101839052815133927f9b1bfa7fa9ee420a16e124f794c35ac9f90472acc99140eb2f6447c714cad8eb928290030190a25050565b600082613cff57506000610cfa565b82820282848281613d0c57fe5b0414613d1757600080fd5b9392505050565b600082820183811015613d1757600080fd5b6000613d49601154601054613d1e90919063ffffffff16565b600160a060020a0385166000908152601860205260409020805491925090841115613dbe576040805160e560020a62461bcd02815260206004820152601360248201527f696e73756666696369656e742073686172657300000000000000000000000000604482015290519081900360640190fd5b8281600101541015613e1a576040805160e560020a62461bcd02815260206004820152601160248201527f696e73756666696369656e74206c6f6f74000000000000000000000000000000604482015290519081900360640190fd5b613e278160040154611e1c565b613e655760405160e560020a62461bcd02815260040180806020018281038252604d815260200180614dc0604d913960600191505060405180910390fd5b6000613e77858563ffffffff613d1e16565b8254909150613e8c908663ffffffff613b2616565b82556001820154613ea3908563ffffffff613b2616565b6001830155601054613ebb908663ffffffff613b2616565b601055601154613ed1908563ffffffff613b2616565b60115560005b6016548110156140ad5761dead6000908152601460205260168054613f3f91600080516020614e4e8339815191529184919086908110613f1357fe5b6000918252602080832090910154600160a060020a031683528201929092526040019020548487614bc6565b905080156140a45761dead60009081526014602052601680548392600080516020614e4e83398151915292909186908110613f7657fe5b6000918252602080832090910154600160a060020a0390811684528382019490945260409283018220805495909503909455918b1682526014909252908120601680548493919086908110613fc757fe5b6000918252602080832090910154600160a060020a0390811684528382019490945260409283018220805490950190945560038801548c8416825260148552828220600a549094168252929093528220546140279163ffffffff613b2616565b905060006140358a836142e1565b6003870154909150156140a157600061405b876003015483613b2690919063ffffffff16565b600a5490915061407a908c9061dead90600160a060020a031684614340565b61409e61408d858363ffffffff613b2616565b60038901549063ffffffff613d1e16565b50505b50505b50600101613ed7565b506040805186815260208101869052815133927fcad1a1c68982832d9abc314de8a1e5d5e8c81b0588961e360766736d10c3be1a928290030190a2505050505050565b600160a060020a0392831660009081526014602090815260408083209490951682529283528381208054830190557fcd6c9e8693baf2aea18f79e385722f542743d61c3b774ead68b01ba6b0789c2590925291902080549091019055565b60008183101561415e5781613d17565b5090919050565b600a805473ffffffffffffffffffffffffffffffffffffffff1916600160a060020a0392909216919091179055565b600a54604080517f0df94ef200000000000000000000000000000000000000000000000000000000815230600482015290516000928492849261422692670de0b6b3a764000092610f1f92600160a060020a0390921691630df94ef29160248082019260209290919082900301818a87803b15801561421257600080fd5b505af1158015611040573d6000803e3d6000fd5b905060006142c3670de0b6b3a7640000610f1f600a60009054906101000a9004600160a060020a0316600160a060020a0316637ff9b5966040518163ffffffff1660e060020a02815260040160206040518083038186803b15801561428a57600080fd5b505afa15801561429e573d6000803e3d6000fd5b505050506040513d60208110156142b457600080fd5b5051869063ffffffff613cf016565b905060006142d7828463ffffffff613b2616565b9695505050505050565b6000806143066142f96064600a63ffffffff6137dd16565b849063ffffffff6137dd16565b600854600a54919250614328918691600160a060020a03908116911684614340565b614338838263ffffffff613b2616565b949350505050565b61434b848383614858565b6143568383836140f0565b50505050565b601b5481106143b5576040805160e560020a62461bcd02815260206004820152601060248201527f6e6f20737563682070726f706f73616c00000000000000000000000000000000604482015290519081900360640190fd5b6143bd614c38565b601a6000601b84815481106143ce57fe5b6000918252602080832091909101548352828101939093526040918201812082516101e0810184528154600160a060020a039081168252600183015481169582019590955260028201548516818501526003820154606082015260048201546080820152600582015460a08201526006820154851660c082015260078083015460e08084019190915260088401549096166101008301526009830154610120830152600a830154610140830152600b83015461016083015284519586019485905290949193610180860193600c86019291908390855b825461010083900a900460ff1615158152602060019283018181049485019490930390920291018084116144a457905050505050508152602001600d8201548152602001600e8201548152505090506145136003546118da600254846101200151613d1e90919063ffffffff16565b61451b610f02565b1015614571576040805160e560020a62461bcd02815260206004820152601260248201527f70726f706f73616c206e6f742072656164790000000000000000000000000000604482015290519081900360640190fd5b61018081015160200151156145ba5760405160e560020a62461bcd028152600401808060200182810382526023815260200180614fe66023913960400191505060405180910390fd5b8115806146225750601a6000601b6145d985600163ffffffff613b2616565b815481106145e357fe5b90600052602060002001548152602001908152602001600020600c0160016007811061460b57fe5b602081049091015460ff601f9092166101000a9004165b614676576040805160e560020a62461bcd02815260206004820152601d60248201527f70726576696f75732070726f706f73616c20756e70726f636573736564000000604482015290519081900360640190fd5b5050565b6000614684614c38565b601a6000601b858154811061469557fe5b6000918252602080832091909101548352828101939093526040918201812082516101e0810184528154600160a060020a039081168252600183015481169582019590955260028201548516818501526003820154606082015260048201546080820152600582015460a08201526006820154851660c082015260078083015460e08084019190915260088401549096166101008301526009830154610120830152600a830154610140830152600b83015461016083015284519586019485905290949193610180860193600c86019291908390855b825461010083900a900460ff16151581526020600192830181810494850194909303909202910180841161476b57905050505050508152602001600d8201548152602001600e820154815250509050806101600151816101400151119150806101c001516147f760056147eb601154601054613d1e90919063ffffffff16565b9063ffffffff613cf016565b101561480257600091505b8051600160a060020a031660009081526018602052604090206005015460ff1615156001141561483157600091505b50919050565b6009546004546148569161beef913391600160a060020a031690614340565b565b600160a060020a039283166000908152601460209081526040808320949095168252928352838120805483900390557fcd6c9e8693baf2aea18f79e385722f542743d61c3b774ead68b01ba6b0789c259092529190208054919091039055565b6148c0614c38565b604051806101e001604052808b600160a060020a0316815260200133600160a060020a031681526020016000600160a060020a031681526020018a815260200189815260200188815260200187600160a060020a0316815260200186815260200185600160a060020a031681526020016000815260200160008152602001600081526020018381526020018481526020016000815250905080601a6000600f54815260200190815260200160002060008201518160000160006101000a815481600160a060020a030219169083600160a060020a0316021790555060208201518160010160006101000a815481600160a060020a030219169083600160a060020a0316021790555060408201518160020160006101000a815481600160a060020a030219169083600160a060020a03160217905550606082015181600301556080820151816004015560a0820151816005015560c08201518160060160006101000a815481600160a060020a030219169083600160a060020a0316021790555060e082015181600701556101008201518160080160006101000a815481600160a060020a030219169083600160a060020a03160217905550610120820151816009015561014082015181600a015561016082015181600b015561018082015181600c01906007614ab1929190614ce1565b506101a082015181600d01556101c082015181600e0155905050600033905080600160a060020a031633600160a060020a03168c600160a060020a03167f831db3ee1460bd63b9f43eb528fb8ccfc8af8e8f0257fac4afeb0c2b508e25828d8d8d8d8d8d8d8d600f54604051808a815260200189815260200188815260200187600160a060020a0316600160a060020a0316815260200186815260200185600160a060020a0316600160a060020a0316815260200184815260200183600760200280838360005b83811015614b90578181015183820152602001614b78565b50505050905001828152602001995050505050505050505060405180910390a45050600f80546001019055505050505050505050565b600081614bd257600080fd5b83614bdf57506000613d17565b83830283858281614bec57fe5b041415614c0557828181614bfc57fe5b04915050613d17565b83838681614c0f57fe5b040295945050505050565b6040518060e001604052806007906020820280388339509192915050565b604051806101e001604052806000600160a060020a031681526020016000600160a060020a031681526020016000600160a060020a031681526020016000815260200160008152602001600081526020016000600160a060020a03168152602001600081526020016000600160a060020a03168152602001600081526020016000815260200160008152602001614ccd614c1a565b815260006020820181905260409091015290565b600183019183908215614d635791602002820160005b83821115614d3457835183826101000a81548160ff0219169083151502179055509260200192600101602081600001049283019260010302614cf7565b8015614d615782816101000a81549060ff0219169055600101602081600001049283019260010302614d34565b505b50614d6f929150614d73565b5090565b610f2e91905b80821115614d6f57805460ff19168155600101614d7956fe6e6f7420656e6f756768206561726e696e677320746f2072656465656d2074686973206d616e7920746f6b656e7363616e6e6f7420726167657175697420756e74696c206869676865737420696e6465782070726f706f73616c206d656d62657220766f74656420594553206f6e2069732070726f6365737365647265656e7472616e742063616c6c000000000000000000000000000000000000766f74696e6720706572696f642068617320616c726561647920737461727465648b9e18c5e04efe171d1e4f682ad90d753958a5ffe56db5290b0236c8e0b6db006d757374206265206c657373207468616e20332c2031203d207965732c2032203d206e6f6f6e6c79206d696e696f6e2063616e206d616b65207468657365206368616e6765732170726f706f73616c206170706c6963616e74206d757374206e6f74206265206a61696c6564746f6b656e73202b20616d6f756e747320617272617973206d757374206d61746368666c6167206d7573742062652034202d206775696c646b69636b2c2035202d207370656e64696e672c2036202d206d656d6265727368697070726f706f73616c2068617320616c7265616479206265656e2073706f6e736f7265646f6e6c7920757365727320776974682062616c616e6365732063616e20726167657175697463616e6e6f742073706f6e736f72206d6f726520747269627574652070726f706f73616c7320666f72206e657720746f6b656e73202d206775696c6462616e6b2069732066756c6c70726f706f73616c20766f74696e6720706572696f6420686173206578706972656470726f706f73616c2068617320616c7265616479206265656e2070726f636573736564a265627a7a7231582090e5e8c6f3398de5e80b6d8207df518cb7c9b78da3bc1e93f3cf546d3add7fb364736f6c63430005110032a265627a7a7231582007c62e8fd4cddf7dcc449914c6ecacb7e3ff6f665347740ab7644d5bd0a828dc64736f6c63430005110032",
  "source": "pragma solidity 0.5.17;\n\nimport \"./Party.sol\";\n\ncontract PartyStarter {\n    Party private party;\n\n    \n    event PartyStarted(address indexed party, address[] indexed _founders, address[] indexed _approvedTokens, address _daoFees, uint256 _periodDuration, uint256 _votingPeriodLength, uint256 _gracePeriodLength, uint256 _proposalDepositReward, uint256 summoningTime);\n\n    function startParty(\n        address[] memory _founders,\n        address[] memory _approvedTokens, //deposit token in 0, idleToken in 1\n        address _daoFees,\n        uint256 _periodDuration,\n        uint256 _votingPeriodLength,\n        uint256 _gracePeriodLength,\n        uint256 _proposalDepositReward,\n        uint256 _depositRate,\n        uint256 _partyGoal,\n        bytes32 _name,\n        bytes32 _desc\n    ) public {\n        party = new Party(\n            _founders,\n            _approvedTokens,\n            _daoFees,\n            _periodDuration,\n            _votingPeriodLength,\n            _gracePeriodLength,\n            _proposalDepositReward,\n            _depositRate,\n            _partyGoal,\n            _name,\n            _desc);\n            \n        uint256 summoningTime = now;     \n        \n        emit PartyStarted(address(party), _founders, _approvedTokens, _daoFees, _periodDuration, _votingPeriodLength, _gracePeriodLength, _proposalDepositReward, summoningTime);\n    }\n}",
  "sourcePath": "/Users/bill/Desktop/peepsvest/contracts/PartyStarter.sol",
  "compiler": {
    "name": "solc",
    "version": "0.5.17+commit.d19bba13.Emscripten.clang"
  },
  "schemaVersion": "3.2.3",
  "updatedAt": "2020-09-05T02:02:01.736Z",
  "devdoc": {
    "methods": {}
  },
  "userdoc": {
    "methods": {}
  }
}