{
  "contractName": "PartyStarter",
  "abi": [
    {
      "anonymous": false,
      "inputs": [
        {
          "indexed": true,
          "internalType": "address",
          "name": "party",
          "type": "address"
        },
        {
          "indexed": true,
          "internalType": "address[]",
          "name": "_founders",
          "type": "address[]"
        },
        {
          "indexed": true,
          "internalType": "address[]",
          "name": "_approvedTokens",
          "type": "address[]"
        },
        {
          "indexed": false,
          "internalType": "address",
          "name": "_daoFees",
          "type": "address"
        },
        {
          "indexed": false,
          "internalType": "uint256",
          "name": "_periodDuration",
          "type": "uint256"
        },
        {
          "indexed": false,
          "internalType": "uint256",
          "name": "_votingPeriodLength",
          "type": "uint256"
        },
        {
          "indexed": false,
          "internalType": "uint256",
          "name": "_gracePeriodLength",
          "type": "uint256"
        },
        {
          "indexed": false,
          "internalType": "uint256",
          "name": "_proposalDepositReward",
          "type": "uint256"
        },
        {
          "indexed": false,
          "internalType": "uint256",
          "name": "summoningTime",
          "type": "uint256"
        }
      ],
      "name": "PartyStarted",
      "type": "event"
    },
    {
      "constant": false,
      "inputs": [
        {
          "internalType": "address[]",
          "name": "_founders",
          "type": "address[]"
        },
        {
          "internalType": "address[]",
          "name": "_approvedTokens",
          "type": "address[]"
        },
        {
          "internalType": "address",
          "name": "_daoFees",
          "type": "address"
        },
        {
          "internalType": "uint256",
          "name": "_periodDuration",
          "type": "uint256"
        },
        {
          "internalType": "uint256",
          "name": "_votingPeriodLength",
          "type": "uint256"
        },
        {
          "internalType": "uint256",
          "name": "_gracePeriodLength",
          "type": "uint256"
        },
        {
          "internalType": "uint256",
          "name": "_proposalDepositReward",
          "type": "uint256"
        },
        {
          "internalType": "uint256",
          "name": "_depositRate",
          "type": "uint256"
        },
        {
          "internalType": "uint256",
          "name": "_partyGoal",
          "type": "uint256"
        },
        {
          "internalType": "bytes32",
          "name": "_name",
          "type": "bytes32"
        },
        {
          "internalType": "bytes32",
          "name": "_desc",
          "type": "bytes32"
        }
      ],
      "name": "startParty",
      "outputs": [],
      "payable": false,
      "stateMutability": "nonpayable",
      "type": "function"
    }
  ],
  "bytecode": "0x608060405234801561001057600080fd5b50615f67806100206000396000f3fe608060405234801561001057600080fd5b5060043610610047577c0100000000000000000000000000000000000000000000000000000000600035046310f2fab1811461004c575b600080fd5b6101ad600480360361016081101561006357600080fd5b81019060208101813564010000000081111561007e57600080fd5b82018360208201111561009057600080fd5b803590602001918460208302840111640100000000831117156100b257600080fd5b919080806020026020016040519081016040528093929190818152602001838360200280828437600092019190915250929594936020810193503591505064010000000081111561010257600080fd5b82018360208201111561011457600080fd5b8035906020019184602083028401116401000000008311171561013657600080fd5b91908080602002602001604051908101604052809392919081815260200183836020028082843760009201919091525092955050600160a060020a038335169350505060208101359060408101359060608101359060808101359060a08101359060c08101359060e08101359061010001356101af565b005b8a8a8a8a8a8a8a8a8a8a8a6040516101c690610408565b8080602001806020018c600160a060020a0316600160a060020a031681526020018b81526020018a815260200189815260200188815260200187815260200186815260200185815260200184815260200183810383528e818151815260200191508051906020019060200280838360005b8381101561024f578181015183820152602001610237565b5050505090500183810382528d818151815260200191508051906020019060200280838360005b8381101561028e578181015183820152602001610276565b505050509050019d5050505050505050505050505050604051809103906000f0801580156102c0573d6000803e3d6000fd5b506000806101000a815481600160a060020a030219169083600160a060020a0316021790555060004290508a60405180828051906020019060200280838360005b83811015610319578181015183820152602001610301565b5050505090500191505060405180910390208c60405180828051906020019060200280838360005b83811015610359578181015183820152602001610341565b5050505090500191505060405180910390206000809054906101000a9004600160a060020a0316600160a060020a03167fb1e43106ac7fc273c99134701f8b8268eb6e540d4c55ad57ca9e8feffe81f9748d8d8d8d8d896040518087600160a060020a0316600160a060020a03168152602001868152602001858152602001848152602001838152602001828152602001965050505050505060405180910390a4505050505050505050505050565b615b1c80620004178339019056fe60806040523480156200001157600080fd5b5060405162005b1c38038062005b1c83398181016040526101608110156200003857600080fd5b81019080805160405193929190846401000000008211156200005957600080fd5b9083019060208201858111156200006f57600080fd5b82518660208202830111640100000000821117156200008d57600080fd5b82525081516020918201928201910280838360005b83811015620000bc578181015183820152602001620000a2565b5050505090500160405260200180516040519392919084640100000000821115620000e657600080fd5b908301906020820185811115620000fc57600080fd5b82518660208202830111640100000000821117156200011a57600080fd5b82525081516020918201928201910280838360005b83811015620001495781810151838201526020016200012f565b505050509190910160409081526020830151908301516060840151608085015160a086015160c087015160e0880151610100890151610120909901516001600055969a50949850929691955093919291876200020657604080517f08c379a000000000000000000000000000000000000000000000000000000000815260206004820152601660248201527f5f706572696f644475726174696f6e207a65726f656400000000000000000000604482015290519081900360640190fd5b600087116200027657604080517f08c379a000000000000000000000000000000000000000000000000000000000815260206004820152601a60248201527f5f766f74696e67506572696f644c656e677468207a65726f6564000000000000604482015290519081900360640190fd5b6ec097ce7bc90715b34b9f1000000000871115620002f557604080517f08c379a000000000000000000000000000000000000000000000000000000000815260206004820152601960248201527f5f766f74696e67506572696f644c656e677468206d6178656400000000000000604482015290519081900360640190fd5b6ec097ce7bc90715b34b9f10000000008611156200037457604080517f08c379a000000000000000000000000000000000000000000000000000000000815260206004820152601860248201527f5f6772616365506572696f644c656e677468206d617865640000000000000000604482015290519081900360640190fd5b60008a5111620003e557604080517f08c379a000000000000000000000000000000000000000000000000000000000815260206004820152600a60248201527f6e65656420746f6b656e00000000000000000000000000000000000000000000604482015290519081900360640190fd5b89600081518110620003f357fe5b6020026020010151600a60006101000a815481600160a060020a030219169083600160a060020a031602179055508a60405180828051906020019060200280838360005b838110156200045157818101518382015260200162000437565b5050505090500191505060405180910390207f2a8214e48a490ec27a213653fe2c4d1efbcdc572f82d1d3d3d040665024e50aa8b428b8b8b8b8b8b604051808060200189815260200188815260200187815260200186815260200185815260200184815260200183815260200182810382528a818151815260200191508051906020019060200280838360005b83811015620004f8578181015183820152602001620004de565b50505050905001995050505050505050505060405180910390a260005b8a518110156200066b57601460008c83815181106200053057fe5b602090810291909101810151600160a060020a031682528101919091526040016000205460ff1615620005c457604080517f08c379a000000000000000000000000000000000000000000000000000000000815260206004820152601060248201527f746f6b656e206475706c69636174656400000000000000000000000000000000604482015290519081900360640190fd5b6001601460008d8481518110620005d757fe5b6020026020010151600160a060020a0316600160a060020a0316815260200190815260200160002060006101000a81548160ff02191690831515021790555060158b82815181106200062557fe5b6020908102919091018101518254600180820185556000948552929093209092018054600160a060020a031916600160a060020a03909316929092179091550162000515565b5060098054600160a060020a031916600160a060020a038b1617905560028890556003879055600486905560058590556006849055600883905542600755600c829055600d819055600e8054610100810460ff1660ff19909116179055620006dc8b64010000000062000724810204565b620007136015600181548110620006ef57fe5b600091825260209091200154600160a060020a03166401000000006200091d810204565b5050505050505050505050620009b5565b600260005414156200079757604080517f08c379a000000000000000000000000000000000000000000000000000000000815260206004820152600e60248201527f7265656e7472616e742063616c6c000000000000000000000000000000000000604482015290519081900360640190fd5b600260009081555b81518110156200091457604051806101000160405280838381518110620007c257fe5b6020026020010151600160a060020a03168152602001600081526020016000815260200160008152602001600081526020016000815260200160001515815260200160011515815250601760008484815181106200081c57fe5b602090810291909101810151600160a060020a03908116835282820193909352604091820160002084518154600160a060020a031916941693909317835583015160018301558201516002820155606082015160038201556080820151600482015560a0820151600582015560c08201516006909101805460e09093015160ff199093169115159190911761ff001916610100921515929092029190911790558151601890839083908110620008ce57fe5b6020908102919091018101518254600180820185556000948552929093209092018054600160a060020a031916600160a060020a0390931692909217909155016200079f565b50506001600055565b600260005414156200099057604080517f08c379a000000000000000000000000000000000000000000000000000000000815260206004820152600e60248201527f7265656e7472616e742063616c6c000000000000000000000000000000000000604482015290519081900360640190fd5b60018054600160a060020a031916600160a060020a0392909216919091178155600055565b61515780620009c56000396000f3fe608060405234801561001057600080fd5b50600436106103105760003560e060020a900480637d5b6c72116101a1578063bf5d0a00116100ed578063e0a8f6f5116100a6578063e63bc62d11610080578063e63bc62d14610a5a578063e681c4aa14610a77578063f5d54c7714610a7f578063ff12df2d14610a8757610310565b8063e0a8f6f5146109fa578063e0f2cb9314610a17578063e1a0e3fa14610a3d57610310565b8063bf5d0a0014610964578063c89039c514610990578063c9211c8214610998578063d2de5527146109c4578063da35c664146109cc578063dfdd369e146109d457610310565b80639d1722cb1161015a578063a43af8bc11610134578063a43af8bc146108a8578063b2643aab146108ea578063b307fc6d1461093f578063b470aade1461095c57610310565b80639d1722cb1461087b578063a0dcf9da14610883578063a3dc38001461088b57610310565b80637d5b6c72146108035780637e74a1ed1461080b5780638340bbce146108135780639425a4761461081b5780639746d9401461083857806399653fbe1461085557610310565b80633b214a7411610260578063635e99aa1161021957806373f8fd4b116101f357806373f8fd4b1461079f578063753d7563146107cd57806378a89567146107f3578063797daf70146107fb57610310565b8063635e99aa1461077257806363858f2d1461077a5780636648f6d21461078257610310565b80633b214a74146105965780633fc24bba146105b35780634482394b146105ed57806345f2d1051461071657806355f150f11461074457806359999b411461074c57610310565b806315eb349e116102cd5780632957b839116102a75780632957b839146105765780632b77abdf1461057e5780632dd60c5e146105865780633a98ef391461058e57610310565b806315eb349e146105125780631dafede01461053557806327efc0861461056e57610310565b8063013cf08b14610315578063044a0ca8146103fd57806306fdde031461044d578063086146d21461046757806308ae4b0c1461046f5780630cf20cc9146104e4575b600080fd5b6103326004803603602081101561032b57600080fd5b5035610ae5565b604051808f600160a060020a0316600160a060020a031681526020018e600160a060020a0316600160a060020a031681526020018d600160a060020a0316600160a060020a031681526020018c81526020018b81526020018a815260200189600160a060020a0316600160a060020a0316815260200188815260200187600160a060020a0316600160a060020a031681526020018681526020018581526020018481526020018381526020018281526020019e50505050505050505050505050505060405180910390f35b6104296004803603604081101561041357600080fd5b50600160a060020a038135169060200135610b64565b6040518082600281111561043957fe5b60ff16815260200191505060405180910390f35b610455610c85565b60408051918252519081900360200190f35b610455610c8b565b6104956004803603602081101561048557600080fd5b5035600160a060020a0316610cba565b60408051600160a060020a0390991689526020890197909752878701959095526060870193909352608086019190915260a0850152151560c0840152151560e083015251908190036101000190f35b610510600480360360408110156104fa57600080fd5b50600160a060020a038135169060200135610d0d565b005b6105106004803603604081101561052857600080fd5b5080359060200135610d6e565b6105526004803603602081101561054b57600080fd5b5035610e30565b60408051600160a060020a039092168252519081900360200190f35b610552610e57565b610552610e5d565b610552610e6c565b610552610e7b565b610455610e8a565b610455600480360360208110156105ac57600080fd5b5035610e90565b6105d9600480360360208110156105c957600080fd5b5035600160a060020a0316610eae565b604080519115158252519081900360200190f35b6105106004803603606081101561060357600080fd5b81019060208101813564010000000081111561061e57600080fd5b82018360208201111561063057600080fd5b8035906020019184602083028401116401000000008311171561065257600080fd5b91908080602002602001604051908101604052809392919081815260200183836020028082843760009201919091525092959493602081019350359150506401000000008111156106a257600080fd5b8201836020820111156106b457600080fd5b803590602001918460208302840111640100000000831117156106d657600080fd5b9190808060200260200160405190810160405280939291908181526020018383602002808284376000920191909152509295505050503515159050610ec3565b6104556004803603604081101561072c57600080fd5b50600160a060020a0381358116916020013516610ffb565b610455611018565b6105106004803603602081101561076257600080fd5b5035600160a060020a031661101e565b610455611235565b61045561123b565b6104556004803603602081101561079857600080fd5b5035611241565b610455600480360360408110156107b557600080fd5b50600160a060020a03813581169160200135166113b3565b6105d9600480360360208110156107e357600080fd5b5035600160a060020a03166113de565b6104556113f3565b6104556113f9565b6104556113ff565b610455611405565b61045561140b565b6105d96004803603602081101561083157600080fd5b5035611411565b6105106004803603602081101561084e57600080fd5b5035611438565b6105106004803603604081101561086b57600080fd5b508035906020013560ff16611978565b610455611ddd565b610455611de3565b6105d9600480360360208110156108a157600080fd5b5035611de9565b610510600480360360a08110156108be57600080fd5b50600160a060020a03813581169160208101358216916040820135169060608101359060800135611e9b565b6109076004803603602081101561090057600080fd5b503561209c565b604051808260e080838360005b8381101561092c578181015183820152602001610914565b5050505090500191505060405180910390f35b6105526004803603602081101561095557600080fd5b5035612106565b610455612113565b6105106004803603604081101561097a57600080fd5b50600160a060020a038135169060200135612119565b61055261244c565b610510600480360360408110156109ae57600080fd5b50600160a060020a03813516906020013561245b565b61045561279f565b6104556127a5565b610510600480360360208110156109ea57600080fd5b5035600160a060020a03166127ab565b61051060048036036020811015610a1057600080fd5b5035612929565b61051060048036036020811015610a2d57600080fd5b5035600160a060020a0316612b19565b61051060048036036020811015610a5357600080fd5b5035612c07565b61051060048036036020811015610a7057600080fd5b5035612dfe565b61055261353c565b610552613542565b6104556004803603610120811015610a9e57600080fd5b50600160a060020a03813581169160208101359160408201359160608101359160808201359160a08101359160c082013581169160e0810135909116906101000135613548565b601960205260009081526040902080546001820154600283015460038401546004850154600586015460068701546007880154600889015460098a0154600a8b0154600b8c0154600d8d0154600e909d0154600160a060020a039c8d169d9b8d169c9a8b169b999a98999798968716979596909416949293919290918e565b600160a060020a038216600090815260176020526040812060060154610100900460ff16610bdc576040805160e560020a62461bcd02815260206004820152600e60248201527f6e6f2073756368206d656d626572000000000000000000000000000000000000604482015290519081900360640190fd5b601a548210610c35576040805160e560020a62461bcd02815260206004820152600a60248201527f756e70726f706f73656400000000000000000000000000000000000000000000604482015290519081900360640190fd5b60196000601a8481548110610c4657fe5b600091825260208083209091015483528281019390935260409182018120600160a060020a0387168252600f0190925290205460ff1690505b92915050565b600c5481565b6000610cb4600254610ca860075442613a2e90919063ffffffff16565b9063ffffffff613a4316565b90505b90565b6017602052600090815260409020805460018201546002830154600384015460048501546005860154600690960154600160a060020a039095169593949293919290919060ff8082169161010090041688565b60026000541415610d56576040805160e560020a62461bcd02815260206004820152600e6024820152600080516020614ed9833981519152604482015290519081900360640190fd5b6002600055610d658282613a65565b50506001600055565b60026000541415610db7576040805160e560020a62461bcd02815260206004820152600e6024820152600080516020614ed9833981519152604482015290519081900360640190fd5b60026000818155338152601760205260408120918201546001909201549091610de6919063ffffffff613c1a16565b11610e255760405160e560020a62461bcd02815260040180806020018281038252602581526020018061504b6025913960400191505060405180910390fd5b610d65338383613c33565b60158181548110610e3d57fe5b600091825260209091200154600160a060020a0316905081565b61babe81565b600954600160a060020a031681565b600b54600160a060020a031681565b600154600160a060020a031681565b60105481565b601a8181548110610e9d57fe5b600091825260209091200154905081565b60166020526000908152604090205460ff1681565b60026000541415610f0c576040805160e560020a62461bcd02815260206004820152600e6024820152600080516020614ed9833981519152604482015290519081900360640190fd5b60026000558151835114610f545760405160e560020a62461bcd028152600401808060200182810382526022815260200180614f826022913960400191505060405180910390fd5b60005b8351811015610ff0576000838281518110610f6e57fe5b602002602001015190508215610fca573360009081526013602052604081208651909190879085908110610f9e57fe5b6020026020010151600160a060020a0316600160a060020a031681526020019081526020016000205490505b610fe7858381518110610fd957fe5b602002602001015182613a65565b50600101610f57565b505060016000555050565b601360209081526000928352604080842090915290825290205481565b600d5481565b600160a060020a03811660008181527f8009e2172d1c244c56732ebf9aad2646372ece2a262cefadb68df6dfdff6ce9b602090815260408083205481517f70a0823100000000000000000000000000000000000000000000000000000000815230600482015291519394909390926370a082319260248082019391829003018186803b1580156110ad57600080fd5b505afa1580156110c1573d6000803e3d6000fd5b505050506040513d60208110156110d757600080fd5b505103905080611131576040805160e560020a62461bcd02815260206004820152600960248201527f6e6f20746f6b656e730000000000000000000000000000000000000000000000604482015290519081900360640190fd5b600160a060020a03821660009081526014602052604090205460ff166111a1576040805160e560020a62461bcd02815260206004820152600f60248201527f6e6f742077686974656c69737465640000000000000000000000000000000000604482015290519081900360640190fd5b600160a060020a0382166000908152600080516020614f1a83398151915260205260409020541580156111d657506064601254105b156111e5576012805460010190555b6111f261dead8383613ffc565b604080518281529051600160a060020a038416917f9381e53ffdc9733a6783a6f8665be3f89c231bb81a6771996ed553b4e75c0fe3919081900360200190a25050565b60115481565b60045481565b600154604080517f0df94ef20000000000000000000000000000000000000000000000000000000081523060048201529051600092849284926112f892670de0b6b3a764000092610ca892600160a060020a0390921691630df94ef29160248082019260209290919082900301818a87803b1580156112bf57600080fd5b505af11580156112d3573d6000803e3d6000fd5b505050506040513d60208110156112e957600080fd5b5051859063ffffffff61405a16565b90506000611395670de0b6b3a7640000610ca8600160009054906101000a9004600160a060020a0316600160a060020a0316637ff9b5966040518163ffffffff1660e060020a02815260040160206040518083038186803b15801561135c57600080fd5b505afa158015611370573d6000803e3d6000fd5b505050506040513d602081101561138657600080fd5b5051869063ffffffff61405a16565b905060006113a9828463ffffffff613a2e16565b9695505050505050565b600160a060020a03918216600090815260136020908152604080832093909416825291909152205490565b60146020526000908152604090205460ff1681565b60155490565b601a5490565b60075481565b60065481565b60035481565b600061142860035483613c1a90919063ffffffff16565b611430610c8b565b101592915050565b60026000541415611481576040805160e560020a62461bcd02815260206004820152600e6024820152600080516020614ed9833981519152604482015290519081900360640190fd5b60026000908155600a54600554604080517f23b872dd000000000000000000000000000000000000000000000000000000008152336004820152306024820152604481019290925251600160a060020a03909216926323b872dd926064808401936020939083900390910190829087803b1580156114fe57600080fd5b505af1158015611512573d6000803e3d6000fd5b505050506040513d602081101561152857600080fd5b50516115685760405160e560020a62461bcd0281526004018080602001828103825260268152602001806150b86026913960400191505060405180910390fd5b600a546005546115879161beef91600160a060020a0390911690613ffc565b60008181526019602052604090206001810154600160a060020a03166115f7576040805160e560020a62461bcd02815260206004820181905260248201527f70726f706f73616c206d7573742068617665206265656e2070726f706f736564604482015290519081900360640190fd5b600c81015460ff161561163e5760405160e560020a62461bcd028152600401808060200182810382526023815260200180614fdc6023913960400191505060405180910390fd5b600c8101546301000000900460ff16156116a2576040805160e560020a62461bcd02815260206004820152601b60248201527f70726f706f73616c20686173206265656e2063616e63656c6c65640000000000604482015290519081900360640190fd5b8054600160a060020a031660009081526017602052604090206006015460ff16156117015760405160e560020a62461bcd028152600401808060200182810382526025815260200180614f5d6025913960400191505060405180910390fd5b6000816005015411801561173c57506006810154600160a060020a03166000908152600080516020614f1a8339815191526020526040902054155b15611785576064601254106117855760405160e560020a62461bcd0281526004018080602001828103825260488152602001806150706048913960600191505060405180910390fd5b600c81015465010000000000900460ff1615611832578054600160a060020a031660009081526016602052604090205460ff161561180d576040805160e560020a62461bcd02815260206004820152601860248201527f616c72656164792070726f706f73656420746f206b69636b0000000000000000604482015290519081900360640190fd5b8054600160a060020a03166000908152601660205260409020805460ff191660011790555b60006118a7600161189b611844610c8b565b601a541561189357601a805460199160009161186790600163ffffffff613a2e16565b8154811061187157fe5b9060005260206000200154815260200190815260200160002060090154611896565b60005b614081565b9063ffffffff613c1a16565b6009830181905560028301805473ffffffffffffffffffffffffffffffffffffffff191633908117909155600c8401805460ff19166001908117909155601a8054808301825560008290527f057c384a7d1c54f3a1b2e5e67b2617b8224fdfd1ea7234eea573a6ff665ff63e01879055549293509091829182917f2a383a979381335e3eb401ac01dd8083e024ff0256bf5338456ffc0063390bbd91889161194e91613a2e565b604080519283526020830191909152818101879052519081900360600190a3505060016000555050565b600260005414156119c1576040805160e560020a62461bcd02815260206004820152600e6024820152600080516020614ed9833981519152604482015290519081900360640190fd5b600260009081553381526017602052604090206006015460ff6101009091041615156001146119ef57600080fd5b336000908152601760205260409020601a548310611a57576040805160e560020a62461bcd02815260206004820152601760248201527f70726f706f73616c20646f6573206e6f74206578697374000000000000000000604482015290519081900360640190fd5b600060196000601a8681548110611a6a57fe5b90600052602060002001548152602001908152602001600020905060038360ff1610611aca5760405160e560020a62461bcd0281526004018080602001828103825260248152602001806150276024913960400191505060405180910390fd5b60008360ff166002811115611adb57fe5b90508160090154611aea610c8b565b1015611b40576040805160e560020a62461bcd02815260206004820152601d60248201527f766f74696e6720706572696f6420686173206e6f742073746172746564000000604482015290519081900360640190fd5b611b4d8260090154611411565b15611b8c5760405160e560020a62461bcd0281526004018080602001828103825260228152602001806150de6022913960400191505060405180910390fd5b336000908152600f8301602052604081205460ff166002811115611bac57fe5b14611c01576040805160e560020a62461bcd02815260206004820152601860248201527f6d656d6265722068617320616c726561647920766f7465640000000000000000604482015290519081900360640190fd5b6001816002811115611c0f57fe5b1480611c2657506002816002811115611c2457fe5b145b611c7a576040805160e560020a62461bcd02815260206004820152601d60248201527f766f7465206d7573742062652065697468657220596573206f72204e6f000000604482015290519081900360640190fd5b336000908152600f830160205260409020805482919060ff19166001836002811115611ca257fe5b02179055506001816002811115611cb557fe5b1415611d2d576001830154600a830154611cd49163ffffffff613c1a16565b600a8301556005830154851115611ced57600583018590555b600e820154601154601054611d079163ffffffff613c1a16565b1115611d2857601154601054611d229163ffffffff613c1a16565b600e8301555b611d60565b6002816002811115611d3b57fe5b1415611d60576001830154600b830154611d5a9163ffffffff613c1a16565b600b8301555b33600160a060020a031633600160a060020a0316867f804f03797630bf8b8a46b9371608abbf7d78a20df720e477bab641957ca68a20601a8981548110611da357fe5b906000526020600020015488604051808381526020018260ff1660ff1681526020019250505060405180910390a450506001600055505050565b60125481565b60085481565b601a546000908210611e45576040805160e560020a62461bcd02815260206004820152601060248201527f6e6f20737563682070726f706f73616c00000000000000000000000000000000604482015290519081900360640190fd5b60196000601a8481548110611e5657fe5b90600052602060002001548152602001908152602001600020600c01600060078110611e7e57fe5b602081049091015460ff601f9092166101000a9004169050919050565b60026000541415611ee4576040805160e560020a62461bcd02815260206004820152600e6024820152600080516020614ed9833981519152604482015290519081900360640190fd5b6002600055600b54600160a060020a03163314611f355760405160e560020a62461bcd028152600401808060200182810382526023815260200180614f3a6023913960400191505060405180910390fd5b600b805473ffffffffffffffffffffffffffffffffffffffff1916600160a060020a03858116919091179091556006829055600883905585161561203057606460125410611fcd576040805160e560020a62461bcd02815260206004820152601760248201527f746f6f206d616e7920746f6b656e7320616c7265616479000000000000000000604482015290519081900360640190fd5b60158054600180820183556000929092527f55f448fdea98c4d29eb340757ef0a66cd03dbb9538908a6a81d96026b71ec47501805473ffffffffffffffffffffffffffffffffffffffff1916600160a060020a0388161790556012805490910190555b600160a060020a038416156120485761204884614098565b600b546006546040805191825251600160a060020a03928316928816917fda5e1bbe6ec3caef58e6417562eb7faae11f65615e0d463da836f8651b76b6b1919081900360200190a350506001600055505050565b6120a4614ce6565b600082815260196020526040808220815160e081019283905292600c909101916007918390855b825461010083900a900460ff1615158152602060019283018181049485019490930390920291018084116120cb575094979650505050505050565b60188181548110610e3d57fe5b60025481565b60026000541415612162576040805160e560020a62461bcd02815260206004820152600e6024820152600080516020614ed9833981519152604482015290519081900360640190fd5b600260009081553381526017602052604090206006015460ff6101009091041615156001146121db576040805160e560020a62461bcd02815260206004820152600a60248201527f6e6f74206d656d62657200000000000000000000000000000000000000000000604482015290519081900360640190fd5b600654811015612235576040805160e560020a62461bcd02815260206004820152601460248201527f7472696275746520696e73756666696369656e74000000000000000000000000604482015290519081900360640190fd5b600a54600160a060020a0383811691161461229a576040805160e560020a62461bcd02815260206004820152601d60248201527f63616e206f6e6c79206465706f736974206465706f736974546f6b656e000000604482015290519081900360640190fd5b60006122b160065483613a4390919063ffffffff16565b90506ec097ce7bc90715b34b9f10000000008160105401111561231e576040805160e560020a62461bcd02815260206004820152600c60248201527f736861726573206d617865640000000000000000000000000000000000000000604482015290519081900360640190fd5b601854600110156123a6576123436002610ca883601054613c1a90919063ffffffff16565b33600090815260176020526040902060010154612366908363ffffffff613c1a16565b14156123a65760405160e560020a62461bcd028152600401808060200182810382526028815260200180614fff6028913960400191505060405180910390fd5b3360009081526017602090815260408083206001018054850190556010805485019055600a54600160a060020a03168352600080516020614f1a8339815191529091529020541580156123f95750600082115b15612408576012805460010190555b612413338484614113565b6040518190839033907f4de2aa579cae08c036885f604d1922d33dec30980a0e41f8559c314705425d9b90600090a45050600160005550565b600a54600160a060020a031681565b600260005414156124a4576040805160e560020a62461bcd02815260206004820152600e6024820152600080516020614ed9833981519152604482015290519081900360640190fd5b60026000908155600160a060020a0383168152601760205260409020600681015460ff610100909104161515600114612527576040805160e560020a62461bcd02815260206004820152600a60248201527f6e6f74206d656d62657200000000000000000000000000000000000000000000604482015290519081900360640190fd5b33600160a060020a03841614612587576040805160e560020a62461bcd02815260206004820152601c60248201527f63616e206f6e6c792062652063616c6c6564206279206d656d62657200000000604482015290519081900360640190fd5b60006125ac6125a783600401548460030154613a2e90919063ffffffff16565b611241565b9050828110156125f05760405160e560020a62461bcd02815260040180806020018281038252602e815260200180614e5e602e913960400191505060405180910390fd5b60006125fe61dead856143b1565b90506000600160009054906101000a9004600160a060020a0316600160a060020a0316637ff9b5966040518163ffffffff1660e060020a02815260040160206040518083038186803b15801561265357600080fd5b505afa158015612667573d6000803e3d6000fd5b505050506040513d602081101561267d57600080fd5b505190506000612693838363ffffffff613a4316565b600154604080517f8b30b516000000000000000000000000000000000000000000000000000000008152600481018490529051929350600092600160a060020a0390921691638b30b5169160248082019260209290919082900301818787803b1580156126ff57600080fd5b505af1158015612713573d6000803e3d6000fd5b505050506040513d602081101561272957600080fd5b50516004870154909150612743908263ffffffff613c1a16565b50600a5461275e9061dead90600160a060020a031683613ffc565b600a5461277a9061dead908a90600160a060020a031684614410565b600a5461279090600160a060020a031682613a65565b50506001600055505050505050565b60055481565b600f5481565b600260005414156127f4576040805160e560020a62461bcd02815260206004820152600e6024820152600080516020614ed9833981519152604482015290519081900360640190fd5b60026000908155600160a060020a0382168152601760205260409020600681015460ff16151560011415612872576040805160e560020a62461bcd02815260206004820152601160248201527f6d656d626572206e6f74206a61696c6564000000000000000000000000000000604482015290519081900360640190fd5b60008160020154116128ce576040805160e560020a62461bcd02815260206004820152601560248201527f6d656d626572206d7573742068617665206c6f6f740000000000000000000000604482015290519081900360640190fd5b6128db8160050154611de9565b6129195760405160e560020a62461bcd02815260040180806020018281038252604d815260200180614e8c604d913960600191505060405180910390fd5b610d658260008360020154613c33565b60026000541415612972576040805160e560020a62461bcd02815260206004820152600e6024820152600080516020614ed9833981519152604482015290519081900360640190fd5b600260009081558181526019602052604090206009810154612992610c8b565b11156129d25760405160e560020a62461bcd028152600401808060200182810382526021815260200180614ef96021913960400191505060405180910390fd5b600c8101546301000000900460ff1615612a36576040805160e560020a62461bcd02815260206004820152601a60248201527f70726f706f73616c20616c72656164792063616e63656c6c6564000000000000604482015290519081900360640190fd5b6001810154600160a060020a03163314612a9a576040805160e560020a62461bcd02815260206004820152601560248201527f6f6e6c792070726f706f7365722063616e63656c730000000000000000000000604482015290519081900360640190fd5b600c8101805463ff00000019166301000000179055600181015460068201546005830154612ada9261beef92600160a060020a0391821692911690614410565b60408051338152905183917fc215fed6680bb02d323dc3f8b8f85241572607538426059c9232601bd293c3be919081900360200190a250506001600055565b60026000541415612b62576040805160e560020a62461bcd02815260206004820152600e6024820152600080516020614ed9833981519152604482015290519081900360640190fd5b6002600055600e5460ff1660011415612bc5576040805160e560020a62461bcd02815260206004820152600b60248201527f616c726561647920736574000000000000000000000000000000000000000000604482015290519081900360640190fd5b600b805473ffffffffffffffffffffffffffffffffffffffff1916600160a060020a0392909216919091179055600e805460ff19166001908117909155600055565b60026000541415612c50576040805160e560020a62461bcd02815260206004820152600e6024820152600080516020614ed9833981519152604482015290519081900360640190fd5b6002600055612c5e8161442c565b6000601a8281548110612c6d57fe5b60009182526020808320919091015480835260199091526040909120600c810154919250906301000000900460ff16612cf0576040805160e560020a62461bcd02815260206004820152600e60248201527f6e6f74206775696c64206b69636b000000000000000000000000000000000000604482015290519081900360640190fd5b600c8101805460ff191660011790556000612d0a84614747565b90508015612d9157600c8201805461ff0019166101001790558154600160a060020a0316600090815260176020526040902060018101546002820154612d4f91613c1a565b60028201556001810154601054612d6b9163ffffffff613a2e16565b6010556001810154601154612d859163ffffffff613c1a16565b60115560006001909101555b8154600160a060020a03166000908152601660205260409020805460ff19169055612dba614903565b6040805182151581529051849186917f0e347d00d3e9e6cdff9e6c09092c9ff1bd448f9b3dfb7091b30939ec5e7a3c739181900360200190a3505060016000555050565b60026000541415612e47576040805160e560020a62461bcd02815260206004820152600e6024820152600080516020614ed9833981519152604482015290519081900360640190fd5b6002600055612e558161442c565b600060196000601a8481548110612e6857fe5b90600052602060002001548152602001908152602001600020905080600c01600360078110612e9357fe5b602081049091015460ff601f9092166101000a90041615612efe576040805160e560020a62461bcd02815260206004820152601560248201527f6e6f74207374616e646172642070726f706f73616c0000000000000000000000604482015290519081900360640190fd5b600c8101805460ff191660011790556000612f1883614747565b90506ec097ce7bc90715b34b9f1000000000612f51836004015461189b856003015461189b601154601054613c1a90919063ffffffff16565b1115612f5b575060005b6008820154600160a060020a03166000908152600080516020614f1a833981519152602052604090205460078301541115612f94575060005b80156134c757600c8201805461ff0019166101009081179091558254600160a060020a03166000908152601760205260409020600601540460ff161561306d5760038201548254600160a060020a03166000908152601760205260409020600101546130059163ffffffff613c1a16565b8254600160a060020a0390811660009081526017602052604080822060010193909355600485015485549092168152919091206002015461304b9163ffffffff613c1a16565b8254600160a060020a0316600090815260176020526040902060020155613188565b6040805161010080820183528454600160a060020a0390811680845260038088015460208087019182526004808b0154888a01908152600060608a0181815260808b0182815260a08c0183815260c08d01848152600160e08f018181529b865260179098529d84209c518d5473ffffffffffffffffffffffffffffffffffffffff19908116918d16919091178e5597518d880155935160028d01559051968b0196909655945191890191909155516005880155965160069096018054935160ff199094169615159690961761ff0019169215159094029190911790935585546018805495860181559093527fb13d2d76d1f4b7be834882e410b3e3a8afaf69f83600ae24db354391d2378d2e90930180549290931691161790555b600382015460105461319f9163ffffffff613c1a16565b60105560048201546011546131b99163ffffffff613c1a16565b6011556006820154600160a060020a03166000908152600080516020614f1a83398151915260205260409020541580156131f7575060008260050154115b15613206576012805460010190555b6006820154600583015461322b9161beef9161dead91600160a060020a031690614410565b600a546006830154600160a060020a03908116911614156132695781546006830154600584015461326992600160a060020a03908116921690614113565b6001546008830154600160a060020a03908116911614156132bd57600061329661dead84600701546143b1565b835460088501549192506132bb9161dead91600160a060020a03908116911684614410565b505b600a546008830154600160a060020a039081169116141561344f57600154604080517f7ff9b5960000000000000000000000000000000000000000000000000000000081529051600092600160a060020a031691637ff9b596916004808301926020929190829003018186803b15801561333657600080fd5b505afa15801561334a573d6000803e3d6000fd5b505050506040513d602081101561336057600080fd5b5051600784015490915060009061337d908363ffffffff613a4316565b9050600061338d61dead836143b1565b600154604080517f8b30b516000000000000000000000000000000000000000000000000000000008152600481018490529051929350600092600160a060020a0390921691638b30b5169160248082019260209290919082900301818787803b1580156133f957600080fd5b505af115801561340d573d6000803e3d6000fd5b505050506040513d602081101561342357600080fd5b50518654600888015491925061344a9161dead91600160a060020a03908116911684614410565b505050505b8154600883015460078401546134779261dead92600160a060020a0391821692911690614410565b6008820154600160a060020a03166000908152600080516020614f1a83398151915260205260409020541580156134b2575060008260070154115b156134c257601280546000190190555b6134f2565b6001820154600683015460058401546134f29261beef92600160a060020a0391821692911690614410565b6134fa614903565b604080518215158152905184917f36bb81bc23e1666e90ce29b613dfccad1f8bf01c6793afa329d1a1bef0e7d88a919081900360200190a25050600160005550565b61beef81565b61dead81565b600060026000541415613593576040805160e560020a62461bcd02815260206004820152600e6024820152600080516020614ed9833981519152604482015290519081900360640190fd5b60026000556ec097ce7bc90715b34b9f10000000006135b8898963ffffffff613c1a16565b111561360e576040805160e560020a62461bcd02815260206004820152600c60248201527f736861726573206d617865640000000000000000000000000000000000000000604482015290519081900360640190fd5b600160a060020a03831660009081526014602052604090205460ff1661367e576040805160e560020a62461bcd02815260206004820152601760248201527f7061796d656e74206e6f742077686974656c6973746564000000000000000000604482015290519081900360640190fd5b600160a060020a038a166136dc576040805160e560020a62461bcd02815260206004820152601560248201527f6170706c6963616e742063616e6e6f7420626520300000000000000000000000604482015290519081900360640190fd5b600160a060020a038a1660009081526017602052604090206006015460ff1615613750576040805160e560020a62461bcd02815260206004820152601060248201527f6170706c6963616e74206a61696c656400000000000000000000000000000000604482015290519081900360640190fd5b600854600a54600160a060020a03166000908152600080516020614f1a833981519152602052604090205410156137d1576040805160e560020a62461bcd02815260206004820152601060248201527f676f616c206e6f74206d65742079657400000000000000000000000000000000604482015290519081900360640190fd5b841515806137e0575084600114155b806137ec575084600214155b806137f8575084600314155b6138365760405160e560020a62461bcd028152600401808060200182810382526038815260200180614fa46038913960400191505060405180910390fd5b600554604080517f23b872dd000000000000000000000000000000000000000000000000000000008152336004820152306024820152604481019290925251600160a060020a038516916323b872dd9160648083019260209291908290030181600087803b1580156138a757600080fd5b505af11580156138bb573d6000803e3d6000fd5b505050506040513d60208110156138d157600080fd5b5051613927576040805160e560020a62461bcd02815260206004820152601760248201527f70726f706f73616c206465706f736974206661696c6564000000000000000000604482015290519081900360640190fd5b61393661beef84600554613ffc565b84600514156139c057600854600a54600160a060020a03166000908152600080516020614f1a833981519152602052604090205410156139c0576040805160e560020a62461bcd02815260206004820152601060248201527f676f616c206e6f74206d65742079657400000000000000000000000000000000604482015290519081900360640190fd5b6139c8614ce6565b60018187600781106139d657fe5b911515602090920201526004861415613a02576139fd8b6000806000806000808a89614924565b613a13565b613a138b8a8a8d898c8a8a89614924565b5050600f546000190160016000559998505050505050505050565b600082821115613a3d57600080fd5b50900390565b6000808211613a5157600080fd5b6000828481613a5c57fe5b04949350505050565b336000908152601360209081526040808320600160a060020a0386168452909152902054811115613ae0576040805160e560020a62461bcd02815260206004820152601460248201527f696e73756666696369656e742062616c616e6365000000000000000000000000604482015290519081900360640190fd5b613aeb338383614c32565b604080517fa9059cbb000000000000000000000000000000000000000000000000000000008152336004820152602481018390529051600160a060020a0384169163a9059cbb9160448083019260209291908290030181600087803b158015613b5357600080fd5b505af1158015613b67573d6000803e3d6000fd5b505050506040513d6020811015613b7d57600080fd5b5051613bd3576040805160e560020a62461bcd02815260206004820152600f60248201527f7472616e73666572206661696c65640000000000000000000000000000000000604482015290519081900360640190fd5b60408051600160a060020a038416815260208101839052815133927f9b1bfa7fa9ee420a16e124f794c35ac9f90472acc99140eb2f6447c714cad8eb928290030190a25050565b600082820183811015613c2c57600080fd5b9392505050565b6000613c4c601154601054613c1a90919063ffffffff16565b600160a060020a0385166000908152601760205260409020600181015491925090841115613cc4576040805160e560020a62461bcd02815260206004820152601360248201527f696e73756666696369656e742073686172657300000000000000000000000000604482015290519081900360640190fd5b8281600201541015613d20576040805160e560020a62461bcd02815260206004820152601160248201527f696e73756666696369656e74206c6f6f74000000000000000000000000000000604482015290519081900360640190fd5b613d2d8160050154611de9565b613d6b5760405160e560020a62461bcd02815260040180806020018281038252604d815260200180614e8c604d913960600191505060405180910390fd5b6000613d7d858563ffffffff613c1a16565b6001830154909150613d95908663ffffffff613a2e16565b60018301556002820154613daf908563ffffffff613a2e16565b6002830155601054613dc7908663ffffffff613a2e16565b601055601154613ddd908563ffffffff613a2e16565b60115560005b601554811015613fb95761dead6000908152601360205260158054613e4b91600080516020614f1a8339815191529184919086908110613e1f57fe5b6000918252602080832090910154600160a060020a031683528201929092526040019020548487614c92565b90508015613fb05761dead60009081526013602052601580548392600080516020614f1a83398151915292909186908110613e8257fe5b6000918252602080832090910154600160a060020a0390811684528382019490945260409283018220805495909503909455918b1682526013909252908120601580548493919086908110613ed357fe5b6000918252602080832090910154600160a060020a0390811684528382019490945260409283018220805490950190945560048801548c8416825260138552828220600154909416825292909352822054613f339163ffffffff613a2e16565b90506000613f418a836143b1565b600487015490915015613fad576000613f67876004015483613a2e90919063ffffffff16565b600154909150613f86908c9061dead90600160a060020a031684614410565b613faa613f99858363ffffffff613a2e16565b60048901549063ffffffff613c1a16565b50505b50505b50600101613de3565b506040805186815260208101869052815133927fcad1a1c68982832d9abc314de8a1e5d5e8c81b0588961e360766736d10c3be1a928290030190a2505050505050565b600160a060020a0392831660009081526013602090815260408083209490951682529283528381208054830190557f8009e2172d1c244c56732ebf9aad2646372ece2a262cefadb68df6dfdff6ce9b90925291902080549091019055565b60008261406957506000610c7f565b8282028284828161407657fe5b0414613c2c57600080fd5b6000818310156140915781613c2c565b5090919050565b600260005414156140e1576040805160e560020a62461bcd02815260206004820152600e6024820152600080516020614ed9833981519152604482015290519081900360640190fd5b6001805473ffffffffffffffffffffffffffffffffffffffff1916600160a060020a0392909216919091178155600055565b600a54600160a060020a03838116911614614178576040805160e560020a62461bcd02815260206004820152601b60248201527f6e6f742061626c6520746f206465706f73697420696e2069646c650000000000604482015290519081900360640190fd5b806141cd576040805160e560020a62461bcd02815260206004820152601460248201527f6e6f20746f6b656e7320746f206465706f736974000000000000000000000000604482015290519081900360640190fd5b600154604080517f095ea7b3000000000000000000000000000000000000000000000000000000008152306004820152602481018490529051600160a060020a039092169163095ea7b3916044808201926020929091908290030181600087803b15801561423a57600080fd5b505af115801561424e573d6000803e3d6000fd5b505050506040513d602081101561426457600080fd5b50516142ba576040805160e560020a62461bcd02815260206004820152600f60248201527f617070726f76616c206661696c65640000000000000000000000000000000000604482015290519081900360640190fd5b60018054604080517f2befabbf000000000000000000000000000000000000000000000000000000008152600481018590526024810193909352600160a060020a03868116604485015290516000939190921691632befabbf9160648082019260209290919082900301818787803b15801561433557600080fd5b505af1158015614349573d6000803e3d6000fd5b505050506040513d602081101561435f57600080fd5b505160015490915061437e9061dead90600160a060020a031683613ffc565b600160a060020a0384166000908152601760205260409020600301546143aa908263ffffffff613c1a16565b5050505050565b6000806143d66143c96064600563ffffffff613a4316565b849063ffffffff613a4316565b6009546001549192506143f8918691600160a060020a03908116911684614410565b614408838263ffffffff613a2e16565b949350505050565b61441b848383614c32565b614426838383613ffc565b50505050565b601a548110614485576040805160e560020a62461bcd02815260206004820152601060248201527f6e6f20737563682070726f706f73616c00000000000000000000000000000000604482015290519081900360640190fd5b61448d614d04565b60196000601a848154811061449e57fe5b6000918252602080832091909101548352828101939093526040918201812082516101e0810184528154600160a060020a039081168252600183015481169582019590955260028201548516818501526003820154606082015260048201546080820152600582015460a08201526006820154851660c082015260078083015460e08084019190915260088401549096166101008301526009830154610120830152600a830154610140830152600b83015461016083015284519586019485905290949193610180860193600c86019291908390855b825461010083900a900460ff16151581526020600192830181810494850194909303909202910180841161457457905050505050508152602001600d8201548152602001600e8201548152505090506145e360045461189b600354846101200151613c1a90919063ffffffff16565b6145eb610c8b565b1015614641576040805160e560020a62461bcd02815260206004820152601260248201527f70726f706f73616c206e6f742072656164790000000000000000000000000000604482015290519081900360640190fd5b61018081015151156146875760405160e560020a62461bcd0281526004018080602001828103825260238152602001806151006023913960400191505060405180910390fd5b8115806146ef575060196000601a6146a685600163ffffffff613a2e16565b815481106146b057fe5b90600052602060002001548152602001908152602001600020600c016000600781106146d857fe5b602081049091015460ff601f9092166101000a9004165b614743576040805160e560020a62461bcd02815260206004820152601d60248201527f70726576696f75732070726f706f73616c20756e70726f636573736564000000604482015290519081900360640190fd5b5050565b6000614751614d04565b60196000601a858154811061476257fe5b6000918252602080832091909101548352828101939093526040918201812082516101e0810184528154600160a060020a039081168252600183015481169582019590955260028201548516818501526003820154606082015260048201546080820152600582015460a08201526006820154851660c082015260078083015460e08084019190915260088401549096166101008301526009830154610120830152600a830154610140830152600b83015461016083015284519586019485905290949193610180860193600c86019291908390855b825461010083900a900460ff16151581526020600192830181810494850194909303909202910180841161483857905050505050508152602001600d8201548152602001600e820154815250509050806101600151816101400151119150806101c001516148c460036148b8601154601054613c1a90919063ffffffff16565b9063ffffffff61405a16565b10156148cf57600091505b8051600160a060020a031660009081526017602052604090206006015460ff1615156001146148fd57600091505b50919050565b600a546005546149229161beef913391600160a060020a031690614410565b565b61492c614d04565b604051806101e001604052808b600160a060020a0316815260200133600160a060020a031681526020016000600160a060020a031681526020018a815260200189815260200188815260200187600160a060020a0316815260200186815260200185600160a060020a03168152602001600081526020016000815260200160008152602001838152602001848152602001600081525090508060196000600f54815260200190815260200160002060008201518160000160006101000a815481600160a060020a030219169083600160a060020a0316021790555060208201518160010160006101000a815481600160a060020a030219169083600160a060020a0316021790555060408201518160020160006101000a815481600160a060020a030219169083600160a060020a03160217905550606082015181600301556080820151816004015560a0820151816005015560c08201518160060160006101000a815481600160a060020a030219169083600160a060020a0316021790555060e082015181600701556101008201518160080160006101000a815481600160a060020a030219169083600160a060020a03160217905550610120820151816009015561014082015181600a015561016082015181600b015561018082015181600c01906007614b1d929190614dad565b506101a082015181600d01556101c082015181600e0155905050600033905080600160a060020a031633600160a060020a03168c600160a060020a03167f831db3ee1460bd63b9f43eb528fb8ccfc8af8e8f0257fac4afeb0c2b508e25828d8d8d8d8d8d8d8d600f54604051808a815260200189815260200188815260200187600160a060020a0316600160a060020a0316815260200186815260200185600160a060020a0316600160a060020a0316815260200184815260200183600760200280838360005b83811015614bfc578181015183820152602001614be4565b50505050905001828152602001995050505050505050505060405180910390a45050600f80546001019055505050505050505050565b600160a060020a039283166000908152601360209081526040808320949095168252928352838120805483900390557f8009e2172d1c244c56732ebf9aad2646372ece2a262cefadb68df6dfdff6ce9b9092529190208054919091039055565b600081614c9e57600080fd5b83614cab57506000613c2c565b83830283858281614cb857fe5b041415614cd157828181614cc857fe5b04915050613c2c565b83838681614cdb57fe5b040295945050505050565b6040518060e001604052806007906020820280388339509192915050565b604051806101e001604052806000600160a060020a031681526020016000600160a060020a031681526020016000600160a060020a031681526020016000815260200160008152602001600081526020016000600160a060020a03168152602001600081526020016000600160a060020a03168152602001600081526020016000815260200160008152602001614d99614ce6565b815260006020820181905260409091015290565b600183019183908215614e2f5791602002820160005b83821115614e0057835183826101000a81548160ff0219169083151502179055509260200192600101602081600001049283019260010302614dc3565b8015614e2d5782816101000a81549060ff0219169055600101602081600001049283019260010302614e00565b505b50614e3b929150614e3f565b5090565b610cb791905b80821115614e3b57805460ff19168155600101614e4556fe6e6f7420656e6f756768206561726e696e677320746f2072656465656d2074686973206d616e7920746f6b656e7363616e6e6f7420726167657175697420756e74696c206869676865737420696e6465782070726f706f73616c206d656d62657220766f74656420594553206f6e2069732070726f6365737365647265656e7472616e742063616c6c000000000000000000000000000000000000766f74696e6720706572696f642068617320616c726561647920737461727465642264e2d7bacabe6058f5009f42467b9be28015e7760f87409562384c94ac271c6f6e6c79206d696e696f6e2063616e206d616b65207468657365206368616e6765732170726f706f73616c206170706c6963616e74206d757374206e6f74206265206a61696c6564746f6b656e73202b20616d6f756e747320617272617973206d757374206d61746368666c6167206d7573742062652034202d206775696c646b69636b2c2035202d207370656e64696e672c2036202d206d656d6265727368697070726f706f73616c2068617320616c7265616479206265656e2073706f6e736f72656463616e277420627579203530252b2073686172657320776974686f757420612070726f706f73616c6d757374206265206c657373207468616e20332c2030203d207965732c2031203d206e6f6f6e6c7920757365727320776974682062616c616e6365732063616e20726167657175697463616e6e6f742073706f6e736f72206d6f726520747269627574652070726f706f73616c7320666f72206e657720746f6b656e73202d206775696c6462616e6b2069732066756c6c70726f706f73616c206465706f73697420746f6b656e207472616e73666572206661696c656470726f706f73616c20766f74696e6720706572696f6420686173206578706972656470726f706f73616c2068617320616c7265616479206265656e2070726f636573736564a265627a7a723158204a34bdf92c6a69fbd886f25bf9a3718ea92b8f63045f0129b85220389ba0101764736f6c63430005110032a265627a7a723158201796528b00d7738a9af5ffabd55b8d919508330cecbb2fba797e9e98b8ab9ab964736f6c63430005110032",
  "source": "pragma solidity 0.5.17;\n\nimport \"./Party.sol\";\n\ncontract PartyStarter {\n    Party private party;\n\n    \n    event PartyStarted(address indexed party, address[] indexed _founders, address[] indexed _approvedTokens, address _daoFees, uint256 _periodDuration, uint256 _votingPeriodLength, uint256 _gracePeriodLength, uint256 _proposalDepositReward, uint256 summoningTime);\n\n    function startParty(\n        address[] memory _founders,\n        address[] memory _approvedTokens, //deposit token in 0, idleToken in 1\n        address _daoFees,\n        uint256 _periodDuration,\n        uint256 _votingPeriodLength,\n        uint256 _gracePeriodLength,\n        uint256 _proposalDepositReward,\n        uint256 _depositRate,\n        uint256 _partyGoal,\n        bytes32 _name,\n        bytes32 _desc\n    ) public {\n        party = new Party(\n            _founders,\n            _approvedTokens,\n            _daoFees,\n            _periodDuration,\n            _votingPeriodLength,\n            _gracePeriodLength,\n            _proposalDepositReward,\n            _depositRate,\n            _partyGoal,\n            _name,\n            _desc);\n            \n        uint256 summoningTime = now;     \n        \n        emit PartyStarted(address(party), _founders, _approvedTokens, _daoFees, _periodDuration, _votingPeriodLength, _gracePeriodLength, _proposalDepositReward, summoningTime);\n    }\n}",
  "sourcePath": "/Users/bill/Desktop/peepsvest/contracts/PartyStarter.sol",
  "compiler": {
    "name": "solc",
    "version": "0.5.17+commit.d19bba13.Emscripten.clang"
  },
  "schemaVersion": "3.2.3",
  "updatedAt": "2020-09-01T01:49:08.264Z",
  "devdoc": {
    "methods": {}
  },
  "userdoc": {
    "methods": {}
  }
}