{
  "contractName": "Party",
  "abi": [
    {
      "inputs": [
        {
          "internalType": "address[]",
          "name": "_founders",
          "type": "address[]"
        },
        {
          "internalType": "address[]",
          "name": "_approvedTokens",
          "type": "address[]"
        },
        {
          "internalType": "address",
          "name": "_daoFee",
          "type": "address"
        },
        {
          "internalType": "uint256",
          "name": "_periodDuration",
          "type": "uint256"
        },
        {
          "internalType": "uint256",
          "name": "_votingPeriodLength",
          "type": "uint256"
        },
        {
          "internalType": "uint256",
          "name": "_gracePeriodLength",
          "type": "uint256"
        },
        {
          "internalType": "uint256",
          "name": "_proposalDepositReward",
          "type": "uint256"
        },
        {
          "internalType": "uint256",
          "name": "_depositRate",
          "type": "uint256"
        },
        {
          "internalType": "uint256",
          "name": "_partyGoal",
          "type": "uint256"
        },
        {
          "internalType": "bytes32",
          "name": "_name",
          "type": "bytes32"
        },
        {
          "internalType": "bytes32",
          "name": "_desc",
          "type": "bytes32"
        }
      ],
      "payable": false,
      "stateMutability": "nonpayable",
      "type": "constructor"
    },
    {
      "anonymous": false,
      "inputs": [
        {
          "indexed": true,
          "internalType": "address",
          "name": "newToken",
          "type": "address"
        },
        {
          "indexed": true,
          "internalType": "address",
          "name": "minion",
          "type": "address"
        },
        {
          "indexed": false,
          "internalType": "uint256",
          "name": "depositRate",
          "type": "uint256"
        }
      ],
      "name": "AmendGovernance",
      "type": "event"
    },
    {
      "anonymous": false,
      "inputs": [
        {
          "indexed": true,
          "internalType": "uint256",
          "name": "proposalId",
          "type": "uint256"
        },
        {
          "indexed": false,
          "internalType": "address",
          "name": "applicantAddress",
          "type": "address"
        }
      ],
      "name": "CancelProposal",
      "type": "event"
    },
    {
      "anonymous": false,
      "inputs": [
        {
          "indexed": true,
          "internalType": "address",
          "name": "memberAddress",
          "type": "address"
        },
        {
          "indexed": true,
          "internalType": "uint256",
          "name": "tribute",
          "type": "uint256"
        },
        {
          "indexed": true,
          "internalType": "uint256",
          "name": "shares",
          "type": "uint256"
        }
      ],
      "name": "MakeDeposit",
      "type": "event"
    },
    {
      "anonymous": false,
      "inputs": [
        {
          "indexed": true,
          "internalType": "address",
          "name": "sender",
          "type": "address"
        },
        {
          "indexed": true,
          "internalType": "address",
          "name": "paymentToken",
          "type": "address"
        },
        {
          "indexed": true,
          "internalType": "uint256",
          "name": "payment",
          "type": "uint256"
        }
      ],
      "name": "MakePayment",
      "type": "event"
    },
    {
      "anonymous": false,
      "inputs": [
        {
          "indexed": true,
          "internalType": "uint256",
          "name": "proposalIndex",
          "type": "uint256"
        },
        {
          "indexed": true,
          "internalType": "uint256",
          "name": "proposalId",
          "type": "uint256"
        },
        {
          "indexed": false,
          "internalType": "bool",
          "name": "didPass",
          "type": "bool"
        }
      ],
      "name": "ProcessGuildKickProposal",
      "type": "event"
    },
    {
      "anonymous": false,
      "inputs": [
        {
          "indexed": true,
          "internalType": "uint256",
          "name": "proposalIndex",
          "type": "uint256"
        },
        {
          "indexed": false,
          "internalType": "bool",
          "name": "didPass",
          "type": "bool"
        }
      ],
      "name": "ProcessProposal",
      "type": "event"
    },
    {
      "anonymous": false,
      "inputs": [
        {
          "indexed": false,
          "internalType": "uint256",
          "name": "proposalIndex",
          "type": "uint256"
        }
      ],
      "name": "ProposalIndex",
      "type": "event"
    },
    {
      "anonymous": false,
      "inputs": [
        {
          "indexed": true,
          "internalType": "address",
          "name": "memberAddress",
          "type": "address"
        },
        {
          "indexed": false,
          "internalType": "uint256",
          "name": "sharesToBurn",
          "type": "uint256"
        },
        {
          "indexed": false,
          "internalType": "uint256",
          "name": "lootToBurn",
          "type": "uint256"
        }
      ],
      "name": "Ragequit",
      "type": "event"
    },
    {
      "anonymous": false,
      "inputs": [
        {
          "indexed": true,
          "internalType": "address",
          "name": "applicant",
          "type": "address"
        },
        {
          "indexed": false,
          "internalType": "uint256",
          "name": "sharesRequested",
          "type": "uint256"
        },
        {
          "indexed": false,
          "internalType": "uint256",
          "name": "lootRequested",
          "type": "uint256"
        },
        {
          "indexed": false,
          "internalType": "uint256",
          "name": "tributeOffered",
          "type": "uint256"
        },
        {
          "indexed": false,
          "internalType": "address",
          "name": "tributeToken",
          "type": "address"
        },
        {
          "indexed": false,
          "internalType": "uint256",
          "name": "paymentRequested",
          "type": "uint256"
        },
        {
          "indexed": false,
          "internalType": "address",
          "name": "paymentToken",
          "type": "address"
        },
        {
          "indexed": false,
          "internalType": "bytes32",
          "name": "details",
          "type": "bytes32"
        },
        {
          "indexed": false,
          "internalType": "bool[6]",
          "name": "flags",
          "type": "bool[6]"
        },
        {
          "indexed": false,
          "internalType": "uint256",
          "name": "proposalId",
          "type": "uint256"
        },
        {
          "indexed": true,
          "internalType": "address",
          "name": "delegateKey",
          "type": "address"
        },
        {
          "indexed": true,
          "internalType": "address",
          "name": "memberAddress",
          "type": "address"
        }
      ],
      "name": "SubmitProposal",
      "type": "event"
    },
    {
      "anonymous": false,
      "inputs": [
        {
          "indexed": false,
          "internalType": "uint256",
          "name": "proposalId",
          "type": "uint256"
        },
        {
          "indexed": true,
          "internalType": "uint256",
          "name": "proposalIndex",
          "type": "uint256"
        },
        {
          "indexed": true,
          "internalType": "address",
          "name": "delegateKey",
          "type": "address"
        },
        {
          "indexed": true,
          "internalType": "address",
          "name": "memberAddress",
          "type": "address"
        },
        {
          "indexed": false,
          "internalType": "uint8",
          "name": "uintVote",
          "type": "uint8"
        }
      ],
      "name": "SubmitVote",
      "type": "event"
    },
    {
      "anonymous": false,
      "inputs": [
        {
          "indexed": true,
          "internalType": "address[]",
          "name": "summoners",
          "type": "address[]"
        },
        {
          "indexed": false,
          "internalType": "address[]",
          "name": "tokens",
          "type": "address[]"
        },
        {
          "indexed": false,
          "internalType": "uint256",
          "name": "summoningTime",
          "type": "uint256"
        },
        {
          "indexed": false,
          "internalType": "uint256",
          "name": "periodDuration",
          "type": "uint256"
        },
        {
          "indexed": false,
          "internalType": "uint256",
          "name": "votingPeriodLength",
          "type": "uint256"
        },
        {
          "indexed": false,
          "internalType": "uint256",
          "name": "gracePeriodLength",
          "type": "uint256"
        },
        {
          "indexed": false,
          "internalType": "uint256",
          "name": "proposalDepositReward",
          "type": "uint256"
        },
        {
          "indexed": false,
          "internalType": "uint256",
          "name": "partyGoal",
          "type": "uint256"
        },
        {
          "indexed": false,
          "internalType": "uint256",
          "name": "depositRate",
          "type": "uint256"
        }
      ],
      "name": "SummonComplete",
      "type": "event"
    },
    {
      "anonymous": false,
      "inputs": [
        {
          "indexed": true,
          "internalType": "address",
          "name": "token",
          "type": "address"
        },
        {
          "indexed": false,
          "internalType": "uint256",
          "name": "amountToCollect",
          "type": "uint256"
        }
      ],
      "name": "TokensCollected",
      "type": "event"
    },
    {
      "anonymous": false,
      "inputs": [
        {
          "indexed": true,
          "internalType": "address",
          "name": "memberAddress",
          "type": "address"
        },
        {
          "indexed": false,
          "internalType": "address",
          "name": "newDelegateKey",
          "type": "address"
        }
      ],
      "name": "UpdateDelegateKey",
      "type": "event"
    },
    {
      "anonymous": false,
      "inputs": [
        {
          "indexed": true,
          "internalType": "address",
          "name": "memberAddress",
          "type": "address"
        },
        {
          "indexed": false,
          "internalType": "address",
          "name": "token",
          "type": "address"
        },
        {
          "indexed": false,
          "internalType": "uint256",
          "name": "amount",
          "type": "uint256"
        }
      ],
      "name": "Withdraw",
      "type": "event"
    },
    {
      "constant": true,
      "inputs": [],
      "name": "ESCROW",
      "outputs": [
        {
          "internalType": "address",
          "name": "",
          "type": "address"
        }
      ],
      "payable": false,
      "stateMutability": "view",
      "type": "function"
    },
    {
      "constant": true,
      "inputs": [],
      "name": "GUILD",
      "outputs": [
        {
          "internalType": "address",
          "name": "",
          "type": "address"
        }
      ],
      "payable": false,
      "stateMutability": "view",
      "type": "function"
    },
    {
      "constant": true,
      "inputs": [],
      "name": "TOTAL",
      "outputs": [
        {
          "internalType": "address",
          "name": "",
          "type": "address"
        }
      ],
      "payable": false,
      "stateMutability": "view",
      "type": "function"
    },
    {
      "constant": true,
      "inputs": [
        {
          "internalType": "uint256",
          "name": "",
          "type": "uint256"
        }
      ],
      "name": "approvedTokens",
      "outputs": [
        {
          "internalType": "address",
          "name": "",
          "type": "address"
        }
      ],
      "payable": false,
      "stateMutability": "view",
      "type": "function"
    },
    {
      "constant": true,
      "inputs": [],
      "name": "daoFee",
      "outputs": [
        {
          "internalType": "address",
          "name": "",
          "type": "address"
        }
      ],
      "payable": false,
      "stateMutability": "view",
      "type": "function"
    },
    {
      "constant": true,
      "inputs": [],
      "name": "depositRate",
      "outputs": [
        {
          "internalType": "uint256",
          "name": "",
          "type": "uint256"
        }
      ],
      "payable": false,
      "stateMutability": "view",
      "type": "function"
    },
    {
      "constant": true,
      "inputs": [],
      "name": "depositToken",
      "outputs": [
        {
          "internalType": "address",
          "name": "",
          "type": "address"
        }
      ],
      "payable": false,
      "stateMutability": "view",
      "type": "function"
    },
    {
      "constant": true,
      "inputs": [],
      "name": "desc",
      "outputs": [
        {
          "internalType": "bytes32",
          "name": "",
          "type": "bytes32"
        }
      ],
      "payable": false,
      "stateMutability": "view",
      "type": "function"
    },
    {
      "constant": true,
      "inputs": [],
      "name": "gracePeriodLength",
      "outputs": [
        {
          "internalType": "uint256",
          "name": "",
          "type": "uint256"
        }
      ],
      "payable": false,
      "stateMutability": "view",
      "type": "function"
    },
    {
      "constant": true,
      "inputs": [],
      "name": "idleToken",
      "outputs": [
        {
          "internalType": "contract IIdleToken",
          "name": "",
          "type": "address"
        }
      ],
      "payable": false,
      "stateMutability": "view",
      "type": "function"
    },
    {
      "constant": true,
      "inputs": [
        {
          "internalType": "address",
          "name": "",
          "type": "address"
        }
      ],
      "name": "memberAddressByDelegateKey",
      "outputs": [
        {
          "internalType": "address",
          "name": "",
          "type": "address"
        }
      ],
      "payable": false,
      "stateMutability": "view",
      "type": "function"
    },
    {
      "constant": true,
      "inputs": [
        {
          "internalType": "uint256",
          "name": "",
          "type": "uint256"
        }
      ],
      "name": "memberList",
      "outputs": [
        {
          "internalType": "address",
          "name": "",
          "type": "address"
        }
      ],
      "payable": false,
      "stateMutability": "view",
      "type": "function"
    },
    {
      "constant": true,
      "inputs": [
        {
          "internalType": "address",
          "name": "",
          "type": "address"
        }
      ],
      "name": "members",
      "outputs": [
        {
          "internalType": "address",
          "name": "delegateKey",
          "type": "address"
        },
        {
          "internalType": "uint256",
          "name": "shares",
          "type": "uint256"
        },
        {
          "internalType": "uint256",
          "name": "loot",
          "type": "uint256"
        },
        {
          "internalType": "uint256",
          "name": "iTokenAmts",
          "type": "uint256"
        },
        {
          "internalType": "uint256",
          "name": "iTokenRedemptions",
          "type": "uint256"
        },
        {
          "internalType": "uint256",
          "name": "highestIndexYesVote",
          "type": "uint256"
        },
        {
          "internalType": "bool",
          "name": "jailed",
          "type": "bool"
        },
        {
          "internalType": "bool",
          "name": "exists",
          "type": "bool"
        }
      ],
      "payable": false,
      "stateMutability": "view",
      "type": "function"
    },
    {
      "constant": true,
      "inputs": [],
      "name": "minion",
      "outputs": [
        {
          "internalType": "address",
          "name": "",
          "type": "address"
        }
      ],
      "payable": false,
      "stateMutability": "view",
      "type": "function"
    },
    {
      "constant": true,
      "inputs": [],
      "name": "name",
      "outputs": [
        {
          "internalType": "bytes32",
          "name": "",
          "type": "bytes32"
        }
      ],
      "payable": false,
      "stateMutability": "view",
      "type": "function"
    },
    {
      "constant": true,
      "inputs": [],
      "name": "partyGoal",
      "outputs": [
        {
          "internalType": "uint256",
          "name": "",
          "type": "uint256"
        }
      ],
      "payable": false,
      "stateMutability": "view",
      "type": "function"
    },
    {
      "constant": true,
      "inputs": [],
      "name": "periodDuration",
      "outputs": [
        {
          "internalType": "uint256",
          "name": "",
          "type": "uint256"
        }
      ],
      "payable": false,
      "stateMutability": "view",
      "type": "function"
    },
    {
      "constant": true,
      "inputs": [],
      "name": "proposalCount",
      "outputs": [
        {
          "internalType": "uint256",
          "name": "",
          "type": "uint256"
        }
      ],
      "payable": false,
      "stateMutability": "view",
      "type": "function"
    },
    {
      "constant": true,
      "inputs": [],
      "name": "proposalDepositReward",
      "outputs": [
        {
          "internalType": "uint256",
          "name": "",
          "type": "uint256"
        }
      ],
      "payable": false,
      "stateMutability": "view",
      "type": "function"
    },
    {
      "constant": true,
      "inputs": [
        {
          "internalType": "uint256",
          "name": "",
          "type": "uint256"
        }
      ],
      "name": "proposalQueue",
      "outputs": [
        {
          "internalType": "uint256",
          "name": "",
          "type": "uint256"
        }
      ],
      "payable": false,
      "stateMutability": "view",
      "type": "function"
    },
    {
      "constant": true,
      "inputs": [
        {
          "internalType": "uint256",
          "name": "",
          "type": "uint256"
        }
      ],
      "name": "proposals",
      "outputs": [
        {
          "internalType": "address",
          "name": "applicant",
          "type": "address"
        },
        {
          "internalType": "address",
          "name": "proposer",
          "type": "address"
        },
        {
          "internalType": "address",
          "name": "sponsor",
          "type": "address"
        },
        {
          "internalType": "uint256",
          "name": "sharesRequested",
          "type": "uint256"
        },
        {
          "internalType": "uint256",
          "name": "lootRequested",
          "type": "uint256"
        },
        {
          "internalType": "uint256",
          "name": "tributeOffered",
          "type": "uint256"
        },
        {
          "internalType": "address",
          "name": "tributeToken",
          "type": "address"
        },
        {
          "internalType": "uint256",
          "name": "paymentRequested",
          "type": "uint256"
        },
        {
          "internalType": "address",
          "name": "paymentToken",
          "type": "address"
        },
        {
          "internalType": "uint256",
          "name": "startingPeriod",
          "type": "uint256"
        },
        {
          "internalType": "uint256",
          "name": "yesVotes",
          "type": "uint256"
        },
        {
          "internalType": "uint256",
          "name": "noVotes",
          "type": "uint256"
        },
        {
          "internalType": "bytes32",
          "name": "details",
          "type": "bytes32"
        },
        {
          "internalType": "uint256",
          "name": "maxTotalSharesAndLootAtYesVote",
          "type": "uint256"
        }
      ],
      "payable": false,
      "stateMutability": "view",
      "type": "function"
    },
    {
      "constant": true,
      "inputs": [
        {
          "internalType": "address",
          "name": "",
          "type": "address"
        }
      ],
      "name": "proposedToKick",
      "outputs": [
        {
          "internalType": "bool",
          "name": "",
          "type": "bool"
        }
      ],
      "payable": false,
      "stateMutability": "view",
      "type": "function"
    },
    {
      "constant": true,
      "inputs": [],
      "name": "summoningTime",
      "outputs": [
        {
          "internalType": "uint256",
          "name": "",
          "type": "uint256"
        }
      ],
      "payable": false,
      "stateMutability": "view",
      "type": "function"
    },
    {
      "constant": true,
      "inputs": [
        {
          "internalType": "address",
          "name": "",
          "type": "address"
        }
      ],
      "name": "tokenWhitelist",
      "outputs": [
        {
          "internalType": "bool",
          "name": "",
          "type": "bool"
        }
      ],
      "payable": false,
      "stateMutability": "view",
      "type": "function"
    },
    {
      "constant": true,
      "inputs": [],
      "name": "totalGuildBankTokens",
      "outputs": [
        {
          "internalType": "uint256",
          "name": "",
          "type": "uint256"
        }
      ],
      "payable": false,
      "stateMutability": "view",
      "type": "function"
    },
    {
      "constant": true,
      "inputs": [],
      "name": "totalLoot",
      "outputs": [
        {
          "internalType": "uint256",
          "name": "",
          "type": "uint256"
        }
      ],
      "payable": false,
      "stateMutability": "view",
      "type": "function"
    },
    {
      "constant": true,
      "inputs": [],
      "name": "totalShares",
      "outputs": [
        {
          "internalType": "uint256",
          "name": "",
          "type": "uint256"
        }
      ],
      "payable": false,
      "stateMutability": "view",
      "type": "function"
    },
    {
      "constant": true,
      "inputs": [
        {
          "internalType": "address",
          "name": "",
          "type": "address"
        },
        {
          "internalType": "address",
          "name": "",
          "type": "address"
        }
      ],
      "name": "userTokenBalances",
      "outputs": [
        {
          "internalType": "uint256",
          "name": "",
          "type": "uint256"
        }
      ],
      "payable": false,
      "stateMutability": "view",
      "type": "function"
    },
    {
      "constant": true,
      "inputs": [],
      "name": "votingPeriodLength",
      "outputs": [
        {
          "internalType": "uint256",
          "name": "",
          "type": "uint256"
        }
      ],
      "payable": false,
      "stateMutability": "view",
      "type": "function"
    },
    {
      "constant": false,
      "inputs": [
        {
          "internalType": "address",
          "name": "token",
          "type": "address"
        },
        {
          "internalType": "uint256",
          "name": "tribute",
          "type": "uint256"
        }
      ],
      "name": "makeDeposit",
      "outputs": [],
      "payable": false,
      "stateMutability": "nonpayable",
      "type": "function"
    },
    {
      "constant": false,
      "inputs": [
        {
          "internalType": "address",
          "name": "_minion",
          "type": "address"
        }
      ],
      "name": "setMinion",
      "outputs": [],
      "payable": false,
      "stateMutability": "nonpayable",
      "type": "function"
    },
    {
      "constant": false,
      "inputs": [
        {
          "internalType": "address",
          "name": "_newToken",
          "type": "address"
        },
        {
          "internalType": "address",
          "name": "_idleToken",
          "type": "address"
        },
        {
          "internalType": "address",
          "name": "_minion",
          "type": "address"
        },
        {
          "internalType": "uint256",
          "name": "_partyGoal",
          "type": "uint256"
        },
        {
          "internalType": "uint256",
          "name": "_depositRate",
          "type": "uint256"
        }
      ],
      "name": "amendGovernance",
      "outputs": [],
      "payable": false,
      "stateMutability": "nonpayable",
      "type": "function"
    },
    {
      "constant": false,
      "inputs": [
        {
          "internalType": "address",
          "name": "applicant",
          "type": "address"
        },
        {
          "internalType": "uint256",
          "name": "tributeOffered",
          "type": "uint256"
        },
        {
          "internalType": "uint256",
          "name": "sharesRequested",
          "type": "uint256"
        },
        {
          "internalType": "uint256",
          "name": "lootRequested",
          "type": "uint256"
        },
        {
          "internalType": "uint256",
          "name": "paymentRequested",
          "type": "uint256"
        },
        {
          "internalType": "uint256",
          "name": "flagNumber",
          "type": "uint256"
        },
        {
          "internalType": "address",
          "name": "tributeToken",
          "type": "address"
        },
        {
          "internalType": "address",
          "name": "paymentToken",
          "type": "address"
        },
        {
          "internalType": "bytes32",
          "name": "details",
          "type": "bytes32"
        }
      ],
      "name": "submitProposal",
      "outputs": [
        {
          "internalType": "uint256",
          "name": "proposalId",
          "type": "uint256"
        }
      ],
      "payable": false,
      "stateMutability": "nonpayable",
      "type": "function"
    },
    {
      "constant": false,
      "inputs": [
        {
          "internalType": "uint256",
          "name": "proposalIndex",
          "type": "uint256"
        },
        {
          "internalType": "uint8",
          "name": "uintVote",
          "type": "uint8"
        }
      ],
      "name": "submitVote",
      "outputs": [],
      "payable": false,
      "stateMutability": "nonpayable",
      "type": "function"
    },
    {
      "constant": false,
      "inputs": [
        {
          "internalType": "uint256",
          "name": "proposalIndex",
          "type": "uint256"
        }
      ],
      "name": "processProposal",
      "outputs": [],
      "payable": false,
      "stateMutability": "nonpayable",
      "type": "function"
    },
    {
      "constant": false,
      "inputs": [
        {
          "internalType": "uint256",
          "name": "proposalIndex",
          "type": "uint256"
        }
      ],
      "name": "processGuildKickProposal",
      "outputs": [],
      "payable": false,
      "stateMutability": "nonpayable",
      "type": "function"
    },
    {
      "constant": false,
      "inputs": [
        {
          "internalType": "uint256",
          "name": "sharesToBurn",
          "type": "uint256"
        },
        {
          "internalType": "uint256",
          "name": "lootToBurn",
          "type": "uint256"
        }
      ],
      "name": "ragequit",
      "outputs": [],
      "payable": false,
      "stateMutability": "nonpayable",
      "type": "function"
    },
    {
      "constant": false,
      "inputs": [
        {
          "internalType": "address",
          "name": "memberToKick",
          "type": "address"
        }
      ],
      "name": "ragekick",
      "outputs": [],
      "payable": false,
      "stateMutability": "nonpayable",
      "type": "function"
    },
    {
      "constant": false,
      "inputs": [
        {
          "internalType": "address",
          "name": "token",
          "type": "address"
        },
        {
          "internalType": "uint256",
          "name": "amount",
          "type": "uint256"
        }
      ],
      "name": "withdrawBalance",
      "outputs": [],
      "payable": false,
      "stateMutability": "nonpayable",
      "type": "function"
    },
    {
      "constant": false,
      "inputs": [
        {
          "internalType": "address",
          "name": "memberAddress",
          "type": "address"
        }
      ],
      "name": "withdrawInterest",
      "outputs": [],
      "payable": false,
      "stateMutability": "nonpayable",
      "type": "function"
    },
    {
      "constant": false,
      "inputs": [
        {
          "internalType": "address[]",
          "name": "tokens",
          "type": "address[]"
        },
        {
          "internalType": "uint256[]",
          "name": "amounts",
          "type": "uint256[]"
        },
        {
          "internalType": "bool",
          "name": "max",
          "type": "bool"
        }
      ],
      "name": "withdrawBalances",
      "outputs": [],
      "payable": false,
      "stateMutability": "nonpayable",
      "type": "function"
    },
    {
      "constant": false,
      "inputs": [],
      "name": "withdrawFees",
      "outputs": [],
      "payable": false,
      "stateMutability": "nonpayable",
      "type": "function"
    },
    {
      "constant": false,
      "inputs": [
        {
          "internalType": "address",
          "name": "token",
          "type": "address"
        }
      ],
      "name": "collectTokens",
      "outputs": [],
      "payable": false,
      "stateMutability": "nonpayable",
      "type": "function"
    },
    {
      "constant": false,
      "inputs": [
        {
          "internalType": "uint256",
          "name": "proposalId",
          "type": "uint256"
        }
      ],
      "name": "cancelProposal",
      "outputs": [],
      "payable": false,
      "stateMutability": "nonpayable",
      "type": "function"
    },
    {
      "constant": false,
      "inputs": [
        {
          "internalType": "address",
          "name": "newDelegateKey",
          "type": "address"
        }
      ],
      "name": "updateDelegateKey",
      "outputs": [],
      "payable": false,
      "stateMutability": "nonpayable",
      "type": "function"
    },
    {
      "constant": true,
      "inputs": [
        {
          "internalType": "uint256",
          "name": "highestIndexYesVote",
          "type": "uint256"
        }
      ],
      "name": "canRagequit",
      "outputs": [
        {
          "internalType": "bool",
          "name": "",
          "type": "bool"
        }
      ],
      "payable": false,
      "stateMutability": "view",
      "type": "function"
    },
    {
      "constant": true,
      "inputs": [
        {
          "internalType": "uint256",
          "name": "startingPeriod",
          "type": "uint256"
        }
      ],
      "name": "hasVotingPeriodExpired",
      "outputs": [
        {
          "internalType": "bool",
          "name": "",
          "type": "bool"
        }
      ],
      "payable": false,
      "stateMutability": "view",
      "type": "function"
    },
    {
      "constant": true,
      "inputs": [],
      "name": "getCurrentPeriod",
      "outputs": [
        {
          "internalType": "uint256",
          "name": "",
          "type": "uint256"
        }
      ],
      "payable": false,
      "stateMutability": "view",
      "type": "function"
    },
    {
      "constant": true,
      "inputs": [],
      "name": "getProposalQueueLength",
      "outputs": [
        {
          "internalType": "uint256",
          "name": "",
          "type": "uint256"
        }
      ],
      "payable": false,
      "stateMutability": "view",
      "type": "function"
    },
    {
      "constant": true,
      "inputs": [
        {
          "internalType": "uint256",
          "name": "proposalId",
          "type": "uint256"
        }
      ],
      "name": "getProposalFlags",
      "outputs": [
        {
          "internalType": "bool[6]",
          "name": "",
          "type": "bool[6]"
        }
      ],
      "payable": false,
      "stateMutability": "view",
      "type": "function"
    },
    {
      "constant": true,
      "inputs": [
        {
          "internalType": "address",
          "name": "user",
          "type": "address"
        },
        {
          "internalType": "address",
          "name": "token",
          "type": "address"
        }
      ],
      "name": "getUserTokenBalance",
      "outputs": [
        {
          "internalType": "uint256",
          "name": "",
          "type": "uint256"
        }
      ],
      "payable": false,
      "stateMutability": "view",
      "type": "function"
    },
    {
      "constant": true,
      "inputs": [
        {
          "internalType": "address",
          "name": "memberAddress",
          "type": "address"
        },
        {
          "internalType": "uint256",
          "name": "proposalIndex",
          "type": "uint256"
        }
      ],
      "name": "getMemberProposalVote",
      "outputs": [
        {
          "internalType": "enum Party.Vote",
          "name": "",
          "type": "uint8"
        }
      ],
      "payable": false,
      "stateMutability": "view",
      "type": "function"
    },
    {
      "constant": true,
      "inputs": [],
      "name": "getTokenCount",
      "outputs": [
        {
          "internalType": "uint256",
          "name": "",
          "type": "uint256"
        }
      ],
      "payable": false,
      "stateMutability": "view",
      "type": "function"
    },
    {
      "constant": false,
      "inputs": [
        {
          "internalType": "address",
          "name": "memberAddress",
          "type": "address"
        }
      ],
      "name": "getUserEarnings",
      "outputs": [
        {
          "internalType": "uint256",
          "name": "",
          "type": "uint256"
        }
      ],
      "payable": false,
      "stateMutability": "nonpayable",
      "type": "function"
    },
    {
      "constant": false,
      "inputs": [],
      "name": "getGuildEarnings",
      "outputs": [
        {
          "internalType": "uint256",
          "name": "",
          "type": "uint256"
        }
      ],
      "payable": false,
      "stateMutability": "nonpayable",
      "type": "function"
    }
  ],
  "bytecode": "0x60806040523480156200001157600080fd5b5060405162005d4138038062005d4183398181016040526101608110156200003857600080fd5b81019080805160405193929190846401000000008211156200005957600080fd5b9083019060208201858111156200006f57600080fd5b82518660208202830111640100000000821117156200008d57600080fd5b82525081516020918201928201910280838360005b83811015620000bc578181015183820152602001620000a2565b5050505090500160405260200180516040519392919084640100000000821115620000e657600080fd5b908301906020820185811115620000fc57600080fd5b82518660208202830111640100000000821117156200011a57600080fd5b82525081516020918201928201910280838360005b83811015620001495781810151838201526020016200012f565b505050509190910160409081526020830151908301516060840151608085015160a086015160c087015160e0880151610100890151610120909901516001600055969a50949850929691955093919291876200020657604080517f08c379a000000000000000000000000000000000000000000000000000000000815260206004820152601660248201527f5f706572696f644475726174696f6e207a65726f656400000000000000000000604482015290519081900360640190fd5b600087116200027657604080517f08c379a000000000000000000000000000000000000000000000000000000000815260206004820152601a60248201527f5f766f74696e67506572696f644c656e677468207a65726f6564000000000000604482015290519081900360640190fd5b6ec097ce7bc90715b34b9f1000000000871115620002f557604080517f08c379a000000000000000000000000000000000000000000000000000000000815260206004820152601960248201527f5f766f74696e67506572696f644c656e677468206d6178656400000000000000604482015290519081900360640190fd5b6ec097ce7bc90715b34b9f10000000008611156200037457604080517f08c379a000000000000000000000000000000000000000000000000000000000815260206004820152601860248201527f5f6772616365506572696f644c656e677468206d617865640000000000000000604482015290519081900360640190fd5b60008a5111620003e557604080517f08c379a000000000000000000000000000000000000000000000000000000000815260206004820152600a60248201527f6e65656420746f6b656e00000000000000000000000000000000000000000000604482015290519081900360640190fd5b89600081518110620003f357fe5b6020026020010151600a60006101000a815481600160a060020a030219169083600160a060020a031602179055508a60405180828051906020019060200280838360005b838110156200045157818101518382015260200162000437565b5050505090500191505060405180910390207f2a8214e48a490ec27a213653fe2c4d1efbcdc572f82d1d3d3d040665024e50aa8b428b8b8b8b8b8b604051808060200189815260200188815260200187815260200186815260200185815260200184815260200183815260200182810382528a818151815260200191508051906020019060200280838360005b83811015620004f8578181015183820152602001620004de565b50505050905001995050505050505050505060405180910390a260005b8a518110156200066b57601460008c83815181106200053057fe5b602090810291909101810151600160a060020a031682528101919091526040016000205460ff1615620005c457604080517f08c379a000000000000000000000000000000000000000000000000000000000815260206004820152601060248201527f746f6b656e206475706c69636174656400000000000000000000000000000000604482015290519081900360640190fd5b6001601460008d8481518110620005d757fe5b6020026020010151600160a060020a0316600160a060020a0316815260200190815260200160002060006101000a81548160ff02191690831515021790555060158b82815181106200062557fe5b6020908102919091018101518254600180820185556000948552929093209092018054600160a060020a031916600160a060020a03909316929092179091550162000515565b5060098054600160a060020a031916600160a060020a038b1617905560028890556003879055600486905560058590556006849055600883905542600755600c829055600d819055600e8054610100810460ff1660ff19909116179055620006dc8b64010000000062000724810204565b620007136015600181548110620006ef57fe5b600091825260209091200154600160a060020a03166401000000006200098e810204565b505050505050505050505062000a26565b600260005414156200079757604080517f08c379a000000000000000000000000000000000000000000000000000000000815260206004820152600e60248201527f7265656e7472616e742063616c6c000000000000000000000000000000000000604482015290519081900360640190fd5b600260009081555b81518110156200098557604051806101000160405280838381518110620007c257fe5b6020026020010151600160a060020a03168152602001600081526020016000815260200160008152602001600081526020016000815260200160001515815260200160001515815250601760008484815181106200081c57fe5b602090810291909101810151600160a060020a03908116835282820193909352604091820160002084518154600160a060020a031916941693909317835583015160018301558201516002820155606082015160038201556080820151600482015560a0820151600582015560c08201516006909101805460e09093015160ff199093169115159190911761ff001916610100921515929092029190911790558151829082908110620008cb57fe5b602002602001015160196000848481518110620008e457fe5b6020026020010151600160a060020a0316600160a060020a0316815260200190815260200160002060006101000a815481600160a060020a030219169083600160a060020a0316021790555060188282815181106200093f57fe5b6020908102919091018101518254600180820185556000948552929093209092018054600160a060020a031916600160a060020a0390931692909217909155016200079f565b50506001600055565b6002600054141562000a0157604080517f08c379a000000000000000000000000000000000000000000000000000000000815260206004820152600e60248201527f7265656e7472616e742063616c6c000000000000000000000000000000000000604482015290519081900360640190fd5b60018054600160a060020a031916600160a060020a0392909216919091178155600055565b61530b8062000a366000396000f3fe608060405234801561001057600080fd5b50600436106103615760003560e060020a90048063797daf70116101d7578063b470aade11610108578063e0f2cb93116100a6578063e681c4aa11610080578063e681c4aa14610ae4578063f42b880914610aec578063f5d54c7714610b12578063ff12df2d14610b1a57610361565b8063e0f2cb9314610a84578063e1a0e3fa14610aaa578063e63bc62d14610ac757610361565b8063d2de5527116100e2578063d2de552714610a31578063da35c66414610a39578063dfdd369e14610a41578063e0a8f6f514610a6757610361565b8063b470aade146109f5578063bf5d0a00146109fd578063c89039c514610a2957610361565b80639d1722cb11610175578063a43af8bc1161014f578063a43af8bc1461091b578063af45f3221461095d578063b2643aab14610983578063b307fc6d146109d857610361565b80639d1722cb146108ee578063a0dcf9da146108f6578063a3dc3800146108fe57610361565b80638340bbce116101b15780638340bbce1461089b5780638c38507b146108a35780639425a476146108ab57806399653fbe146108c857610361565b8063797daf70146108835780637d5b6c721461088b5780637e74a1ed1461089357610361565b80633a98ef39116102b157806355f150f11161024f57806363858f2d1161022957806363858f2d1461081f57806373f8fd4b14610827578063753d75631461085557806378a895671461087b57610361565b806355f150f1146107e957806359999b41146107f1578063635e99aa1461081757610361565b8063402c17941161028b578063402c1794146106645780634482394b1461068a57806345f2d105146107b3578063476343ee146107e157610361565b80633a98ef39146106055780633b214a741461060d5780633fc24bba1461062a57610361565b806315eb349e1161031e57806327efc086116102f857806327efc086146105e55780632957b839146105ed5780632b77abdf146105f55780632dd60c5e146105fd57610361565b806315eb349e146105635780631dafede0146105865780632582bf2a146105bf57610361565b8063013cf08b14610366578063044a0ca81461044e57806306fdde031461049e578063086146d2146104b857806308ae4b0c146104c05780630cf20cc914610535575b600080fd5b6103836004803603602081101561037c57600080fd5b5035610b78565b604051808f600160a060020a0316600160a060020a031681526020018e600160a060020a0316600160a060020a031681526020018d600160a060020a0316600160a060020a031681526020018c81526020018b81526020018a815260200189600160a060020a0316600160a060020a0316815260200188815260200187600160a060020a0316600160a060020a031681526020018681526020018581526020018481526020018381526020018281526020019e50505050505050505050505050505060405180910390f35b61047a6004803603604081101561046457600080fd5b50600160a060020a038135169060200135610bf7565b6040518082600281111561048a57fe5b60ff16815260200191505060405180910390f35b6104a6610d18565b60408051918252519081900360200190f35b6104a6610d1e565b6104e6600480360360208110156104d657600080fd5b5035600160a060020a0316610d4d565b60408051600160a060020a0390991689526020890197909752878701959095526060870193909352608086019190915260a0850152151560c0840152151560e083015251908190036101000190f35b6105616004803603604081101561054b57600080fd5b50600160a060020a038135169060200135610da0565b005b6105616004803603604081101561057957600080fd5b5080359060200135610e01565b6105a36004803603602081101561059c57600080fd5b5035610ec3565b60408051600160a060020a039092168252519081900360200190f35b610561600480360360208110156105d557600080fd5b5035600160a060020a0316610eea565b6105a36111ab565b6105a36111b1565b6105a36111c0565b6105a36111cf565b6104a66111de565b6104a66004803603602081101561062357600080fd5b50356111e4565b6106506004803603602081101561064057600080fd5b5035600160a060020a0316611202565b604080519115158252519081900360200190f35b6105a36004803603602081101561067a57600080fd5b5035600160a060020a0316611217565b610561600480360360608110156106a057600080fd5b8101906020810181356401000000008111156106bb57600080fd5b8201836020820111156106cd57600080fd5b803590602001918460208302840111640100000000831117156106ef57600080fd5b919080806020026020016040519081016040528093929190818152602001838360200280828437600092019190915250929594936020810193503591505064010000000081111561073f57600080fd5b82018360208201111561075157600080fd5b8035906020019184602083028401116401000000008311171561077357600080fd5b9190808060200260200160405190810160405280939291908181526020018383602002808284376000920191909152509295505050503515159050611232565b6104a6600480360360408110156107c957600080fd5b50600160a060020a038135811691602001351661136a565b610561611387565b6104a6611574565b6105616004803603602081101561080757600080fd5b5035600160a060020a031661157a565b6104a6611791565b6104a6611797565b6104a66004803603604081101561083d57600080fd5b50600160a060020a038135811691602001351661179d565b6106506004803603602081101561086b57600080fd5b5035600160a060020a03166117c8565b6104a66117dd565b6104a66117e3565b6104a66117e9565b6104a66117ef565b6104a66117f5565b6104a66117fb565b610650600480360360208110156108c157600080fd5b503561198d565b610561600480360360408110156108de57600080fd5b508035906020013560ff166119b4565b6104a6611e97565b6104a6611e9d565b6106506004803603602081101561091457600080fd5b5035611ea3565b610561600480360360a081101561093157600080fd5b50600160a060020a03813581169160208101358216916040820135169060608101359060800135611f55565b6105616004803603602081101561097357600080fd5b5035600160a060020a0316612156565b6109a06004803603602081101561099957600080fd5b50356124d7565b604051808260c080838360005b838110156109c55781810151838201526020016109ad565b5050505090500191505060405180910390f35b6105a3600480360360208110156109ee57600080fd5b5035612541565b6104a661254e565b61056160048036036040811015610a1357600080fd5b50600160a060020a038135169060200135612554565b6105a3612887565b6104a6612896565b6104a661289c565b61056160048036036020811015610a5757600080fd5b5035600160a060020a03166128a2565b61056160048036036020811015610a7d57600080fd5b5035612a20565b61056160048036036020811015610a9a57600080fd5b5035600160a060020a0316612c10565b61056160048036036020811015610ac057600080fd5b5035612cfe565b61056160048036036020811015610add57600080fd5b5035612ef5565b6105a36135f9565b6104a660048036036020811015610b0257600080fd5b5035600160a060020a03166135ff565b6105a3613762565b6104a66004803603610120811015610b3157600080fd5b50600160a060020a03813581169160208101359160408201359160608101359160808201359160a08101359160c082013581169160e0810135909116906101000135613768565b601a60205260009081526040902080546001820154600283015460038401546004850154600586015460068701546007880154600889015460098a0154600a8b0154600b8c0154600d8d0154600e909d0154600160a060020a039c8d169d9b8d169c9a8b169b999a98999798968716979596909416949293919290918e565b600160a060020a038216600090815260176020526040812060060154610100900460ff16610c6f576040805160e560020a62461bcd02815260206004820152600e60248201527f6e6f2073756368206d656d626572000000000000000000000000000000000000604482015290519081900360640190fd5b601b548210610cc8576040805160e560020a62461bcd02815260206004820152600a60248201527f756e70726f706f73656400000000000000000000000000000000000000000000604482015290519081900360640190fd5b601a6000601b8481548110610cd957fe5b600091825260208083209091015483528281019390935260409182018120600160a060020a0387168252600f0190925290205460ff1690505b92915050565b600c5481565b6000610d47600254610d3b60075442613c4290919063ffffffff16565b9063ffffffff613c5716565b90505b90565b6017602052600090815260409020805460018201546002830154600384015460048501546005860154600690960154600160a060020a039095169593949293919290919060ff8082169161010090041688565b60026000541415610de9576040805160e560020a62461bcd02815260206004820152600e6024820152600080516020615135833981519152604482015290519081900360640190fd5b6002600055610df88282613c79565b50506001600055565b60026000541415610e4a576040805160e560020a62461bcd02815260206004820152600e6024820152600080516020615135833981519152604482015290519081900360640190fd5b60026000818155338152601760205260408120918201546001909201549091610e79919063ffffffff613e2e16565b11610eb85760405160e560020a62461bcd02815260040180806020018281038252602581526020018061526d6025913960400191505060405180910390fd5b610df8338383613e47565b60158181548110610ed057fe5b600091825260209091200154600160a060020a0316905081565b60026000541415610f33576040805160e560020a62461bcd02815260206004820152600e6024820152600080516020615135833981519152604482015290519081900360640190fd5b60026000818155338152601760205260408120918201546001909201549091610f62919063ffffffff613e2e16565b11610fb7576040805160e560020a62461bcd02815260206004820152601960248201527f6f6e6c79206d656d626572732063616e20726167657175697400000000000000604482015290519081900360640190fd5b600160a060020a038116611015576040805160e560020a62461bcd02815260206004820152601a60248201527f6e657744656c65676174654b65792063616e6e6f742062652030000000000000604482015290519081900360640190fd5b600160a060020a038116331461111057600160a060020a038116600090815260176020526040902060060154610100900460ff16156110885760405160e560020a62461bcd0281526004018080602001828103825260218152602001806152006021913960400191505060405180910390fd5b600160a060020a038181166000908152601960209081526040808320549093168252601790522060060154610100900460ff1615611110576040805160e560020a62461bcd02815260206004820152601e60248201527f63616e6e6f74206f76657277726974652064656c6567617465206b6579730000604482015290519081900360640190fd5b3360008181526017602090815260408083208054600160a060020a03908116855260198452828520805473ffffffffffffffffffffffffffffffffffffffff1990811690915590871680865294839020805482168717905581541684178155815193845290519093927fde7b64a369e10562cc2e71f0f1f944eaf144b75fead6ecb51fac9c4dd693488592908290030190a250506001600055565b61babe81565b600954600160a060020a031681565b600b54600160a060020a031681565b600154600160a060020a031681565b60105481565b601b81815481106111f157fe5b600091825260209091200154905081565b60166020526000908152604090205460ff1681565b601960205260009081526040902054600160a060020a031681565b6002600054141561127b576040805160e560020a62461bcd02815260206004820152600e6024820152600080516020615135833981519152604482015290519081900360640190fd5b600260005581518351146112c35760405160e560020a62461bcd0281526004018080602001828103825260228152602001806151de6022913960400191505060405180910390fd5b60005b835181101561135f5760008382815181106112dd57fe5b60200260200101519050821561133957336000908152601360205260408120865190919087908590811061130d57fe5b6020026020010151600160a060020a0316600160a060020a031681526020019081526020016000205490505b61135685838151811061134857fe5b602002602001015182613c79565b506001016112c6565b505060016000555050565b601360209081526000928352604080842090915290825290205481565b60006113916117fb565b905060006113b76113aa6064601463ffffffff613c5716565b839063ffffffff6141b016565b90506000600160009054906101000a9004600160a060020a0316600160a060020a0316637ff9b5966040518163ffffffff1660e060020a02815260040160206040518083038186803b15801561140c57600080fd5b505afa158015611420573d6000803e3d6000fd5b505050506040513d602081101561143657600080fd5b50519050600061144c838363ffffffff613c5716565b9050670de0b6b3a764000081116114ad576040805160e560020a62461bcd02815260206004820152601b60248201527f6e6f7420656e6f756768206665657320746f2077697468647261770000000000604482015290519081900360640190fd5b600154600954604080517fa9059cbb000000000000000000000000000000000000000000000000000000008152600160a060020a039283166004820152602481018590529051919092169163a9059cbb9160448083019260209291908290030181600087803b15801561151f57600080fd5b505af1158015611533573d6000803e3d6000fd5b505050506040513d602081101561154957600080fd5b505161155457600080fd5b60015461156e9061dead90600160a060020a0316836141d7565b50505050565b600d5481565b600160a060020a03811660008181527f8009e2172d1c244c56732ebf9aad2646372ece2a262cefadb68df6dfdff6ce9b602090815260408083205481517f70a0823100000000000000000000000000000000000000000000000000000000815230600482015291519394909390926370a082319260248082019391829003018186803b15801561160957600080fd5b505afa15801561161d573d6000803e3d6000fd5b505050506040513d602081101561163357600080fd5b50510390508061168d576040805160e560020a62461bcd02815260206004820152600960248201527f6e6f20746f6b656e730000000000000000000000000000000000000000000000604482015290519081900360640190fd5b600160a060020a03821660009081526014602052604090205460ff166116fd576040805160e560020a62461bcd02815260206004820152600f60248201527f6e6f742077686974656c69737465640000000000000000000000000000000000604482015290519081900360640190fd5b600160a060020a0382166000908152600080516020615176833981519152602052604090205415801561173257506064601254105b15611741576012805460010190555b61174e61dead8383614237565b604080518281529051600160a060020a038416917f9381e53ffdc9733a6783a6f8665be3f89c231bb81a6771996ed553b4e75c0fe3919081900360200190a25050565b60115481565b60045481565b600160a060020a03918216600090815260136020908152604080832093909416825291909152205490565b60146020526000908152604090205460ff1681565b60155490565b601b5490565b60075481565b60065481565b60035481565b6001546000903090829061181b9061dead90600160a060020a031661179d565b600154604080517f0df94ef2000000000000000000000000000000000000000000000000000000008152600160a060020a03868116600483015291519394506000936118d293670de0b6b3a764000093610d3b93911691630df94ef29160248082019260209290919082900301818a87803b15801561189957600080fd5b505af11580156118ad573d6000803e3d6000fd5b505050506040513d60208110156118c357600080fd5b5051859063ffffffff6141b016565b9050600061196f670de0b6b3a7640000610d3b600160009054906101000a9004600160a060020a0316600160a060020a0316637ff9b5966040518163ffffffff1660e060020a02815260040160206040518083038186803b15801561193657600080fd5b505afa15801561194a573d6000803e3d6000fd5b505050506040513d602081101561196057600080fd5b5051869063ffffffff6141b016565b90506000611983828463ffffffff613c4216565b9550505050505090565b60006119a460035483613e2e90919063ffffffff16565b6119ac610d1e565b101592915050565b600260005414156119fd576040805160e560020a62461bcd02815260206004820152600e6024820152600080516020615135833981519152604482015290519081900360640190fd5b6002600090815533815260196020908152604080832054600160a060020a031683526017909152902060010154611a7e576040805160e560020a62461bcd02815260206004820152600c60248201527f6e6f742064656c65676174650000000000000000000000000000000000000000604482015290519081900360640190fd5b33600090815260196020908152604080832054600160a060020a03168084526017909252909120601b548410611afe576040805160e560020a62461bcd02815260206004820152601760248201527f70726f706f73616c20646f6573206e6f74206578697374000000000000000000604482015290519081900360640190fd5b6000601a6000601b8781548110611b1157fe5b90600052602060002001548152602001908152602001600020905060038460ff1610611b715760405160e560020a62461bcd0281526004018080602001828103825260248152602001806152496024913960400191505060405180910390fd5b60008460ff166002811115611b8257fe5b90508160090154611b91610d1e565b1015611be7576040805160e560020a62461bcd02815260206004820152601d60248201527f766f74696e6720706572696f6420686173206e6f742073746172746564000000604482015290519081900360640190fd5b611bf4826009015461198d565b15611c335760405160e560020a62461bcd0281526004018080602001828103825260228152602001806152926022913960400191505060405180910390fd5b600160a060020a0384166000908152600f8301602052604081205460ff166002811115611c5c57fe5b14611cb1576040805160e560020a62461bcd02815260206004820152601860248201527f6d656d6265722068617320616c726561647920766f7465640000000000000000604482015290519081900360640190fd5b6001816002811115611cbf57fe5b1480611cd657506002816002811115611cd457fe5b145b611d2a576040805160e560020a62461bcd02815260206004820152601d60248201527f766f7465206d7573742062652065697468657220596573206f72204e6f000000604482015290519081900360640190fd5b600160a060020a0384166000908152600f830160205260409020805482919060ff19166001836002811115611d5b57fe5b02179055506001816002811115611d6e57fe5b1415611de6576001830154600a830154611d8d9163ffffffff613e2e16565b600a8301556005830154861115611da657600583018690555b600e820154601154601054611dc09163ffffffff613e2e16565b1115611de157601154601054611ddb9163ffffffff613e2e16565b600e8301555b611e19565b6002816002811115611df457fe5b1415611e19576001830154600b830154611e139163ffffffff613e2e16565b600b8301555b83600160a060020a031633600160a060020a0316877f804f03797630bf8b8a46b9371608abbf7d78a20df720e477bab641957ca68a20601b8a81548110611e5c57fe5b906000526020600020015489604051808381526020018260ff1660ff1681526020019250505060405180910390a45050600160005550505050565b60125481565b60085481565b601b546000908210611eff576040805160e560020a62461bcd02815260206004820152601060248201527f6e6f20737563682070726f706f73616c00000000000000000000000000000000604482015290519081900360640190fd5b601a6000601b8481548110611f1057fe5b90600052602060002001548152602001908152602001600020600c01600060068110611f3857fe5b602081049091015460ff601f9092166101000a9004169050919050565b60026000541415611f9e576040805160e560020a62461bcd02815260206004820152600e6024820152600080516020615135833981519152604482015290519081900360640190fd5b6002600055600b54600160a060020a03163314611fef5760405160e560020a62461bcd0281526004018080602001828103825260238152602001806151966023913960400191505060405180910390fd5b600b805473ffffffffffffffffffffffffffffffffffffffff1916600160a060020a0385811691909117909155600682905560088390558516156120ea57606460125410612087576040805160e560020a62461bcd02815260206004820152601760248201527f746f6f206d616e7920746f6b656e7320616c7265616479000000000000000000604482015290519081900360640190fd5b60158054600180820183556000929092527f55f448fdea98c4d29eb340757ef0a66cd03dbb9538908a6a81d96026b71ec47501805473ffffffffffffffffffffffffffffffffffffffff1916600160a060020a0388161790556012805490910190555b600160a060020a038416156121025761210284614295565b600b546006546040805191825251600160a060020a03928316928816917fda5e1bbe6ec3caef58e6417562eb7faae11f65615e0d463da836f8651b76b6b1919081900360200190a350506001600055505050565b6002600054141561219f576040805160e560020a62461bcd02815260206004820152600e6024820152600080516020615135833981519152604482015290519081900360640190fd5b60026000908155600160a060020a03821681526017602052604090206006015460ff610100909104161515600114612221576040805160e560020a62461bcd02815260206004820152600a60248201527f6e6f74206d656d62657200000000000000000000000000000000000000000000604482015290519081900360640190fd5b33600160a060020a03821614612281576040805160e560020a62461bcd02815260206004820152601c60248201527f63616e206f6e6c792062652063616c6c6564206279206d656d62657200000000604482015290519081900360640190fd5b600061228c336135ff565b90506000600160009054906101000a9004600160a060020a0316600160a060020a0316637ff9b5966040518163ffffffff1660e060020a02815260040160206040518083038186803b1580156122e157600080fd5b505afa1580156122f5573d6000803e3d6000fd5b505050506040513d602081101561230b57600080fd5b505190506000612321838363ffffffff613c5716565b9050600081116123655760405160e560020a62461bcd0281526004018080602001828103825260258152602001806151b96025913960400191505060405180910390fd5b600160a060020a038416600090815260176020526040902060040154612391908263ffffffff613e2e16565b506001546040805160008082526020808301938490527fc85c93aa00000000000000000000000000000000000000000000000000000000845260248301868152604484018390526060606485019081528451608486018190529396600160a060020a03169563c85c93aa95899589959194939260a4860192909102808383895b83811015612429578181015183820152602001612411565b50505050905001945050505050602060405180830381600087803b15801561245057600080fd5b505af1158015612464573d6000803e3d6000fd5b505050506040513d602081101561247a57600080fd5b5051600a549091506124999061dead90600160a060020a031683614237565b600a546124b59061dead903390600160a060020a031684614310565b600a546124cb90600160a060020a031682613c79565b50506001600055505050565b6124df614f38565b6000828152601a6020526040808220815160c081019283905292600c909101916006918390855b825461010083900a900460ff161515815260206001928301818104948501949093039092029101808411612506575094979650505050505050565b60188181548110610ed057fe5b60025481565b6002600054141561259d576040805160e560020a62461bcd02815260206004820152600e6024820152600080516020615135833981519152604482015290519081900360640190fd5b600260009081553381526017602052604090206006015460ff610100909104161515600114612616576040805160e560020a62461bcd02815260206004820152600a60248201527f6e6f74206d656d62657200000000000000000000000000000000000000000000604482015290519081900360640190fd5b600654811015612670576040805160e560020a62461bcd02815260206004820152601460248201527f7472696275746520696e73756666696369656e74000000000000000000000000604482015290519081900360640190fd5b600a54600160a060020a038381169116146126d5576040805160e560020a62461bcd02815260206004820152601d60248201527f63616e206f6e6c79206465706f736974206465706f736974546f6b656e000000604482015290519081900360640190fd5b60006126ec60065483613c5790919063ffffffff16565b90506ec097ce7bc90715b34b9f100000000081601054011115612759576040805160e560020a62461bcd02815260206004820152600c60248201527f736861726573206d617865640000000000000000000000000000000000000000604482015290519081900360640190fd5b601854600110156127e15761277e6002610d3b83601054613e2e90919063ffffffff16565b336000908152601760205260409020600101546127a1908363ffffffff613e2e16565b14156127e15760405160e560020a62461bcd0281526004018080602001828103825260288152602001806152216028913960400191505060405180910390fd5b3360009081526017602090815260408083206001018054850190556010805485019055600a54600160a060020a031683526000805160206151768339815191529091529020541580156128345750600082115b15612843576012805460010190555b61284e338484614326565b6040518190839033907f4de2aa579cae08c036885f604d1922d33dec30980a0e41f8559c314705425d9b90600090a45050600160005550565b600a54600160a060020a031681565b60055481565b600f5481565b600260005414156128eb576040805160e560020a62461bcd02815260206004820152600e6024820152600080516020615135833981519152604482015290519081900360640190fd5b60026000908155600160a060020a0382168152601760205260409020600681015460ff16151560011415612969576040805160e560020a62461bcd02815260206004820152601160248201527f6d656d626572206e6f74206a61696c6564000000000000000000000000000000604482015290519081900360640190fd5b60008160020154116129c5576040805160e560020a62461bcd02815260206004820152601560248201527f6d656d626572206d7573742068617665206c6f6f740000000000000000000000604482015290519081900360640190fd5b6129d28160050154611ea3565b612a105760405160e560020a62461bcd02815260040180806020018281038252604d8152602001806150e8604d913960600191505060405180910390fd5b610df88260008360020154613e47565b60026000541415612a69576040805160e560020a62461bcd02815260206004820152600e6024820152600080516020615135833981519152604482015290519081900360640190fd5b60026000908155818152601a602052604090206009810154612a89610d1e565b1115612ac95760405160e560020a62461bcd0281526004018080602001828103825260218152602001806151556021913960400191505060405180910390fd5b600c8101546301000000900460ff1615612b2d576040805160e560020a62461bcd02815260206004820152601a60248201527f70726f706f73616c20616c72656164792063616e63656c6c6564000000000000604482015290519081900360640190fd5b6001810154600160a060020a03163314612b91576040805160e560020a62461bcd02815260206004820152601560248201527f6f6e6c792070726f706f7365722063616e63656c730000000000000000000000604482015290519081900360640190fd5b600c8101805463ff00000019166301000000179055600181015460068201546005830154612bd19261beef92600160a060020a0391821692911690614310565b60408051338152905183917fc215fed6680bb02d323dc3f8b8f85241572607538426059c9232601bd293c3be919081900360200190a250506001600055565b60026000541415612c59576040805160e560020a62461bcd02815260206004820152600e6024820152600080516020615135833981519152604482015290519081900360640190fd5b6002600055600e5460ff1660011415612cbc576040805160e560020a62461bcd02815260206004820152600b60248201527f616c726561647920736574000000000000000000000000000000000000000000604482015290519081900360640190fd5b600b805473ffffffffffffffffffffffffffffffffffffffff1916600160a060020a0392909216919091179055600e805460ff19166001908117909155600055565b60026000541415612d47576040805160e560020a62461bcd02815260206004820152600e6024820152600080516020615135833981519152604482015290519081900360640190fd5b6002600055612d55816145b9565b6000601b8281548110612d6457fe5b600091825260208083209190910154808352601a9091526040909120600c810154919250906301000000900460ff16612de7576040805160e560020a62461bcd02815260206004820152600e60248201527f6e6f74206775696c64206b69636b000000000000000000000000000000000000604482015290519081900360640190fd5b600c8101805460ff191660011790556000612e01846148d4565b90508015612e8857600c8201805461ff0019166101001790558154600160a060020a0316600090815260176020526040902060018101546002820154612e4691613e2e565b60028201556001810154601054612e629163ffffffff613c4216565b6010556001810154601154612e7c9163ffffffff613e2e16565b60115560006001909101555b8154600160a060020a03166000908152601660205260409020805460ff19169055612eb1614a90565b6040805182151581529051849186917f0e347d00d3e9e6cdff9e6c09092c9ff1bd448f9b3dfb7091b30939ec5e7a3c739181900360200190a3505060016000555050565b60026000541415612f3e576040805160e560020a62461bcd02815260206004820152600e6024820152600080516020615135833981519152604482015290519081900360640190fd5b6002600055612f4c816145b9565b6000601a6000601b8481548110612f5f57fe5b90600052602060002001548152602001908152602001600020905080600c01600360068110612f8a57fe5b602081049091015460ff601f9092166101000a90041615612ff5576040805160e560020a62461bcd02815260206004820152601560248201527f6e6f74207374616e646172642070726f706f73616c0000000000000000000000604482015290519081900360640190fd5b600c8101805460ff19166001179055600061300f836148d4565b90506ec097ce7bc90715b34b9f100000000061305483600401546130488560030154613048601154601054613e2e90919063ffffffff16565b9063ffffffff613e2e16565b111561305e575060005b6008820154600160a060020a03166000908152600080516020615176833981519152602052604090205460078301541115613097575060005b801561358457600c8201805461ff0019166101009081179091558254600160a060020a03166000908152601760205260409020600601540460ff16156131705760038201548254600160a060020a03166000908152601760205260409020600101546131089163ffffffff613e2e16565b8254600160a060020a0390811660009081526017602052604080822060010193909355600485015485549092168152919091206002015461314e9163ffffffff613e2e16565b8254600160a060020a031660009081526017602052604090206002015561342b565b8154600160a060020a039081166000908152601960209081526040808320549093168252601790522060060154610100900460ff1615613206578154600160a060020a03908116600090815260196020908152604080832054909316808352838320805473ffffffffffffffffffffffffffffffffffffffff199081168317909155601790925292909120805490911690911790555b6040518061010001604052808360000160009054906101000a9004600160a060020a0316600160a060020a03168152602001836003015481526020018360040154815260200160008152602001600081526020016000815260200160001515815260200160011515815250601760008460000160009054906101000a9004600160a060020a0316600160a060020a0316600160a060020a0316815260200190815260200160002060008201518160000160006101000a815481600160a060020a030219169083600160a060020a031602179055506020820151816001015560408201518160020155606082015181600301556080820151816004015560a0820151816005015560c08201518160060160006101000a81548160ff02191690831515021790555060e08201518160060160016101000a81548160ff0219169083151502179055509050508160000160009054906101000a9004600160a060020a0316601960008460000160009054906101000a9004600160a060020a0316600160a060020a0316600160a060020a0316815260200190815260200160002060006101000a815481600160a060020a030219169083600160a060020a0316021790555060188260000160009054906101000a9004600160a060020a031690806001815401808255809150509060018203906000526020600020016000909192909190916101000a815481600160a060020a030219169083600160a060020a03160217905550505b60038201546010546134429163ffffffff613e2e16565b601055600482015460115461345c9163ffffffff613e2e16565b6011556006820154600160a060020a03166000908152600080516020615176833981519152602052604090205415801561349a575060008260050154115b156134a9576012805460010190555b600682015460058301546134ce9161beef9161dead91600160a060020a031690614310565b600a546006830154600160a060020a039081169116141561350c5781546006830154600584015461350c92600160a060020a03908116921690614326565b8154600883015460078401546135349261dead92600160a060020a0391821692911690614310565b6008820154600160a060020a03166000908152600080516020615176833981519152602052604090205415801561356f575060008260070154115b1561357f57601280546000190190555b6135af565b6001820154600683015460058401546135af9261beef92600160a060020a0391821692911690614310565b6135b7614a90565b604080518215158152905184917f36bb81bc23e1666e90ce29b613dfccad1f8bf01c6793afa329d1a1bef0e7d88a919081900360200190a25050600160005550565b61beef81565b600160a060020a038116600090815260176020526040812060048101546003909101548291613634919063ffffffff613c4216565b600154604080517f0df94ef200000000000000000000000000000000000000000000000000000000815230600482015290519293506000926136b192670de0b6b3a764000092610d3b92600160a060020a0390921691630df94ef29160248082019260209290919082900301818a87803b15801561189957600080fd5b90506000613715670de0b6b3a7640000610d3b600160009054906101000a9004600160a060020a0316600160a060020a0316637ff9b5966040518163ffffffff1660e060020a02815260040160206040518083038186803b15801561193657600080fd5b90506000613729828463ffffffff613c4216565b905060006137426113aa6064601463ffffffff613c5716565b90506000613756838363ffffffff613c4216565b98975050505050505050565b61dead81565b6000600260005414156137b3576040805160e560020a62461bcd02815260206004820152600e6024820152600080516020615135833981519152604482015290519081900360640190fd5b60026000556ec097ce7bc90715b34b9f10000000006137d8898963ffffffff613e2e16565b111561382e576040805160e560020a62461bcd02815260206004820152600c60248201527f736861726573206d617865640000000000000000000000000000000000000000604482015290519081900360640190fd5b600160a060020a03831660009081526014602052604090205460ff1661389e576040805160e560020a62461bcd02815260206004820152601760248201527f7061796d656e74206e6f742077686974656c6973746564000000000000000000604482015290519081900360640190fd5b600160a060020a038a166138fc576040805160e560020a62461bcd02815260206004820152601560248201527f6170706c6963616e742063616e6e6f7420626520300000000000000000000000604482015290519081900360640190fd5b600160a060020a038a1660009081526017602052604090206006015460ff1615613970576040805160e560020a62461bcd02815260206004820152601060248201527f6170706c6963616e74206a61696c656400000000000000000000000000000000604482015290519081900360640190fd5b600854600a54600160a060020a03166000908152600080516020615176833981519152602052604090205410156139f1576040805160e560020a62461bcd02815260206004820152601060248201527f676f616c206e6f74206d65742079657400000000000000000000000000000000604482015290519081900360640190fd5b84151580613a00575084600114155b80613a0c575084600214155b613a4a5760405160e560020a62461bcd0281526004018080602001828103825260388152602001806150b06038913960400191505060405180910390fd5b600554604080517f23b872dd000000000000000000000000000000000000000000000000000000008152336004820152306024820152604481019290925251600160a060020a038516916323b872dd9160648083019260209291908290030181600087803b158015613abb57600080fd5b505af1158015613acf573d6000803e3d6000fd5b505050506040513d6020811015613ae557600080fd5b5051613b3b576040805160e560020a62461bcd02815260206004820152601760248201527f70726f706f73616c206465706f736974206661696c6564000000000000000000604482015290519081900360640190fd5b613b4a61beef84600554614237565b8460041415613bd457600854600a54600160a060020a0316600090815260008051602061517683398151915260205260409020541015613bd4576040805160e560020a62461bcd02815260206004820152601060248201527f676f616c206e6f74206d65742079657400000000000000000000000000000000604482015290519081900360640190fd5b613bdc614f38565b6001818760068110613bea57fe5b911515602090920201526003861415613c1657613c118b6000806000806000808a89614ab1565b613c27565b613c278b8b8b8b8b8a8a8a89614ab1565b5050600f546000190160016000559998505050505050505050565b600082821115613c5157600080fd5b50900390565b6000808211613c6557600080fd5b6000828481613c7057fe5b04949350505050565b336000908152601360209081526040808320600160a060020a0386168452909152902054811115613cf4576040805160e560020a62461bcd02815260206004820152601460248201527f696e73756666696369656e742062616c616e6365000000000000000000000000604482015290519081900360640190fd5b613cff3383836141d7565b604080517fa9059cbb000000000000000000000000000000000000000000000000000000008152336004820152602481018390529051600160a060020a0384169163a9059cbb9160448083019260209291908290030181600087803b158015613d6757600080fd5b505af1158015613d7b573d6000803e3d6000fd5b505050506040513d6020811015613d9157600080fd5b5051613de7576040805160e560020a62461bcd02815260206004820152600f60248201527f7472616e73666572206661696c65640000000000000000000000000000000000604482015290519081900360640190fd5b60408051600160a060020a038416815260208101839052815133927f9b1bfa7fa9ee420a16e124f794c35ac9f90472acc99140eb2f6447c714cad8eb928290030190a25050565b600082820183811015613e4057600080fd5b9392505050565b6000613e60601154601054613e2e90919063ffffffff16565b600160a060020a0385166000908152601760205260409020600181015491925090841115613ed8576040805160e560020a62461bcd02815260206004820152601360248201527f696e73756666696369656e742073686172657300000000000000000000000000604482015290519081900360640190fd5b8281600201541015613f34576040805160e560020a62461bcd02815260206004820152601160248201527f696e73756666696369656e74206c6f6f74000000000000000000000000000000604482015290519081900360640190fd5b613f418160050154611ea3565b613f7f5760405160e560020a62461bcd02815260040180806020018281038252604d8152602001806150e8604d913960600191505060405180910390fd5b6000613f91858563ffffffff613e2e16565b6001830154909150613fa9908663ffffffff613c4216565b60018301556002820154613fc3908563ffffffff613c4216565b6002830155601054613fdb908663ffffffff613c4216565b601055601154613ff1908563ffffffff613c4216565b60115560005b60155481101561416d5761dead600090815260136020526015805461405f91600080516020615176833981519152918491908690811061403357fe5b6000918252602080832090910154600160a060020a031683528201929092526040019020548487614ecd565b905080156141645761dead600090815260136020526015805483926000805160206151768339815191529290918690811061409657fe5b6000918252602080832090910154600160a060020a0390811684528382019490945260409283018220805495909503909455918b16825260139092529081206015805484939190869081106140e757fe5b6000918252602080832090910154600160a060020a0316835282019290925260400190208054909101905560048401541561416457600484015460015461413d908a9061dead90600160a060020a031684614310565b614161614150838363ffffffff613c4216565b60048701549063ffffffff613e2e16565b50505b50600101613ff7565b506040805186815260208101869052815133927fcad1a1c68982832d9abc314de8a1e5d5e8c81b0588961e360766736d10c3be1a928290030190a2505050505050565b6000826141bf57506000610d12565b828202828482816141cc57fe5b0414613e4057600080fd5b600160a060020a039283166000908152601360209081526040808320949095168252928352838120805483900390557f8009e2172d1c244c56732ebf9aad2646372ece2a262cefadb68df6dfdff6ce9b9092529190208054919091039055565b600160a060020a0392831660009081526013602090815260408083209490951682529283528381208054830190557f8009e2172d1c244c56732ebf9aad2646372ece2a262cefadb68df6dfdff6ce9b90925291902080549091019055565b600260005414156142de576040805160e560020a62461bcd02815260206004820152600e6024820152600080516020615135833981519152604482015290519081900360640190fd5b6001805473ffffffffffffffffffffffffffffffffffffffff1916600160a060020a0392909216919091178155600055565b61431b8483836141d7565b61156e838383614237565b600a54600160a060020a0383811691161461438b576040805160e560020a62461bcd02815260206004820152601b60248201527f6e6f742061626c6520746f206465706f73697420696e2069646c650000000000604482015290519081900360640190fd5b806143e0576040805160e560020a62461bcd02815260206004820152601460248201527f6e6f20746f6b656e7320746f206465706f736974000000000000000000000000604482015290519081900360640190fd5b600154604080517f095ea7b3000000000000000000000000000000000000000000000000000000008152306004820152602481018490529051600160a060020a039092169163095ea7b3916044808201926020929091908290030181600087803b15801561444d57600080fd5b505af1158015614461573d6000803e3d6000fd5b505050506040513d602081101561447757600080fd5b50516144cd576040805160e560020a62461bcd02815260206004820152600f60248201527f617070726f76616c206661696c65640000000000000000000000000000000000604482015290519081900360640190fd5b60018054604080517fbf7143c100000000000000000000000000000000000000000000000000000000815260048101859052602481019390935251600092600160a060020a039092169163bf7143c191604480830192602092919082900301818787803b15801561453d57600080fd5b505af1158015614551573d6000803e3d6000fd5b505050506040513d602081101561456757600080fd5b50516001549091506145869061dead90600160a060020a031683614237565b600160a060020a0384166000908152601760205260409020600301546145b2908263ffffffff613e2e16565b5050505050565b601b548110614612576040805160e560020a62461bcd02815260206004820152601060248201527f6e6f20737563682070726f706f73616c00000000000000000000000000000000604482015290519081900360640190fd5b61461a614f56565b601a6000601b848154811061462b57fe5b6000918252602080832091909101548352828101939093526040918201812082516101e0810184528154600160a060020a039081168252600183015481169582019590955260028201548516818501526003820154606082015260048201546080820152600582015460a0820152600680830154861660c080840191909152600784015460e084015260088401549096166101008301526009830154610120830152600a830154610140830152600b83015461016083015284519586019485905290949193610180860193600c86019291908390855b825461010083900a900460ff16151581526020600192830181810494850194909303909202910180841161470157905050505050508152602001600d8201548152602001600e820154815250509050614770600454613048600354846101200151613e2e90919063ffffffff16565b614778610d1e565b10156147ce576040805160e560020a62461bcd02815260206004820152601260248201527f70726f706f73616c206e6f742072656164790000000000000000000000000000604482015290519081900360640190fd5b61018081015151156148145760405160e560020a62461bcd0281526004018080602001828103825260238152602001806152b46023913960400191505060405180910390fd5b81158061487c5750601a6000601b61483385600163ffffffff613c4216565b8154811061483d57fe5b90600052602060002001548152602001908152602001600020600c0160006006811061486557fe5b602081049091015460ff601f9092166101000a9004165b6148d0576040805160e560020a62461bcd02815260206004820152601d60248201527f70726576696f75732070726f706f73616c20756e70726f636573736564000000604482015290519081900360640190fd5b5050565b60006148de614f56565b601a6000601b85815481106148ef57fe5b6000918252602080832091909101548352828101939093526040918201812082516101e0810184528154600160a060020a039081168252600183015481169582019590955260028201548516818501526003820154606082015260048201546080820152600582015460a0820152600680830154861660c080840191909152600784015460e084015260088401549096166101008301526009830154610120830152600a830154610140830152600b83015461016083015284519586019485905290949193610180860193600c86019291908390855b825461010083900a900460ff1615158152602060019283018181049485019490930390920291018084116149c557905050505050508152602001600d8201548152602001600e820154815250509050806101600151816101400151119150806101c00151614a516003614a45601154601054613e2e90919063ffffffff16565b9063ffffffff6141b016565b1015614a5c57600091505b8051600160a060020a031660009081526017602052604090206006015460ff161515600114614a8a57600091505b50919050565b600a54600554614aaf9161beef913391600160a060020a031690614310565b565b614ab9614f56565b604051806101e001604052808b600160a060020a0316815260200133600160a060020a0316815260200133600160a060020a031681526020018a815260200189815260200188815260200186600160a060020a0316815260200187815260200185600160a060020a031681526020016000815260200160008152602001600081526020018381526020018481526020016000815250905080601a6000600f54815260200190815260200160002060008201518160000160006101000a815481600160a060020a030219169083600160a060020a0316021790555060208201518160010160006101000a815481600160a060020a030219169083600160a060020a0316021790555060408201518160020160006101000a815481600160a060020a030219169083600160a060020a03160217905550606082015181600301556080820151816004015560a0820151816005015560c08201518160060160006101000a815481600160a060020a030219169083600160a060020a0316021790555060e082015181600701556101008201518160080160006101000a815481600160a060020a030219169083600160a060020a03160217905550610120820151816009015561014082015181600a015561016082015181600b015561018082015181600c01906006614ca9929190614fff565b506101a0820151600d8201556101c090910151600e9091015533600090815260196020526040812054600160a060020a031690614d43603c613048614cec610d1e565b601b5415614d3b57601b8054601a91600091614d0f90600163ffffffff613c4216565b81548110614d1957fe5b9060005260206000200154815260200190815260200160002060090154614d3e565b60005b614f21565b9050808361012001818152505081600160a060020a031633600160a060020a03168d600160a060020a03167f3eb2fc3a4fd38dc7d18c1dc6203e361238c9fe9b7f9e13e2be058643f55cd9398e8e8e8d8f8e8e8e600f54604051808a815260200189815260200188815260200187600160a060020a0316600160a060020a0316815260200186815260200185600160a060020a0316600160a060020a0316815260200184815260200183600660200280838360005b83811015614e10578181015183820152602001614df8565b50505050905001828152602001995050505050505050505060405180910390a4600f8054600190810191829055601b8054808301825560008281527f3ad8aa4f87544323a9d1e5dd902f40c356527a7955687113db5f9a85ad579dc190910184905590549091614e86919063ffffffff613c4216565b6040805182815290519192507fd558e74906d99a82926aaf6e012fda81c0c28daa01a668366ef5727f00550248919081900360200190a15050505050505050505050505050565b600081614ed957600080fd5b83614ee657506000613e40565b83830283858281614ef357fe5b041415614f0c57828181614f0357fe5b04915050613e40565b83838681614f1657fe5b040295945050505050565b600081831015614f315781613e40565b5090919050565b6040518060c001604052806006906020820280388339509192915050565b604051806101e001604052806000600160a060020a031681526020016000600160a060020a031681526020016000600160a060020a031681526020016000815260200160008152602001600081526020016000600160a060020a03168152602001600081526020016000600160a060020a03168152602001600081526020016000815260200160008152602001614feb614f38565b815260006020820181905260409091015290565b6001830191839082156150815791602002820160005b8382111561505257835183826101000a81548160ff0219169083151502179055509260200192600101602081600001049283019260010302615015565b801561507f5782816101000a81549060ff0219169055600101602081600001049283019260010302615052565b505b5061508d929150615091565b5090565b610d4a91905b8082111561508d57805460ff1916815560010161509756fe666c6167206d7573742062652033202d206775696c646b69636b2c2034202d207370656e64696e672c2035202d206d656d6265727368697063616e6e6f7420726167657175697420756e74696c206869676865737420696e6465782070726f706f73616c206d656d62657220766f74656420594553206f6e2069732070726f6365737365647265656e7472616e742063616c6c000000000000000000000000000000000000766f74696e6720706572696f642068617320616c726561647920737461727465642264e2d7bacabe6058f5009f42467b9be28015e7760f87409562384c94ac271c6f6e6c79206d696e696f6e2063616e206d616b65207468657365206368616e676573216e6f7420656e6f756768206561726e696e677320746f2072656465656d206120746f6b656e746f6b656e73202b20616d6f756e747320617272617973206d757374206d6174636863616e6e6f74206f7665727772697465206578697374696e67206d656d6265727363616e277420627579203530252b2073686172657320776974686f757420612070726f706f73616c6d757374206265206c657373207468616e20332c2030203d207965732c2031203d206e6f6f6e6c7920757365727320776974682062616c616e6365732063616e20726167657175697470726f706f73616c20766f74696e6720706572696f6420686173206578706972656470726f706f73616c2068617320616c7265616479206265656e2070726f636573736564a265627a7a72315820f2dda0ab4233f0f7bfa38b83447364d85216aece00a1a883e3911c9e245ca53164736f6c63430005110032",
  "source": "pragma solidity 0.5.17;\n\nimport \"./oz/SafeMath.sol\";\nimport \"./oz/IERC20.sol\";\nimport \"./oz/ReentrancyGuard.sol\";\n\ninterface IIdleToken {\n  function token() external returns (address underlying);\n  function userAvgPrices(address) external returns (uint256 avgPrice);\n  function mintIdleToken(uint256 _amount, bool _skipWholeRebalance) external returns (uint256 mintedTokens);\n  function redeemIdleToken(uint256 _amount, bool _skipRebalance, uint256[] calldata _clientProtocolAmounts) external returns (uint256 redeemedTokens);\n  function redeemInterestBearingTokens(uint256 _amount) external;\n  function rebalance() external returns (bool);\n  function rebalanceWithGST() external returns (bool);\n  function openRebalance(uint256[] calldata _newAllocations) external returns (bool, uint256 avgApr);\n  function tokenPrice() external view returns (uint256 price);\n  function getAPRs() external view returns (address[] memory addresses, uint256[] memory aprs);\n  function getAvgAPR() external view returns (uint256 avgApr);\n  function getCurrentAllocations() external view returns (address[] memory tokenAddresses, uint256[] memory amounts, uint256 total);\n}\n\n\ncontract Party is ReentrancyGuard {\n    using SafeMath for uint256;\n    \n    IIdleToken public idleToken;\n    \n    /****************\n    GOVERNANCE PARAMS\n    ****************/\n    uint256 public periodDuration; // default = 17280 = 4.8 hours in seconds (5 periods per day)\n    uint256 public votingPeriodLength; // default = 35 periods (7 days)\n    uint256 public gracePeriodLength; // default = 35 periods (7 days)\n    uint256 public proposalDepositReward; // default = 10 ETH (~$1,000 worth of ETH at contract deployment)\n    uint256 public depositRate; // rate to convert into shares during summoning time (default = 10000000000000000000 wei amt. // 100 wETH => 10 shares)\n    uint256 public summoningTime; // needed to determine the current period\n    uint256 public partyGoal; // savings goal for DAO \n\n    address public daoFee; // address where fees are sent\n    address public depositToken; // deposit token contract reference; default = periodDuration\n    address public minion; // contract that allows execution of arbitrary calls voted on by members // gov. param adjustments\n    bytes32 public name; \n    bytes32 public desc;\n\n\n    // HARD-CODED LIMITS\n    // These numbers are quite arbitrary; they are small enough to avoid overflows when doing calculations\n    // with periods or shares, yet big enough to not limit reasonable use cases.\n    uint256 constant dilutionBound = 3; // default = 3 \n    uint256 constant MAX_INPUT = 10**36; // maximum bound for reasonable limits\n    uint256 constant MAX_TOKEN_WHITELIST_COUNT = 100; // maximum number of whitelisted tokens\n\n    // ***************\n    // EVENTS\n    // ***************\n    event SummonComplete(address[] indexed summoners, address[] tokens, uint256 summoningTime, uint256 periodDuration, uint256 votingPeriodLength, uint256 gracePeriodLength, uint256 proposalDepositReward, uint256 partyGoal, uint256 depositRate);\n    event MakeDeposit(address indexed memberAddress, uint256 indexed tribute, uint256 indexed shares);\n    event MakePayment(address indexed sender, address indexed paymentToken, uint256 indexed payment);\n    event AmendGovernance(address indexed newToken, address indexed minion, uint256 depositRate);\n    event SubmitProposal(address indexed applicant, uint256 sharesRequested, uint256 lootRequested, uint256 tributeOffered, address tributeToken, uint256 paymentRequested, address paymentToken, bytes32 details, bool[6] flags, uint256 proposalId, address indexed delegateKey, address indexed memberAddress);\n    event ProposalIndex(uint256 proposalIndex);\n    event SubmitVote(uint256 proposalId, uint256 indexed proposalIndex, address indexed delegateKey, address indexed memberAddress, uint8 uintVote);\n    event ProcessProposal(uint256 indexed proposalIndex, bool didPass);\n    event ProcessGuildKickProposal(uint256 indexed proposalIndex, uint256 indexed proposalId, bool didPass);\n    event Ragequit(address indexed memberAddress, uint256 sharesToBurn, uint256 lootToBurn);\n    event TokensCollected(address indexed token, uint256 amountToCollect);\n    event CancelProposal(uint256 indexed proposalId, address applicantAddress);\n    event UpdateDelegateKey(address indexed memberAddress, address newDelegateKey);\n    event Withdraw(address indexed memberAddress, address token, uint256 amount);\n\n    // *******************\n    // INTERNAL ACCOUNTING\n    // *******************\n    uint8 private status;\n    uint8 private NOT_SET;\n    uint8 private constant SET = 1; // tracks contract summoning set\n    uint256 public proposalCount; // total proposals submitted\n    uint256 public totalShares; // total shares across all members\n    uint256 public totalLoot; // total loot across all members\n    uint256 public totalGuildBankTokens; // total tokens with non-zero balance in guild bank\n\n    address public constant GUILD = address(0xdead);\n    address public constant ESCROW = address(0xbeef);\n    address public constant TOTAL = address(0xbabe);\n    mapping(address => mapping(address => uint256)) public userTokenBalances; // userTokenBalances[userAddress][tokenAddress]\n\n    enum Vote {\n        Null, // default value, counted as abstention\n        Yes,\n        No\n    }\n\n    struct Member {\n        address delegateKey; // the key responsible for submitting proposals and voting - defaults to member address unless updated\n        uint256 shares; // the # of voting shares assigned to this member\n        uint256 loot; // the loot amount available to this member (combined with shares on ragequit)\n        uint256 iTokenAmts;\n        uint256 iTokenRedemptions; //interest withdrawn \n        uint256 highestIndexYesVote; // highest proposal index # on which the member voted YES\n        bool jailed; // set to proposalIndex of a passing guild kick proposal for this member, prevents voting on and sponsoring proposals\n        bool exists; // always true once a member has been created\n    }\n\n    struct Proposal {\n        address applicant; // the applicant who wishes to become a member - this key will be used for withdrawals (doubles as guild kick target for gkick proposals)\n        address proposer; // the account that submitted the proposal (can be non-member)\n        address sponsor; // the member that sponsored the proposal (moving it into the queue)\n        uint256 sharesRequested; // the # of shares the applicant is requesting\n        uint256 lootRequested; // the amount of loot the applicant is requesting\n        uint256 tributeOffered; // amount of tokens offered as tribute\n        address tributeToken; // tribute token contract reference\n        uint256 paymentRequested; // amount of tokens requested as payment\n        address paymentToken; // payment token contract reference\n        uint256 startingPeriod; // the period in which voting can start for this proposal\n        uint256 yesVotes; // the total number of YES votes for this proposal\n        uint256 noVotes; // the total number of NO votes for this proposal\n        bool[6] flags; // [processed, didPass, cancelled, guildkick, spending, member]\n        bytes32 details; // proposal details to add context for members \n        uint256 maxTotalSharesAndLootAtYesVote; // the maximum # of total shares encountered at a yes vote on this proposal\n        mapping(address => Vote) votesByMember; // the votes on this proposal by each member\n    }\n\n    mapping(address => bool) public tokenWhitelist;\n    address[] public approvedTokens;\n\n    mapping(address => bool) public proposedToKick;\n\n    mapping(address => Member) public members;\n    address[] public memberList;\n    \n    mapping(address => address) public memberAddressByDelegateKey;\n\n    mapping(uint256 => Proposal) public proposals;\n    uint256[] public proposalQueue;\n\n\n    modifier onlyDelegate {\n        require(members[memberAddressByDelegateKey[msg.sender]].shares > 0, \"not delegate\");\n        _;\n    }\n    \n    /******************\n    SUMMONING FUNCTIONS\n    ******************/\n    constructor(\n        address[] memory _founders,\n        address[] memory _approvedTokens,\n        address _daoFee,\n        uint256 _periodDuration,\n        uint256 _votingPeriodLength,\n        uint256 _gracePeriodLength,\n        uint256 _proposalDepositReward,\n        uint256 _depositRate,\n        uint256 _partyGoal,\n        bytes32 _name,\n        bytes32 _desc\n    ) public {\n        require(_periodDuration > 0, \"_periodDuration zeroed\");\n        require(_votingPeriodLength > 0, \"_votingPeriodLength zeroed\");\n        require(_votingPeriodLength <= MAX_INPUT, \"_votingPeriodLength maxed\");\n        require(_gracePeriodLength <= MAX_INPUT, \"_gracePeriodLength maxed\");\n        require(_approvedTokens.length > 0, \"need token\");\n        \n        depositToken = _approvedTokens[0];\n        // NOTE: move event up here, avoid stack too deep if too many approved tokens\n        emit SummonComplete(_founders, _approvedTokens, now, _periodDuration, _votingPeriodLength, _gracePeriodLength, _proposalDepositReward, _depositRate, _partyGoal);\n        \n\n        for (uint256 i = 0; i < _approvedTokens.length; i++) {\n            require(!tokenWhitelist[_approvedTokens[i]], \"token duplicated\");\n            tokenWhitelist[_approvedTokens[i]] = true;\n            approvedTokens.push(_approvedTokens[i]);\n        }\n        \n        daoFee = _daoFee;\n        periodDuration = _periodDuration;\n        votingPeriodLength = _votingPeriodLength;\n        gracePeriodLength = _gracePeriodLength;\n        proposalDepositReward = _proposalDepositReward;\n        depositRate = _depositRate;\n        partyGoal = _partyGoal;\n        summoningTime = now;\n        name = _name;\n        desc = _desc;\n        status = NOT_SET;\n        \n        _addFounders(_founders); //had to move to internal function to avoid stack to deep issue \n        _setIdle(approvedTokens[1]);\n    }\n    \n    /****************\n    SUMMONING FUNCTIONS\n    ****************/\n    \n    function _addFounders(address[] memory _founders) internal nonReentrant {\n            for (uint256 i = 0; i < _founders.length; i++) {\n            members[_founders[i]] = Member(_founders[i], 0, 0, 0, 0, 0, false, false);\n            memberAddressByDelegateKey[_founders[i]] = _founders[i];\n            memberList.push(_founders[i]);\n        }\n    }\n    \n    function _setIdle(address _idleToken) internal nonReentrant {\n        idleToken = IIdleToken(_idleToken);\n    }\n    \n    \n    function makeDeposit(address token, uint256 tribute) public nonReentrant {\n        require(members[msg.sender].exists == true, \"not member\");\n        require(tribute >= depositRate, \"tribute insufficient\");\n        require(token == depositToken, \"can only deposit depositToken\");\n        \n        uint256 shares = tribute.div(depositRate);\n        require(totalShares + shares <= MAX_INPUT, \"shares maxed\");\n        \n        if(memberList.length > 1) {\n        require((members[msg.sender].shares.add(shares)) != (totalShares.add(shares)).div(uint256(2)), \"can't buy 50%+ shares without a proposal\");\n        }\n        \n        members[msg.sender].shares += shares;\n        totalShares += shares;\n        \n        if (userTokenBalances[GUILD][depositToken] == 0 && tribute > 0) {\n            totalGuildBankTokens += 1;\n        }\n        \n        depositToIdle(msg.sender, token, tribute);\n        \n        emit MakeDeposit(msg.sender, tribute, shares);\n    }\n    \n    /****************\n    MINION GOVERNANCE\n    ****************/\n    \n    // NOTE: should be done programmatically so that it's the minion created w/ the contract\n    function setMinion(address _minion) public nonReentrant {\n        require(status != SET, \"already set\");\n        minion = _minion;\n        status = SET; // locks minion for moloch contract set on summoning\n    }\n    \n    function amendGovernance(\n        address _newToken,\n        address _idleToken,\n        address _minion,\n        uint256 _partyGoal,\n        uint256 _depositRate\n    ) external nonReentrant {\n        require(msg.sender == address(minion), \"only minion can make these changes!\");\n        \n        minion = _minion;\n        depositRate = _depositRate;\n        partyGoal = _partyGoal;\n        \n        if(_newToken != address(0)) {\n            require(totalGuildBankTokens < MAX_TOKEN_WHITELIST_COUNT, \"too many tokens already\");\n            approvedTokens.push(_newToken);\n            totalGuildBankTokens += 1;\n        }\n        \n        if(_idleToken != address(0)) {\n            _setIdle(_idleToken);\n        }\n        \n        emit AmendGovernance(_newToken, minion, depositRate);\n    }\n\n    /*****************\n    PROPOSAL FUNCTIONS\n    *****************/\n    function submitProposal(\n        address applicant,\n        uint256 tributeOffered,\n        uint256 sharesRequested,\n        uint256 lootRequested,\n        uint256 paymentRequested,\n        uint256 flagNumber,\n        address tributeToken,\n        address paymentToken,\n        bytes32 details\n    ) public nonReentrant returns (uint256 proposalId) {\n        require(sharesRequested.add(lootRequested) <= MAX_INPUT, \"shares maxed\");\n        require(tokenWhitelist[paymentToken], \"payment not whitelisted\");\n        require(applicant != address(0), \"applicant cannot be 0\");\n        require(members[applicant].jailed == false, \"applicant jailed\");\n        require(userTokenBalances[GUILD][depositToken] >= partyGoal, \"goal not met yet\");\n        require(flagNumber != 0 || flagNumber != 1 || flagNumber != 2, \"flag must be 3 - guildkick, 4 - spending, 5 - membership\");\n\n        // collect tribute from proposer and store it in the Moloch until the proposal is processed\n        require(IERC20(paymentToken).transferFrom(msg.sender, address(this), proposalDepositReward), \"proposal deposit failed\");\n        unsafeAddToBalance(ESCROW, paymentToken, proposalDepositReward);\n        \n        // check whether pool goal is met before allowing spending proposals\n        if(flagNumber == 4) {\n            require(userTokenBalances[GUILD][depositToken] >= partyGoal, \"goal not met yet\");\n        }\n\n        bool[6] memory flags; // [processed, didPass, cancelled, guildkick, spending, member]\n        flags[flagNumber] = true;\n        \n        if(flagNumber == 3) {\n            _submitProposal(applicant, 0, 0, 0, 0, address(0), address(0), details, flags);\n        } else {\n            _submitProposal(applicant, tributeOffered, sharesRequested, lootRequested, paymentRequested, tributeToken, paymentToken, details, flags);\n        }\n\n        // NOTE: Should approve the 0x address as a blank token for guildKick proposals where there's no token. \n        return proposalCount - 1; // return proposalId - contracts calling submit might want it\n    }\n    \n\n    function _submitProposal(\n        address applicant,\n        uint256 sharesRequested,\n        uint256 lootRequested,\n        uint256 tributeOffered,\n        uint256 paymentRequested,\n        address tributeToken,\n        address paymentToken,\n        bytes32 details,\n        bool[6] memory flags\n    ) internal {\n        Proposal memory proposal = Proposal({\n            applicant : applicant,\n            proposer : msg.sender,\n            sponsor : msg.sender,\n            sharesRequested : sharesRequested,\n            lootRequested : lootRequested,\n            tributeOffered : tributeOffered,\n            tributeToken : tributeToken,\n            paymentRequested : paymentRequested,\n            paymentToken : paymentToken,\n            startingPeriod : 0,\n            yesVotes : 0,\n            noVotes : 0,\n            flags : flags,\n            details : details,\n            maxTotalSharesAndLootAtYesVote : 0\n        });\n\n        proposals[proposalCount] = proposal;\n        address memberAddress = memberAddressByDelegateKey[msg.sender];\n        \n        \n        // compute startingPeriod for proposal\n        uint256 startingPeriod = max(\n            getCurrentPeriod(),\n            proposalQueue.length == 0 ? 0 : proposals[proposalQueue[proposalQueue.length.sub(1)]].startingPeriod\n        ).add(60);\n    \n        proposal.startingPeriod = startingPeriod;\n       \n        // NOTE: argument order matters, avoid stack too deep\n        emit SubmitProposal(applicant, sharesRequested, lootRequested, tributeOffered, tributeToken, paymentRequested, paymentToken, details, flags, proposalCount, msg.sender, memberAddress);\n        \n        proposalCount += 1;\n        uint256 proposalId = proposalCount; \n        proposalQueue.push(proposalId);\n        uint256 proposalIndex = proposalQueue.length.sub(1);\n        \n        emit ProposalIndex(proposalIndex);\n    }\n\n\n    // NOTE: In PoolParty proposalId = proposalIndex +1 since sponsorship is auto. \n    function submitVote(uint256 proposalIndex, uint8 uintVote) public nonReentrant onlyDelegate {\n        address memberAddress = memberAddressByDelegateKey[msg.sender];\n        Member storage member = members[memberAddress];\n\n        require(proposalIndex < proposalQueue.length, \"proposal does not exist\");\n        Proposal storage proposal = proposals[proposalQueue[proposalIndex]];\n\n        require(uintVote < 3, \"must be less than 3, 0 = yes, 1 = no\");\n        Vote vote = Vote(uintVote);\n\n        require(getCurrentPeriod() >= proposal.startingPeriod, \"voting period has not started\");\n        require(!hasVotingPeriodExpired(proposal.startingPeriod), \"proposal voting period has expired\");\n        require(proposal.votesByMember[memberAddress] == Vote.Null, \"member has already voted\");\n        require(vote == Vote.Yes || vote == Vote.No, \"vote must be either Yes or No\");\n\n        proposal.votesByMember[memberAddress] = vote;\n\n        if (vote == Vote.Yes) {\n            proposal.yesVotes = proposal.yesVotes.add(member.shares);\n\n            // set highest index (latest) yes vote - must be processed for member to ragequit\n            if (proposalIndex > member.highestIndexYesVote) {\n                member.highestIndexYesVote = proposalIndex;\n            }\n\n            // set maximum of total shares encountered at a yes vote - used to bound dilution for yes voters\n            if (totalShares.add(totalLoot) > proposal.maxTotalSharesAndLootAtYesVote) {\n                proposal.maxTotalSharesAndLootAtYesVote = totalShares.add(totalLoot);\n            }\n\n        } else if (vote == Vote.No) {\n            proposal.noVotes = proposal.noVotes.add(member.shares);\n        }\n     \n        emit SubmitVote(proposalQueue[proposalIndex], proposalIndex, msg.sender, memberAddress, uintVote);\n    }\n\n    function processProposal(uint256 proposalIndex) public nonReentrant {\n        _validateProposalForProcessing(proposalIndex);\n\n        Proposal storage proposal = proposals[proposalQueue[proposalIndex]];\n\n        require(!proposal.flags[3], \"not standard proposal\"); \n\n        proposal.flags[0] = true; // processed\n\n        bool didPass = _didPass(proposalIndex);\n\n        // Make the proposal fail if the new total number of shares and loot exceeds the limit\n        if (totalShares.add(totalLoot).add(proposal.sharesRequested).add(proposal.lootRequested) > MAX_INPUT) {\n            didPass = false;\n        }\n\n        // Make the proposal fail if it is requesting more tokens as payment than the available guild bank balance\n        if (proposal.paymentRequested > userTokenBalances[GUILD][proposal.paymentToken]) {\n            didPass = false;\n        }\n\n        // PROPOSAL PASSED\n        if (didPass) {\n            proposal.flags[1] = true; // didPass\n\n            // if the applicant is already a member, add to their existing shares & loot\n            if (members[proposal.applicant].exists) {\n                members[proposal.applicant].shares = members[proposal.applicant].shares.add(proposal.sharesRequested);\n                members[proposal.applicant].loot = members[proposal.applicant].loot.add(proposal.lootRequested);\n\n            // the applicant is a new member, create a new record for them\n            } else {\n                // if the applicant address is already taken by a member's delegateKey, reset it to their member address\n                if (members[memberAddressByDelegateKey[proposal.applicant]].exists) {\n                    address memberToOverride = memberAddressByDelegateKey[proposal.applicant];\n                    memberAddressByDelegateKey[memberToOverride] = memberToOverride;\n                    members[memberToOverride].delegateKey = memberToOverride;\n                }\n                \n\n                // use applicant address as delegateKey by default\n                members[proposal.applicant] = Member(proposal.applicant, proposal.sharesRequested, proposal.lootRequested, 0, 0, 0, false, true);\n                memberAddressByDelegateKey[proposal.applicant] = proposal.applicant;\n                memberList.push(proposal.applicant);\n            }\n\n            // mint new shares & loot\n            totalShares = totalShares.add(proposal.sharesRequested);\n            totalLoot = totalLoot.add(proposal.lootRequested);\n\n            // if the proposal tribute is the first tokens of its kind to make it into the guild bank, increment total guild bank tokens\n            if (userTokenBalances[GUILD][proposal.tributeToken] == 0 && proposal.tributeOffered > 0) {\n                totalGuildBankTokens += 1;\n            }\n\n            unsafeInternalTransfer(ESCROW, GUILD, proposal.tributeToken, proposal.tributeOffered);\n            if (proposal.tributeToken == depositToken) {\n                depositToIdle(proposal.applicant, proposal.tributeToken, proposal.tributeOffered);\n            }\n            \n            unsafeInternalTransfer(GUILD, proposal.applicant, proposal.paymentToken, proposal.paymentRequested);\n\n            // if the proposal spends 100% of guild bank balance for a token, decrement total guild bank tokens\n            if (userTokenBalances[GUILD][proposal.paymentToken] == 0 && proposal.paymentRequested > 0) {\n                totalGuildBankTokens -= 1;\n            }\n\n        // PROPOSAL FAILED\n        } else {\n            // return all tokens to the proposer (not the applicant, because funds come from proposer)\n            unsafeInternalTransfer(ESCROW, proposal.proposer, proposal.tributeToken, proposal.tributeOffered);\n        }\n\n        _returnDeposit();\n\n        emit ProcessProposal(proposalIndex, didPass);\n    }\n\n    \n\n    function processGuildKickProposal(uint256 proposalIndex) public nonReentrant {\n        _validateProposalForProcessing(proposalIndex);\n\n        uint256 proposalId = proposalQueue[proposalIndex];\n        Proposal storage proposal = proposals[proposalId];\n\n        require(proposal.flags[3], \"not guild kick\");\n\n        proposal.flags[0] = true; //[processed, didPass, cancelled, guildkick, spending, member]\n\n        bool didPass = _didPass(proposalIndex);\n\n        if (didPass) {\n            proposal.flags[1] = true; // didPass\n            Member storage member = members[proposal.applicant];\n            member.jailed == true;\n\n            // transfer shares to loot\n            member.loot = member.loot.add(member.shares);\n            totalShares = totalShares.sub(member.shares);\n            totalLoot = totalLoot.add(member.shares);\n            member.shares = 0; // revoke all shares\n        }\n\n        proposedToKick[proposal.applicant] = false;\n\n        _returnDeposit();\n\n        emit ProcessGuildKickProposal(proposalIndex, proposalId, didPass);\n    }\n\n    function _didPass(uint256 proposalIndex) internal view returns (bool didPass) {\n        Proposal memory proposal = proposals[proposalQueue[proposalIndex]];\n\n        didPass = proposal.yesVotes > proposal.noVotes;\n\n        // Make the proposal fail if the dilutionBound is exceeded\n        if ((totalShares.add(totalLoot)).mul(dilutionBound) < proposal.maxTotalSharesAndLootAtYesVote) {\n            didPass = false;\n        }\n\n        // Make the proposal fail if the applicant is jailed\n        // - for standard proposals, we don't want the applicant to get any shares/loot/payment\n        // - for guild kick proposals, we should never be able to propose to kick a jailed member (or have two kick proposals active), so it doesn't matter\n        if (members[proposal.applicant].jailed != true) {\n            didPass = false;\n        }\n\n        return didPass;\n    }\n\n    function _validateProposalForProcessing(uint256 proposalIndex) internal view {\n        require(proposalIndex < proposalQueue.length, \"no such proposal\");\n        Proposal memory proposal = proposals[proposalQueue[proposalIndex]];\n\n        require(getCurrentPeriod() >= proposal.startingPeriod.add(votingPeriodLength).add(gracePeriodLength), \"proposal not ready\");\n        require(proposal.flags[0] == false, \"proposal has already been processed\");\n        require(proposalIndex == 0 || proposals[proposalQueue[proposalIndex.sub(1)]].flags[0], \"previous proposal unprocessed\");\n    }\n\n    function _returnDeposit() internal {\n        unsafeInternalTransfer(ESCROW, msg.sender, depositToken, proposalDepositReward);\n    }\n\n    function ragequit(uint256 sharesToBurn, uint256 lootToBurn) public nonReentrant {\n        require(members[msg.sender].shares.add(members[msg.sender].loot) > 0, \"only users with balances can ragequit\");\n        _ragequit(msg.sender, sharesToBurn, lootToBurn);\n    }\n\n    function _ragequit(address memberAddress, uint256 sharesToBurn, uint256 lootToBurn) internal {\n        uint256 initialTotalSharesAndLoot = totalShares.add(totalLoot);\n\n        Member storage member = members[memberAddress];\n\n        require(member.shares >= sharesToBurn, \"insufficient shares\");\n        require(member.loot >= lootToBurn, \"insufficient loot\");\n\n        require(canRagequit(member.highestIndexYesVote), \"cannot ragequit until highest index proposal member voted YES on is processed\");\n\n        uint256 sharesAndLootToBurn = sharesToBurn.add(lootToBurn);\n\n        // burn shares and loot\n        member.shares = member.shares.sub(sharesToBurn);\n        member.loot = member.loot.sub(lootToBurn);\n        totalShares = totalShares.sub(sharesToBurn);\n        totalLoot = totalLoot.sub(lootToBurn);\n        \n\n        for (uint256 i = 0; i < approvedTokens.length; i++) {\n            uint256 amountToRagequit = fairShare(userTokenBalances[GUILD][approvedTokens[i]], sharesAndLootToBurn, initialTotalSharesAndLoot);\n            if (amountToRagequit > 0) { // gas optimization to allow a higher maximum token limit\n                userTokenBalances[GUILD][approvedTokens[i]] -= amountToRagequit;\n                userTokenBalances[memberAddress][approvedTokens[i]] += amountToRagequit;\n                \n                if(member.iTokenRedemptions > 0) {\n                    uint256 iTokenAdj = member.iTokenRedemptions;\n                    unsafeInternalTransfer(memberAddress, GUILD, address(idleToken), iTokenAdj); \n                    member.iTokenRedemptions.add(amountToRagequit.sub(iTokenAdj));  \n                }\n            }\n        }\n\n        emit Ragequit(msg.sender, sharesToBurn, lootToBurn);\n    }\n\n    function ragekick(address memberToKick) public nonReentrant {\n        Member storage member = members[memberToKick];\n\n        require(member.jailed != true, \"member not jailed\");\n        require(member.loot > 0, \"member must have loot\"); // note - should be impossible for jailed member to have shares\n        require(canRagequit(member.highestIndexYesVote), \"cannot ragequit until highest index proposal member voted YES on is processed\");\n\n        _ragequit(memberToKick, 0, member.loot);\n    }\n\n    function withdrawBalance(address token, uint256 amount) public nonReentrant {\n        _withdrawBalance(token, amount);\n    }\n    \n    function withdrawInterest(address memberAddress) public nonReentrant {\n        require(members[memberAddress].exists == true, \"not member\");\n        require(address(msg.sender) == memberAddress, \"can only be called by member\");\n        \n        uint256 earnings = getUserEarnings(msg.sender);\n        uint256 iTokenPrice = IIdleToken(idleToken).tokenPrice();\n        uint256 earningsTokens = earnings.div(iTokenPrice);\n        \n        require(earningsTokens > 0, \"not enough earnings to redeem a token\");\n        members[memberAddress].iTokenRedemptions.add(earningsTokens);\n    \n        uint256 redeemedTokens = idleToken.redeemIdleToken(earningsTokens, false, new uint256[](0));\n        // @DEV - see if we need to run a collectTokens function to collect the DAI and move to GUILD\n        unsafeAddToBalance(GUILD, depositToken, redeemedTokens);\n        unsafeInternalTransfer(GUILD, msg.sender, depositToken, redeemedTokens);\n        _withdrawBalance(depositToken, redeemedTokens);\n    }\n\n    function withdrawBalances(address[] memory tokens, uint256[] memory amounts, bool max) public nonReentrant {\n        require(tokens.length == amounts.length, \"tokens + amounts arrays must match\");\n\n        for (uint256 i=0; i < tokens.length; i++) {\n            uint256 withdrawAmount = amounts[i];\n            if (max) { // withdraw the maximum balance\n                withdrawAmount = userTokenBalances[msg.sender][tokens[i]];\n            }\n\n            _withdrawBalance(tokens[i], withdrawAmount);\n        }\n    }\n    \n    \n    function _withdrawBalance(address token, uint256 amount) internal {\n        require(userTokenBalances[msg.sender][token] >= amount, \"insufficient balance\");\n        unsafeSubtractFromBalance(msg.sender, token, amount);\n        require(IERC20(token).transfer(msg.sender, amount), \"transfer failed\");\n        emit Withdraw(msg.sender, token, amount);\n    }\n    \n    function withdrawFees() external {\n        \n        uint256 totalEarnings = getGuildEarnings();\n        // Pool Fees = 20% of interest (i.e. if interest earnings = 5% then pool fees are 1%)\n        uint256 poolFees = totalEarnings.mul(uint256(100).div(20));\n        uint256 iTokenPrice = IIdleToken(idleToken).tokenPrice();\n        uint256 feeTokens = poolFees.div(iTokenPrice);\n        \n        require(feeTokens > 1*10**18, \"not enough fees to withdraw\");\n        require(IERC20(address(idleToken)).transfer(daoFee, feeTokens));\n        unsafeSubtractFromBalance(GUILD, address(idleToken), feeTokens);\n    }\n\n    // NOTE: gives the DAO the ability to collect payments and also recover tokens just sent to DAO address (if whitelisted)\n    function collectTokens(address token) external {\n        uint256 amountToCollect = IERC20(token).balanceOf(address(this)) - userTokenBalances[TOTAL][token];\n        // only collect if 1) there are tokens to collect and 2) token is whitelisted\n        require(amountToCollect > 0, \"no tokens\");\n        require(tokenWhitelist[token], \"not whitelisted\");\n        \n        if (userTokenBalances[GUILD][token] == 0 && totalGuildBankTokens < MAX_TOKEN_WHITELIST_COUNT) {\n            totalGuildBankTokens += 1;\n        }\n        unsafeAddToBalance(GUILD, token, amountToCollect);\n\n        emit TokensCollected(token, amountToCollect);\n    }\n    \n\n    // NOTE: requires that delegate key which sent the original proposal cancels, msg.sender == proposal.proposer\n    function cancelProposal(uint256 proposalId) public nonReentrant {\n        Proposal storage proposal = proposals[proposalId];\n        require(getCurrentPeriod() <= proposal.startingPeriod, \"voting period has already started\");\n        require(!proposal.flags[3], \"proposal already cancelled\");\n        require(msg.sender == proposal.proposer, \"only proposer cancels\");\n\n        proposal.flags[3] = true; // cancelled\n        \n        unsafeInternalTransfer(ESCROW, proposal.proposer, proposal.tributeToken, proposal.tributeOffered);\n        emit CancelProposal(proposalId, msg.sender);\n    }\n\n    function updateDelegateKey(address newDelegateKey) public nonReentrant {\n        require(members[msg.sender].shares.add(members[msg.sender].loot) > 0, \"only members can ragequit\");\n        require(newDelegateKey != address(0), \"newDelegateKey cannot be 0\");\n\n        // skip checks if member is setting the delegate key to their member address\n        if (newDelegateKey != msg.sender) {\n            require(!members[newDelegateKey].exists, \"cannot overwrite existing members\");\n            require(!members[memberAddressByDelegateKey[newDelegateKey]].exists, \"cannot overwrite delegate keys\");\n        }\n\n        Member storage member = members[msg.sender];\n        memberAddressByDelegateKey[member.delegateKey] = address(0);\n        memberAddressByDelegateKey[newDelegateKey] = msg.sender;\n        member.delegateKey = newDelegateKey;\n\n        emit UpdateDelegateKey(msg.sender, newDelegateKey);\n    }\n\n    // can only ragequit if the latest proposal you voted YES on has been processed\n    function canRagequit(uint256 highestIndexYesVote) public view returns (bool) {\n        require(highestIndexYesVote < proposalQueue.length, \"no such proposal\");\n        return proposals[proposalQueue[highestIndexYesVote]].flags[0];\n    }\n\n    function hasVotingPeriodExpired(uint256 startingPeriod) public view returns (bool) {\n        return getCurrentPeriod() >= startingPeriod.add(votingPeriodLength);\n    }\n    \n    /***************\n    GETTER FUNCTIONS\n    ***************/\n    function max(uint256 x, uint256 y) internal pure returns (uint256) {\n        return x >= y ? x : y;\n    }\n\n    function getCurrentPeriod() public view returns (uint256) {\n        return now.sub(summoningTime).div(periodDuration);\n    }\n\n    function getProposalQueueLength() public view returns (uint256) {\n        return proposalQueue.length;\n    }\n\n    function getProposalFlags(uint256 proposalId) public view returns (bool[6] memory) {\n        return proposals[proposalId].flags;\n    }\n\n    function getUserTokenBalance(address user, address token) public view returns (uint256) {\n        return userTokenBalances[user][token];\n    }\n\n    function getMemberProposalVote(address memberAddress, uint256 proposalIndex) public view returns (Vote) {\n        require(members[memberAddress].exists, \"no such member\");\n        require(proposalIndex < proposalQueue.length, \"unproposed\");\n        return proposals[proposalQueue[proposalIndex]].votesByMember[memberAddress];\n    }\n\n    function getTokenCount() public view returns (uint256) {\n        return approvedTokens.length;\n    }\n\n    /***************\n    HELPER FUNCTIONS\n    ***************/\n    \n    function getUserEarnings(address memberAddress) public returns (uint256) {\n        uint256 userBalance = members[memberAddress].iTokenAmts.sub(members[memberAddress].iTokenRedemptions);\n        uint256 avgCost = userBalance.mul(IIdleToken(idleToken).userAvgPrices(address(this))).div(10**18);\n        uint256 currentValue = userBalance.mul(IIdleToken(idleToken).tokenPrice()).div(10**18);\n        uint256 totalEarnings = currentValue.sub(avgCost);\n        uint256 poolFees = totalEarnings.mul(uint256(100).div(20));\n        uint256 earnings = totalEarnings.sub(poolFees);\n\n        return earnings;\n    }\n    \n    // *NOTE* - returns earnings inclusive of fees \n    function getGuildEarnings() public returns (uint256) {\n        address user = address(this);\n        uint256 userBalance = getUserTokenBalance(GUILD, address(idleToken));\n        uint256 avgCost = userBalance.mul(idleToken.userAvgPrices(user)).div(10**18);\n        uint256 currentValue = userBalance.mul(idleToken.tokenPrice()).div(10**18);\n        uint256 totalEarnings = currentValue.sub(avgCost);\n        \n        return totalEarnings;\n    }\n    \n    function depositToIdle(address depositor, address token, uint256 amount) internal {\n        require(token == depositToken, \"not able to deposit in idle\");\n        require(amount != 0, \"no tokens to deposit\");\n        require(IERC20(address(idleToken)).approve(address(this), amount), 'approval failed');\n        \n        uint256 newIdle = IIdleToken(idleToken).mintIdleToken(amount, true);\n        unsafeAddToBalance(GUILD, address(idleToken), newIdle);\n        members[depositor].iTokenAmts.add(newIdle);\n    }\n    \n    \n    function unsafeAddToBalance(address user, address token, uint256 amount) internal {\n        userTokenBalances[user][token] += amount;\n        userTokenBalances[TOTAL][token] += amount;\n    }\n\n    function unsafeSubtractFromBalance(address user, address token, uint256 amount) internal {\n        userTokenBalances[user][token] -= amount;\n        userTokenBalances[TOTAL][token] -= amount;\n    }\n\n    function unsafeInternalTransfer(address from, address to, address token, uint256 amount) internal {\n        unsafeSubtractFromBalance(from, token, amount);\n        unsafeAddToBalance(to, token, amount);\n    }\n\n    function fairShare(uint256 balance, uint256 shares, uint256 totalSharesAndLoot) internal pure returns (uint256) {\n        require(totalSharesAndLoot != 0);\n\n        if (balance == 0) { return 0; }\n\n        uint256 prod = balance * shares;\n\n        if (prod / balance == shares) { // no overflow in multiplication above?\n            return prod / totalSharesAndLoot;\n        }\n\n        return (balance / totalSharesAndLoot) * shares;\n    }  \n}",
  "sourcePath": "/Users/bill/Desktop/peepsvest/contracts/Party.sol",
  "compiler": {
    "name": "solc",
    "version": "0.5.17+commit.d19bba13.Emscripten.clang"
  },
  "schemaVersion": "3.2.0",
  "updatedAt": "2020-08-11T01:24:48.291Z",
  "devdoc": {
    "methods": {}
  },
  "userdoc": {
    "methods": {
      "constructor": "**************** SUMMONING FUNCTIONS*****************",
      "getUserEarnings(address)": {
        "notice": "************* HELPER FUNCTIONS**************"
      },
      "setMinion(address)": {
        "notice": "************** MINION GOVERNANCE***************"
      },
      "submitProposal(address,uint256,uint256,uint256,uint256,uint256,address,address,bytes32)": {
        "notice": "*************** PROPOSAL FUNCTIONS****************"
      }
    }
  }
}